:100000000C94CE000C94EB000C94EB000C94EB00E1
:100010000C94EB000C94EB000C94EB000C94EB00B4
:100020000C94EB000C94EB000C94EB000C94EB00A4
:100030000C94EB000C94EB000C94EB000C94EB0094
:100040000C94EB000C94EB000C9485080C94EB00E2
:100050000C94EB000C94EB000C94EB000C94EB0074
:100060000C94EB000C94EB000C94EB000C94EB0064
:100070000C94EB000C94EB000C94EB0005A84CCD19
:10008000B2D44EB93836A9020C50B9918688083CD2
:10009000A6AAAA2ABE000000803F6E616E00696EAB
:1000A000660000407A10F35A00A0724E1809001042
:1000B000A5D4E80000E87648170000E40B540200DD
:1000C00000CA9A3B000000E1F50500008096980008
:1000D000000040420F000000A08601000000102731
:1000E00000000000E80300000000640000000000C1
:1000F0000A00000000000100000000002C76D888F3
:10010000DC674F0823DFC1DFAE59E1B1B796E5E305
:10011000E453C63AE651997696E8E6C28426EB891E
:100120008C9B62ED407C6FFCEFBC9C9F40F2BAA5BB
:100130006FA5F490055A2AF75C936B6CF9676DC153
:100140001BFCE0E40D47FEF520E6B500D0ED902E57
:100150000300943577050080841E080000204E0AB5
:10016000000000C80C333333330F986E12831141F3
:10017000EF8D2114893BE65516CFFEE6DB18D184BE
:100180004B381BF77C1D901DA4BBE42420328472E5
:100190005E228100C9F124ECA1E53D2711241FBE98
:1001A000CFEFD0E1DEBFCDBF11E0A0E0B1E0E0E6EF
:1001B000F3E202C005900D92A236B107D9F711E023
:1001C000A2E6B1E001C01D92A83BB107E1F70E9491
:1001D000EE0A0C94AE110C940000A1E1B0E0E3EF44
:1001E000F0E00C94BF0F3C017F876E876A01FC0131
:1001F00017821682838181FD03C06FEF7FEF6FC38B
:100200009E012F5F3F4F398B288BF3012381EE85B1
:10021000FF8523FD859123FF8191FF87EE8788234A
:1002200009F45AC3853251F4EE85FF8523FD85918B
:1002300023FF8191FF87EE87853229F490E0B30197
:100240000E94E410E2CF982F10E088249924103205
:10025000B0F49B3269F09C3228F4903251F0933222
:1002600071F40BC09D3239F0903349F4116028C00D
:100270001260146025C0186023C0106121C017FDF2
:100280002AC0892F80538A3078F416FF06C0FAE01E
:100290009F9E902C1124980E13C03AE0839E802CD0
:1002A0001124880E10620CC09E3221F416FD14C376
:1002B000106406C09C3611F4106802C0983659F4D8
:1002C000EE85FF8523FD959123FF9191FF87EE87B2
:1002D000992309F0BCCF892F8554833020F4812FD6
:1002E0008061905E07C0892F8556833008F09FC1DA
:1002F000812F8F7E86FD02C076E0972E6FE3F62E6B
:10030000F822953619F4F0E4FF2A07C0963619F45E
:1003100020E8F22A02C091109A94F7FE0AC03BE34B
:10032000391518F45CE3B52E02C0B92CB39427E05C
:1003300009C047E0491520F4BB2447E0942EF7CFCD
:10034000292DBB24C60104969D878C87F601608108
:10035000718182819381AE014F5F5F4F0B2D0E94AF
:10036000F60F6C010981202E332400FF04C003FD29
:1003700002C01DE209C0F1FE02C01BE205C0F2FC92
:1003800002C010E001C010E2C1018C709070892B96
:10039000B9F1112311F483E001C084E0881510F055
:1003A00088240AC0881AF3FC07C080E290E0B301F9
:1003B0000E94E4108A94C9F7112329F0812F90E05C
:1003C000B3010E94E41023FE03C00AE910E00EC04E
:1003D0000EE910E00BC0E114F10409F0805290E046
:1003E000B3010E94E4100F5F1F4F05C0EF2CFF24E4
:1003F000F0E1EF22FF24F8018491882361F714C112
:10040000F7FE12C0BC0C24FE04C08A81813309F4BB
:10041000BA941B141CF0BB24B3942DC0F8E0FB1558
:1004200050F538E0B32E27C0F6FC25C0892D90E0AA
:100430008C159D054CF02CEFC2162FEFD20624F040
:1004400030E8F32A01C09A94992049F0E2E0F0E004
:10045000EC0FFD1FE90DF11D80818033A1F3F7FE44
:100460000AC0B92CB394892D90E0C816D90614F0AF
:10047000992401C09C18F7FC03C025E030E009C0B6
:100480001C141D041CF021E030E003C096012F5F16
:100490003F4F112311F02F5F3F4F992029F0892DF5
:1004A00090E00196280F391F882D90E02817390712
:1004B00014F0882401C0821A4F2C5524C20189707F
:1004C0009070892B39F008C080E290E0B3010E945F
:1004D000E4108A948820C1F7112329F0812F90E03D
:1004E000B3010E94E41043FE07C008C080E390E01F
:1004F000B3010E94E4108A948820C1F7F7FE46C039
:100500008601D7FE02C000E010E076010894E11CED
:10051000F11CE01AF10A41E050E04C0F5D1FE40EBF
:10052000F51E26014B185108892D90E0AA24BB2402
:10053000A81AB90A5FEF0F3F150729F48EE290E081
:10054000B3010E94E410C016D10634F040165106E3
:100550001CF4F701808101C080E301501040089431
:10056000E11CF11C0A151B052CF090E0B3010E9460
:10057000E410E0CF0C151D0539F49A81963318F478
:10058000953311F424FE81E390E04BC08A818133DE
:1005900009F00F7E90E0B3010E94E4109920A1F0D1
:1005A0008EE290E0B3010E94E41012E0E1E0F0E09E
:1005B000EC0FFD1FE10FF11D1F5F808190E0B30183
:1005C0000E94E4109A9491F744FC03C085E690E001
:1005D00002C085E490E0B3010E94E410D7FC05C09E
:1005E000C114D10441F404FF06C0D094C194D108D1
:1005F000D3948DE201C08BE290E0B3010E94E4103D
:1006000080E305C08F5F26EF3FEFC20ED31E3AE0B6
:10061000C316D104BCF790E0B3010E94E410C601F8
:10062000C096B3010E94E410CC84DD8452C193369D
:1006300031F0933799F0933509F059C023C0F60192
:10064000808189835E010894A11CB11C22E030E006
:10065000C20ED31E21E0E22EF12C12C0F601A080C2
:10066000B18016FD03C06FEF7FEF02C0692D70E00F
:1006700022E030E0C20ED31EC5010E94D9107C01D9
:100680001F7713C0F601A080B18016FD03C06FEF85
:100690007FEF02C0692D70E022E030E0C20ED31E71
:1006A000C5010E94CE107C01106813FF07C01BC05B
:1006B00080E290E0B3010E94E4108A94882D90E0DB
:1006C000E816F906A8F30FC0F50117FD859117FF8D
:1006D00081915F0190E0B3010E94E41081108A943F
:1006E0000894E108F108E114F10471F7F2C09436BE
:1006F00011F0993689F517FF08C0F6012081318184
:100700004281538184E090E00AC0F60180819181AA
:100710009C01442737FD4095542F82E090E0C80E9D
:10072000D91E9FE6F92EF12257FF09C0509540953A
:10073000309521953F4F4F4F5F4F90E8F92ACA01FE
:10074000B901AE014F5F5F4F2AE030E00E945011C7
:10075000E82EE889EE1A41C0953721F41F7E2AE081
:1007600030E01CC0197F9F3661F0903720F4983537
:1007700009F0B2C00FC0903739F0983709F0ACC01B
:1007800004C028E030E00AC0106114FD146020E1CC
:1007900030E004C014FD166020E132E017FF08C00D
:1007A000F601608171818281938144E050E008C04C
:1007B000F60180819181BC0180E090E042E050E050
:1007C000C40ED51EAE014F5F5F4F0E945011E82E40
:1007D0005889E51A8FE7F82EF122F6FE0BC08EEF4E
:1007E000F822E91438F4F4FE07C0F2FC05C09FEECD
:1007F000F92202C01E2D01C0192DF4FE0DC0FE010C
:10080000EE0DF11D8081803319F4E9EEFE2208C05F
:100810001F5FF2FE05C003C08F2D867809F01F5FB1
:100820000F2DF3FC14C0F0FE0FC0181510F09E2C15
:100830000BC09E2C980C911A182D06C080E290E0F7
:10084000B3010E94E4101F5F1815C0F304C018150F
:1008500010F4811A01C0882404FF0FC080E390E0E7
:10086000B3010E94E41002FF1DC001FD03C088E730
:1008700090E00EC088E590E00BC0802F867891F064
:1008800001FF02C08BE201C080E2F7FC8DE290E044
:10089000B3010E94E41006C080E390E0B3010E941F
:1008A000E4109A94E914C0F3EA94E1E0F0E0EC0F6C
:1008B000FD1FEE0DF11D808190E0B3010E94E41058
:1008C000EE2091F706C080E290E0B3010E94E410B0
:1008D0008A948820C1F799CCF30166817781CB0196
:1008E0006196E2E10C94DB0F91B121E030E002C0AF
:1008F000220F331F8A95E2F7822F8095892381B9D1
:10090000EEE7F0E08081282B208390E490937C0038
:1009100087E880937A0090937B00089591B121E05D
:1009200030E002C0220F331F8A95E2F72095292379
:1009300021B910927900E8E7F0E01082118210826C
:10094000089590917C00982B90937C001092640005
:1009500080917A00806480937A0080917A0086FD8D
:10096000FCCF2091780030917900C901089580640E
:1009700080937C000895EF92FF920F931F93482F6E
:10098000CB0120E16030720714F08FEF9FE07C0113
:100990000027F7FC0095102F80912B008F7E80930D
:1009A0002B00842F80630E94EB06D801C70124E04E
:1009B000B695A795979587952A95D1F70E94EB064E
:1009C0008FE090E0A0E0B0E0E822F9220A231B23A8
:1009D0008E2D8295807F0E94EB0680912B00806196
:1009E00080932B0080912B008F7E80932B00809131
:1009F0002B00806180932B001F910F91FF90EF904F
:100A00000895CF92DF92EF92FF920F931F93883455
:100A100019F08C3491F519C040939A0150939B01C1
:100A200060939C0170939D0100939E0110939F0120
:100A30002093A0013093A101C092A201D092A30102
:100A4000E092A401F092A50118C04093A601509332
:100A5000A7016093A8017093A9010093AA011093C4
:100A6000AB012093AC013093AD01C092AE01D092A6
:100A7000AF01E092B001F092B1011F910F91FF9090
:100A8000EF90DF90CF9008956F927F928F929F9218
:100A9000AF92BF92CF92DF92EF92FF920F931F938C
:100AA0009B01281B390B442737FD4095542FCA0161
:100AB000B9010E942B0E5B016C0120916E013091F7
:100AC0006F0140917001509171010E94280D2AE040
:100AD00037ED43E25CE30E94900D3B014C016093D3
:100AE0006601709367018093680190936901E090BB
:100AF0009E01F0909F010091A0011091A101C801F9
:100B0000B701A60195010E94F00E20916A01309173
:100B10006B0140916C0150916D010E94290D9B0168
:100B2000AC0160936A0170936B0180936C019093A8
:100B30006D01C801B7010E94F00E7B018C01C40158
:100B4000B3012091A2013091A3014091A4015091E1
:100B5000A5010E94F00E9B01AC01C801B7010E94E3
:100B6000290D7B018C01C601B50120919A013091BC
:100B70009B0140919C0150919D010E94F00E9B01B0
:100B8000AC01C801B7010E94290D609384017093E4
:100B900085018093860190938701A0926E01B092A7
:100BA0006F01C0927001D09271010E94F80DCB01CB
:100BB0001F910F91FF90EF90DF90CF90BF90AF907B
:100BC0009F908F907F906F9008956F927F928F92F9
:100BD0009F92AF92BF92CF92DF92EF92FF920F93CC
:100BE0001F939B01281B390B442737FD4095542F39
:100BF000CA01B9010E942B0E5B016C0120917C019E
:100C000030917D0140917E0150917F010E94280D1D
:100C10002AE037ED43E25CE30E94900D3B014C017A
:100C200060937401709375018093760190937701BE
:100C3000C601B5012AE037ED43E25CE30E94F00E05
:100C4000209178013091790140917A0150917B0196
:100C50000E94290D609378017093790180937A0145
:100C600090937B012091AA013091AB014091AC019E
:100C70005091AD010E94F00E7B018C01C401B301C3
:100C80002091AE013091AF014091B0015091B1017E
:100C90000E94F00E9B01AC01C801B7010E94290D12
:100CA0007B018C01C601B5012091A6013091A701FD
:100CB0004091A8015091A9010E94F00E9B01AC0146
:100CC000C801B7010E94290D6093800170938101D2
:100CD0008093820190938301A0927C01B0927D0168
:100CE000C0927E01D0927F010E94F80DCB011F912E
:100CF0000F91FF90EF90DF90CF90BF90AF909F90BB
:100D00008F907F906F90089587E090E00E94B704E5
:100D100087E090E00E94A104A0E0B0E0BC01CD011A
:100D20000E94290E24E83BE240EA5BE30E94F00EB9
:100D30006093A6017093A7018093A8019093A901E5
:100D400086E090E00E94B70486E090E00E94A10453
:100D5000A0E0B0E0BC01CD010E94290E20E030EC03
:100D60004FE754E40E94900D6093AA017093AB0189
:100D70008093AC019093AD0185E090E00E94B704B0
:100D800085E090E00E94A104A0E0B0E0BC01CD01AC
:100D90000E94290E20ED32E240E05AE30E94F00E5C
:100DA0006093AE017093AF018093B0019093B10155
:100DB00082E090E00E94B704089580EB84B990E14E
:100DC00095B91092640082ED8CBD8FE787B99AB90E
:100DD00088B99BB908958EBD0DB407FEFDCF8EB5C1
:100DE00008959B01AC0164E0220F331F441F551F7F
:100DF0006A95D1F760E070E489E191E00E949D0F6F
:100E0000C901DA010197A109B109292F3A2F4B2F06
:100E100055270196A11DB11D2093CD0081508093CF
:100E2000CC0088E18093C9000895982F8091C80074
:100E300085FFFCCF9093CE0008958091C80087FF76
:100E4000FCCF8091CE000895AA2797FDA095BA2FD8
:100E5000BC01CD010E942B0E25E33AEF4EE85CE386
:100E60000E94F00E08952F923F924F925F926F92E0
:100E70007F928F929F92AF92BF92CF92DF92EF922A
:100E8000FF920F931F93DF93CF93CDB7DEB72897D1
:100E90000FB6F894DEBF0FBECDBF82E090E00E9497
:100EA000B70482E090E00E94A104AA2797FDA095D4
:100EB000BA2FBC01CD010E942B0E28EB3EE145E884
:100EC0005EE30E94F00E20E030E04AEA52E40E9425
:100ED000280D0E94F80D69837A838B839C83298176
:100EE0003A81B901882777FD8095982F0E942B0EB3
:100EF00025E33AEF4EE85CE30E94F00E1B012C0163
:100F000083E090E00E94B70483E090E00E94A10497
:100F1000AA2797FDA095BA2FBC01CD010E942B0EE8
:100F200028EB3EE145E85EE30E94F00E20E030E071
:100F30004AEA52E40E94280D20E030E044EB52E4FB
:100F40000E94280D0E94F80D6D837E838F83988701
:100F5000ED80FE80C201B1010E948D0D3B014C016C
:100F60000027F7FC0095102FC801B7010E942B0E37
:100F700025E33AEF4EE85CE30E94F00E9B01AC01E2
:100F8000C201B1010E94290D7B018C01C8010E94A0
:100F90008D0D5B016C01C401B30120E030E040E73E
:100FA00051E40E94F00E3B014C01C601B50120E066
:100FB00030E040E451E40E94F00E9B01AC01C4011A
:100FC000B3010E94290D5B016C01CB01D601809316
:100FD000880190938901A0938A01B0938B01C2018B
:100FE000B1010E94530F1B012C01B701C8010E94DF
:100FF000530F3B014C01C201B10120E030E040E75A
:1010000051E40E94F00E20E030E040E551E40E94FF
:10101000290D7B018C01C401B30120E030E040E4E4
:1010200051E40E94F00E9B01AC01C801B7010E947F
:10103000290D9B01AC0120938C0130938D014093CD
:101040008E0150938F01ADB7BEB71E970FB6F894BF
:10105000BEBF0FBEADBFEDB6FEB60894E11CF11CDD
:1010600020E031E012963C932E93119729813A812A
:10107000F70133832283AD81BE81B583A4839501BB
:101080004C2D5D2D2683378340875187AC01CB01E2
:10109000DA0182879387A487B5870E9410112DB744
:1010A0003EB7225F3F4F0FB6F8943EBF0FBE2DBF35
:1010B00028960FB6F894DEBF0FBECDBFCF91DF915B
:1010C0001F910F91FF90EF90DF90CF90BF90AF9066
:1010D0009F908F907F906F905F904F903F902F9058
:1010E00008958B5A9F4FAA2797FDA095BA2FBC0150
:1010F000CD010E942B0E28EB3EE145E85EE30E9405
:10110000900D0E94F80DCB0108951F920F920FB61B
:101110000F9211242F933F938F939F93809192016D
:101120009091930101969093930180939201209165
:1011300092013091930180913D0190913E0182177F
:10114000930754F481E090E090939501809394018B
:1011500010929301109292019F918F913F912F9144
:101160000F900FBE0F901F9018956F927F928F92E5
:101170009F92AF92BF92CF92DF92EF92FF920F9326
:101180001F9382E090E00E94B70482E090E00E940A
:10119000A1047C0180E090E00E94B70480E090E030
:1011A0000E94A1040E94F90B5C010027F7FC009546
:1011B000102FC801B7010E942B0E3B014C018DB7C7
:1011C0009EB70C970FB6F8949EBF0FBE8DBF0DB79C
:1011D0001EB70F5F1F4F8FE091E0EDB7FEB7928310
:1011E00081838091960190919701F8019383828386
:1011F000C401B3012FE135E84BE65EE30E94F00E37
:1012000020E030E046E952E40E94280D0E94FD0DE6
:10121000F80175836483C401B3012EE037E64CE91D
:1012200050E40E94F00E0E94FD0DF8017783668362
:10123000CC24B7FCC094DC2CC601B5010E942B0E57
:10124000F80160877187828793870E9410118DB79C
:101250009EB70C960FB6F8949EBF0FBE8DBF1F9120
:101260000F91FF90EF90DF90CF90BF90AF909F9045
:101270008F907F906F900895AF92BF92CF92DF9240
:10128000EF92FF920F931F935C01B501882777FDC2
:101290008095982F0E942B0E7B018C018DB79EB7F5
:1012A00008970FB6F8949EBF0FBE8DBFCDB6DEB6C1
:1012B0000894C11CD11C8BE191E0EDB7FEB792837D
:1012C0008183F601B382A282C801B7012EE037E61E
:1012D0004CE950E40E94F00E0E94FD0DF60175836A
:1012E0006483C801B70128EB3EE145E85EE30E9454
:1012F000F00E20E030E04AEA52E40E94280D0E94FD
:10130000FD0DF601778366830E9410118DB79EB79D
:1013100008960FB6F8949EBF0FBE8DBF1F910F9118
:10132000FF90EF90DF90CF90BF90AF900895AF9275
:10133000BF92CF92DF92EF92FF920F931F936C01B7
:10134000B601882777FD8095982F0E942B0E7B0190
:101350008C018DB79EB708970FB6F8949EBF0FBE4D
:101360008DBFADB6BEB60894A11CB11C8BE191E057
:10137000EDB7FEB792838183F501D382C282C801A3
:10138000B7012EE037E64CE950E40E94F00E0E94CF
:10139000FD0DF50175836483C801B70128EB3EE1BB
:1013A00045E85EE30E94F00E20E030E04AEA52E4B5
:1013B0000E94280D20E030E044EB52E40E94290D09
:1013C0000E94FD0DF501778366830E9410118DB791
:1013D0009EB708960FB6F8949EBF0FBE8DBF1F91A3
:1013E0000F91FF90EF90DF90CF90BF90AF90089556
:1013F0000F931F930E9471088C0183E090E00E947C
:10140000B70483E090E00E94A104BC01C8010E94DF
:101410004405BC0188E40E94370C1F910F91089588
:101420000F931F930E9471088C0182E090E00E944C
:10143000B70482E090E00E94A104BC01C8010E94B0
:10144000E505BC018CE40E94370C1F910F910895B3
:10145000CF93DF93AC0197FF02C040E050E0EB0177
:1014600077FF02C0C0E0D0E0CA014B35510514F04F
:101470008AE590E00E94100A9E01C53BD10514F058
:1014800024EB30E0C9010E94F809DF91CF91089563
:101490000F931F93CF93DF9382E090E00E94B704F5
:1014A00082E090E00E94A104A0E0B0E0BC01CD0188
:1014B0000E94290E28EB3EE145E85EE30E94F00E13
:1014C00020E030E04AEA52E40E94280D0E94F80D24
:1014D0008B0183E090E00E94B70483E090E00E94DB
:1014E000A104A0E0B0E0BC01CD010E94290E28EBD0
:1014F0003EE145E85EE30E94F00E20E030E04AEA7B
:1015000052E40E94280D20E030E044EB52E40E94B7
:10151000280D0E94F80DEB0180919801909199019E
:10152000009799F480E090E06AE570E00E94280A54
:101530000B5F1F4F0B30110508F04BC025962B9702
:1015400008F047C081E090E012C081309105A1F41D
:101550008DE290E060E070E00E94280A085210409E
:101560000B301105B0F52697A4F582E090E090933A
:101570009901809398012DC08230910589F48DE204
:1015800090E06AE570E00E94280A085210400B3093
:101590001105F8F425962B97E0F483E090E0E7CF6F
:1015A0008330910591F480E090E06AE570E00E945C
:1015B000280A0B5F1F4F0B30110558F4C555D0405A
:1015C0002B9738F484E090E0D2CF049711F40E9476
:1015D0007F0CDF91CF911F910F910895CF92DF92F1
:1015E000EF92FF920F931F930E94A30C81E490E06F
:1015F0000E94251160E072EC81E090E00E94F1060B
:1016000083E090E00E94740487B18F7087B90E94D4
:10161000DD068CE440E050E060E272E400E010E0BF
:1016200020E03FE30F2EFAE0CF2EF7EDDF2EF3EAB6
:10163000EF2EFBE3FF2EF02D0E94010588E440E031
:1016400050E060E272E400E010E020E030E0680189
:1016500079010E9401050E94480AFDCF8091260071
:1016600087FD03C080E090E00FC08091260086FDDA
:1016700005C08DE290E060E070E008C08091260037
:1016800085FD07C08DE290E06AE570E00E94280ABF
:1016900008958091260084FD07C084E190E00E94B7
:1016A000100A8DE290E006C08DE290E00E94100AE0
:1016B0008AE090E00E94F80908958091260087FF53
:1016C00025C08091260086FD07C08EE190E00E9433
:1016D000100A8EE190E015C08091260085FD07C0BC
:1016E0008CE390E00E94100A8CE390E00AC08091A5
:1016F000260084FD0BC08AE590E00E94100A8AE56E
:1017000090E09093970180939601089580E090E097
:101710000E94100A109297011092960108950F935B
:101720001F93CF93DF938C01C0E0D0E00DC080E029
:1017300090E0BE010E94BB04B8016C1B7D0B81E0F0
:1017400090E00E94BB0421960C171D0784F7E80166
:1017500000E010E00DC080E090E0BE010E94BB04FC
:1017600081E090E0B8010E94BB0421970F5F1F4FFA
:101770001C161D0684F3DF91CF911F910F910895E0
:101780000F931F9382E090E00E94A1048C0182E0FD
:1017900090E00E948E04C8010E943C091F910F91A5
:1017A00008950F931F93CF93DF93EC010CEC11E09E
:1017B00014C082E090E00E94C00B80E197E2F80143
:1017C0003197F1F70197D9F78091900190919101AC
:1017D0000196909391018093900180919001909156
:1017E00091018C179D072CF3DF91CF911F910F91E1
:1017F0000895AA2797FDA095BA2FBC01CD010E949C
:101800002B0E20914B0130914C0140914D01509194
:101810004E010E94F00E20914F01309150014091F5
:101820005101509152010E94900D20913F01309141
:10183000400140914101509142010E94280D2091A8
:1018400043013091440140914501509146010E946D
:10185000900D2091470130914801409149015091EC
:101860004A010E94900D0895089508950895CF9318
:10187000DF93482F80EF6130780714F461E070EF58
:10188000EB0180E16030780714F0CFEFDFE04834FF
:10189000C9F04C3489F5D7FD0AC080E090E060E0E3
:1018A00070E00E94BB0481E090E0BE0123C0662787
:1018B00077276C1B7D0B80E090E00E94BB0481E0E9
:1018C00090E009C0D7FD0AC082E090E0BE010E940E
:1018D000BB0483E090E060E070E00CC082E090E048
:1018E00060E070E00E94BB04662777276C1B7D0BCD
:1018F00083E090E00E94BB04DF91CF91089580E0E7
:1019000090E060E070E00E94BB0481E090E060E065
:1019100070E00E94BB0482E090E060E070E00E9412
:10192000BB0483E090E060E070E00E94BB04089597
:1019300014BC81E085BD80936E008FB780688FBF37
:10194000089567BD089583E591E09093B501809374
:10195000B40160E072EC81E090E00E94B50C089563
:101960000E94150780E090E008959B01AC0184E09F
:10197000220F331F441F551F8A95D1F760E070E492
:1019800089E191E00E949D0F215030403093C500C5
:101990002093C40088E18093C10086E08093C20058
:1019A0000895982F8091C00085FFFCCF9093C600CA
:1019B0000895FC0107C08091C00085FFFCCF909383
:1019C000C600319690819923B1F708950F931F9324
:1019D000DF93CF93CDB7DEB764970FB6F894DEBF31
:1019E0000FBECDBF2DB73EB7285030400FB6F8948C
:1019F0003EBF0FBE2DBFEDB7FEB731968E010F5F14
:101A00001F4FADB7BEB712961C930E93119727E2E6
:101A100031E03383228395838483778366830E94B6
:101A20002C112DB73EB7285F3F4F0FB6F8943EBF3D
:101A30000FBE2DBFC8010E94D90C64960FB6F89452
:101A4000DEBF0FBECDBFCF91DF911F910F910895E3
:101A50005058BB27AA270ED078C141D130F046D1CB
:101A600020F031F49F3F11F41EF436C10EF4E095DE
:101A7000E7FB2CC1E92F8BD180F3BA1762077307FC
:101A80008407950718F071F49EF5A3C10EF4E09554
:101A90000B2EBA2FA02D0B01B90190010C01CA0128
:101AA000A0011124FF27591B99F0593F50F4503ED3
:101AB00068F11A16F040A22F232F342F4427585FC5
:101AC000F3CF469537952795A795F0405395C9F7DD
:101AD0007EF41F16BA0B620B730B840BBAF0915095
:101AE000A1F0FF0FBB1F661F771F881FC2F70EC034
:101AF000BA0F621F731F841F48F487957795679507
:101B0000B795F7959E3F08F0B3CF9395880F08F0EF
:101B10009927EE0F979587950895F0D0E39526C104
:101B20000CD013C1E3D040F0DAD030F021F45F3FA5
:101B300019F0CCC051114EC1CFC029D198F39923CF
:101B4000C9F35523B1F3951B550BBB27AA27621781
:101B50007307840738F09F5F5F4F220F331F441FC6
:101B6000AA1FA9F333D00E2E3AF0E0E830D09150FE
:101B70005040E695001CCAF729D0FE2F27D0660FEB
:101B8000771F881FBB1F261737074807AB07B0E82A
:101B900009F0BB0B802DBF01FF2793585F4F2AF040
:101BA0009E3F510568F092C015C15F3FECF3983E2F
:101BB000DCF3869577956795B795F7959F5FC9F79D
:101BC000880F911D9695879597F90895E1E0660F26
:101BD000771F881FBB1F621773078407BA0720F09F
:101BE000621B730B840BBA0BEE1F88F7E095089508
:101BF00004D06894B111EEC00895D1D088F09F57F9
:101C000090F0B92F9927B751A0F0D1F0660F771F48
:101C1000881F991F1AF0BA95C9F712C0B13081F028
:101C2000D8D0B1E00895D5C0672F782F8827B85F46
:101C300039F0B93FCCF3869577956795B395D9F789
:101C40003EF490958095709561957F4F8F4F9F4F93
:101C50000895E89409C097FB3EF49095809570959F
:101C600061957F4F8F4F9F4F9923A9F0F92F96E9E8
:101C7000BB279395F695879577956795B795F1115D
:101C8000F8CFFAF4BB0F11F460FF1BC06F5F7F4FFA
:101C90008F4F9F4F16C0882311F096E911C077230C
:101CA00021F09EE8872F762F05C0662371F096E815
:101CB000862F70E060E02AF09A95660F771F881FE4
:101CC000DAF7880F9695879597F9089597F99F67A2
:101CD00080E870E060E008959FEF80EC08950024B4
:101CE0000A941616170618060906089500240A9481
:101CF00012161306140605060895EECF50D0E8F329
:101D0000E894E0E0BB279F57F0F02AED3FE049EC74
:101D100006C0EE0FBB0F661F771F881F28F0B23A70
:101D200062077307840728F0B25A620B730B840BA7
:101D3000E3959A9572F7803830F49A95BB0F661F39
:101D4000771F881FD2F79048B6C0092E0394000C65
:101D500011F4882352F0BB0F40F4BF2B11F460FF45
:101D600004C06F5F7F4F8F4F9F4F0895EF93E0FF49
:101D700006C0A2EA2AED3FE049EC5FEB7BDEE5DF3F
:101D80000F90039401FC9058ECE7F0E0A0C057FDE1
:101D90009058440F551F59F05F3F71F04795880FD9
:101DA00097FB991F61F09F3F79F087950895121670
:101DB00013061406551FF2CF4695F1DF08C016161C
:101DC00017061806991FF1CF8695710561050894CD
:101DD0000895E894BB2766277727CB0197F90895E4
:101DE0000BD0B3CF7CDF28F081DF18F0952309F00A
:101DF0006DCF72CF1124EECFCADFA0F3959FD1F340
:101E0000950F50E0551F629FF001729FBB27F00DA8
:101E1000B11D639FAA27F00DB11DAA1F649F6627FD
:101E2000B00DA11D661F829F2227B00DA11D621F4C
:101E3000739FB00DA11D621F839FA00D611D221F06
:101E4000749F3327A00D611D231F849F600D211DEA
:101E5000822F762F6A2F11249F5750408AF0E1F08D
:101E600088234AF0EE0FFF1FBB1F661F771F881FD6
:101E700091505040A9F79E3F510570F027CFAACF4F
:101E80005F3FECF3983EDCF3869577956795B795C1
:101E9000F795E7959F5FC1F7FE2B880F911D9695EB
:101EA000879597F908959F9329DF0F9007FCEE5FC0
:101EB0005DCF9F3F31F0915020F4879577956795DE
:101EC000B795880F911D9695879597F908959F93DB
:101ED0008F937F936F93FF93EF939B01AC0180DF10
:101EE000EF91FF9105D02F913F914F915F9178CF66
:101EF000DF93CF931F930F93FF92EF92DF927B01BB
:101F00008C01689405C0DA2EEF0176DFFE01E894BB
:101F1000A5912591359145915591AEF3EF01AADD3B
:101F2000FE019701A801DA9479F7DF90EF90FF9016
:101F30000F911F91CF91DF910895A1E21A2EAA1B54
:101F4000BB1BFD010DC0AA1FBB1FEE1FFF1FA21769
:101F5000B307E407F50720F0A21BB30BE40BF50B66
:101F6000661F771F881F991F1A9469F760957095EF
:101F7000809590959B01AC01BD01CF0108952F92F2
:101F80003F924F925F926F927F928F929F92AF9209
:101F9000BF92CF92DF92EF92FF920F931F93CF9356
:101FA000DF93CDB7DEB7CA1BDB0B0FB6F894DEBFED
:101FB0000FBECDBF09942A88398848885F846E8413
:101FC0007D848C849B84AA84B984C884DF80EE805D
:101FD000FD800C811B81AA81B981CE0FD11D0FB666
:101FE000F894DEBF0FBECDBFED010895283008F094
:101FF00027E03327DA01990F311D87FD91600096A4
:102000006105710539F432602E5F3D9330E32A9506
:10201000E1F708959F3F30F080387105610509F0C0
:102020003C5F3C5F3D93913008F08068911DDF93E9
:10203000CF931F930F93FF92EF92192F987F96954E
:10204000E92F96959695E90FFF27E450FF4F9927C2
:102050003327EE24FF24A701E70105900894079495
:1020600028F4360FE71EF81E491F511D660F771F13
:10207000881F991F0694A1F70590079428F4E70E8E
:10208000F81E491F561FC11D770F881F991F661F15
:102090000694A1F70590079428F4F80E491F561FDF
:1020A000C71FD11D880F991F661F771F0694A1F7C0
:1020B0000590079420F4490F561FC71FD81F990F8A
:1020C000661F771F881F0694A9F7849110951770D3
:1020D00041F0D695C79557954795F794E7941A958B
:1020E000C1F7E2EAF0E06894159015913591659199
:1020F000959105907FE27395E118F10A430B560B19
:10210000C90BD009C0F7E10CF11E431F561FC91FB0
:10211000D01D7EF4703311F48A95E6CFE894015017
:1021200030F0080F0AF40027021708F4202F239537
:10213000022F7A3328F079E37D932A95E9F710C0CE
:102140007D932A9589F60694979567953795179507
:102150001794E118F10A430B560BC90BD00998F0FC
:1021600023957E9173957A3308F070E37C93201366
:10217000B8F77E9170617D9330F0839571E37D9324
:1021800070E32A95E1F71124EF90FF900F911F91D2
:10219000CF91DF91992787FD90950895FC010590D7
:1021A000615070400110D8F7809590958E0F9F1F59
:1021B0000895FC016150704001900110D8F780959E
:1021C00090958E0F9F1F08950F931F93CF93DF93CA
:1021D0008C01EB018B8181FF1BC082FF0DC02E8122
:1021E0003F818C819D812817390764F4E881F9814A
:1021F0000193F983E88306C0E885F985802F099566
:10220000892B31F48E819F8101969F838E8302C03A
:102210000FEF1FEFC801DF91CF911F910F9108952C
:10222000A0E0B0E0E6E1F1E10C94CF0FFE013596BD
:10223000619171918091B4019091B501AF010E94BB
:10224000ED002096E2E00C94EB0F6091B4017091E8
:10225000B5010E94E4100895AEE0B0E0E2E3F1E1E0
:102260000C94CD0F0D891E8986E08C831A83098317
:102270008FEF9FE79E838D839E01275E3F4FCE01A8
:1022800001966F89788DA9010E94ED002F81388514
:10229000020F131FF80110822E96E4E00C94E90F50
:1022A000FA01AA27283051F1203181F1E8946F9387
:1022B0006E7F6E5F7F4F8F4F9F4FAF4FB1E03ED02D
:1022C000B4E03CD0670F781F891F9A1FA11D680FCB
:1022D000791F8A1F911DA11D6A0F711D811D911DFE
:1022E000A11D20D009F468943F912AE0269F112473
:1022F0003019305D3193DEF6CF010895462F4770D7
:10230000405D4193B3E00FD0C9F7F6CF462F4F7031
:10231000405D4A3318F0495D31FD4052419302D08F
:10232000A9F7EACFB4E0A695979587957795679535
:10233000BA95C9F700976105710508959B01AC0135
:102340000A2E06945795479537952795BA95C9F75C
:10235000620F731F841F951FA01D0895F894FFCF6F
:102360002564202564202566202566200A0D002589
:1023700064202564202566200A0D0025642025643C
:10238000202564200A0D00536574736572766F28EA
:1023900025642C25303364290A0D0001002D009A94
:1023A0009929400000A041CDCC4C3D0000A0400048
:1023B000C07F440000000200000000B00C000000DC
:0223C00000001B
:00000001FF
