:100000000C9400010C941D010C941D010C941D0115
:100010000C941D010C941D010C941D010C941D01E8
:100020000C941D010C941D010C941D010C941D01D8
:100030000C941D010C941D010C941D010C941D01C8
:100040000C941D010C941D010C9439090C941D0194
:100050000C941D010C941D010C941D010C941D01A8
:100060000C941D010C941D010C941D010C941D0198
:100070000C941D010C941D010C941D010763423664
:10008000B79BD8A71A39685618AEBAAB558C1D3C29
:10009000B7CC5763BD6DEDFD753EF6177231BF00ED
:1000A0000000803F08000000BE922449123EABAA27
:1000B000AA2ABECDCCCC4C3E00000080BEABAAAA82
:1000C000AA3E00000000BF000000803F00000000CA
:1000D00000084178D3BB4387D1133D190E3CC3BD03
:1000E0004282AD2B3E68EC8276BED98FE1A93E4CB0
:1000F00080EFFFBE01C4FF7F3F00000000006E6183
:100100006E00696E660000407A10F35A00A0724ECD
:1001100018090010A5D4E80000E87648170000E4AC
:100120000B54020000CA9A3B000000E1F5050000F4
:1001300080969800000040420F000000A086010059
:100140000000102700000000E80300000000640029
:10015000000000000A000000000001000000000094
:100160002C76D888DC674F0823DFC1DFAE59E1B1B8
:10017000B796E5E3E453C63AE651997696E8E6C2C7
:100180008426EB898C9B62ED407C6FFCEFBC9C9FCE
:1001900040F2BAA56FA5F490055A2AF75C936B6CF0
:1001A000F9676DC11BFCE0E40D47FEF520E6B500E4
:1001B000D0ED902E0300943577050080841E080052
:1001C00000204E0A000000C80C333333330F986E02
:1001D00012831141EF8D2114893BE65516CFFEE6BF
:1001E000DB18D1844B381BF77C1D901DA4BBE42485
:1001F000203284725E228100C9F124ECA1E53D2702
:1002000011241FBECFEFD0E1DEBFCDBF11E0A0E0D3
:10021000B1E0E8E7F7E202C005900D92AC38B10713
:10022000D9F711E0ACE8B1E001C01D92AC3DB107D7
:10023000E1F70E94980A0C94BA130C940000A1E113
:10024000B0E0E5E2F1E00C94D2113C017F876E87CB
:100250006A01FC0117821682838181FD03C06FEF62
:100260007FEF6FC39E012F5F3F4F398B288BF301C8
:100270002381EE85FF8523FD859123FF8191FF87F3
:10028000EE87882309F45AC3853251F4EE85FF8541
:1002900023FD859123FF8191FF87EE87853229F425
:1002A00090E0B3010E94F712E2CF982F10E088246B
:1002B00099241032B0F49B3269F09C3228F49032C9
:1002C00051F0933271F40BC09D3239F0903349F400
:1002D000116028C01260146025C0186023C010612E
:1002E00021C017FD2AC0892F80538A3078F416FF69
:1002F00006C0FAE09F9E902C1124980E13C03AE09D
:10030000839E802C1124880E10620CC09E3221F432
:1003100016FD14C3106406C09C3611F4106802C0A8
:10032000983659F4EE85FF8523FD959123FF919131
:10033000FF87EE87992309F0BCCF892F855483303E
:1003400020F4812F8061905E07C0892F855683300D
:1003500008F09FC1812F8F7E86FD02C076E0972E28
:100360006FE3F62EF822953619F4F0E4FF2A07C061
:10037000963619F420E8F22A02C091109A94F7FEFA
:100380000AC03BE3391518F45CE3B52E02C0B92C62
:10039000B39427E009C047E0491520F4BB2447E0A7
:1003A000942EF7CF292DBB24C60104969D878C87F8
:1003B000F6016081718182819381AE014F5F5F4F51
:1003C0000B2D0E9409126C010981202E332400FF9D
:1003D00004C003FD02C01DE209C0F1FE02C01BE221
:1003E00005C0F2FC02C010E001C010E2C1018C7037
:1003F0009070892BB9F1112311F483E001C084E0DE
:10040000881510F088240AC0881AF3FC07C080E21F
:1004100090E0B3010E94F7128A94C9F7112329F0E2
:10042000812F90E0B3010E94F71223FE03C00EEF6C
:1004300010E00EC002E011E00BC0E114F10409F07D
:10044000805290E0B3010E94F7120F5F1F4F05C06A
:10045000EF2CFF24F0E1EF22FF24F80184918823A0
:1004600061F714C1F7FE12C0BC0C24FE04C08A81DF
:10047000813309F4BA941B141CF0BB24B3942DC02F
:10048000F8E0FB1550F538E0B32E27C0F6FC25C088
:10049000892D90E08C159D054CF02CEFC2162FEFA6
:1004A000D20624F030E8F32A01C09A94992049F04A
:1004B000E2E0F0E0EC0FFD1FE90DF11D80818033DB
:1004C000A1F3F7FE0AC0B92CB394892D90E0C816A9
:1004D000D90614F0992401C09C18F7FC03C025E04C
:1004E00030E009C01C141D041CF021E030E003C002
:1004F00096012F5F3F4F112311F02F5F3F4F99203F
:1005000029F0892D90E00196280F391F882D90E061
:100510002817390714F0882401C0821A4F2C55245B
:10052000C20189709070892B39F008C080E290E098
:10053000B3010E94F7128A948820C1F7112329F091
:10054000812F90E0B3010E94F71243FE07C008C05C
:1005500080E390E0B3010E94F7128A948820C1F7EB
:10056000F7FE46C08601D7FE02C000E010E076012B
:100570000894E11CF11CE01AF10A41E050E04C0F34
:100580005D1FE40EF51E26014B185108892D90E0E1
:10059000AA24BB24A81AB90A5FEF0F3F150729F454
:1005A0008EE290E0B3010E94F712C016D10634F03B
:1005B000401651061CF4F701808101C080E3015010
:1005C00010400894E11CF11C0A151B052CF090E06A
:1005D000B3010E94F712E0CF0C151D0539F49A8182
:1005E000963318F4953311F424FE81E390E04BC068
:1005F0008A81813309F00F7E90E0B3010E94F712E7
:100600009920A1F08EE290E0B3010E94F71212E06F
:10061000E1E0F0E0EC0FFD1FE10FF11D1F5F8081B5
:1006200090E0B3010E94F7129A9491F744FC03C042
:1006300085E690E002C085E490E0B3010E94F712E5
:10064000D7FC05C0C114D10441F404FF06C0D09406
:10065000C194D108D3948DE201C08BE290E0B30144
:100660000E94F71280E305C08F5F26EF3FEFC20EB6
:10067000D31E3AE0C316D104BCF790E0B3010E9448
:10068000F712C601C096B3010E94F712CC84DD8434
:1006900052C1933631F0933799F0933509F059C030
:1006A00023C0F601808189835E010894A11CB11CDE
:1006B00022E030E0C20ED31E21E0E22EF12C12C067
:1006C000F601A080B18016FD03C06FEF7FEF02C07E
:1006D000692D70E022E030E0C20ED31EC5010E94F9
:1006E000EC127C011F7713C0F601A080B18016FDCB
:1006F00003C06FEF7FEF02C0692D70E022E030E0B1
:10070000C20ED31EC5010E94E1127C01106813FFC6
:1007100007C01BC080E290E0B3010E94F7128A94E8
:10072000882D90E0E816F906A8F30FC0F50117FD33
:10073000859117FF81915F0190E0B3010E94F7124C
:1007400081108A940894E108F108E114F10471F72A
:10075000F2C0943611F0993689F517FF08C0F601FA
:10076000208131814281538184E090E00AC0F6010A
:10077000808191819C01442737FD4095542F82E070
:1007800090E0C80ED91E9FE6F92EF12257FF09C04E
:1007900050954095309521953F4F4F4F5F4F90E8D2
:1007A000F92ACA01B901AE014F5F5F4F2AE030E07C
:1007B0000E945C13E82EE889EE1A41C0953721F4B7
:1007C0001F7E2AE030E01CC0197F9F3661F0903711
:1007D00020F4983509F0B2C00FC0903739F098373F
:1007E00009F0ACC004C028E030E00AC0106114FD7C
:1007F000146020E130E004C014FD166020E132E016
:1008000017FF08C0F601608171818281938144E005
:1008100050E008C0F60180819181BC0180E090E049
:1008200042E050E0C40ED51EAE014F5F5F4F0E9404
:100830005C13E82E5889E51A8FE7F82EF122F6FEB0
:100840000BC08EEFF822E91438F4F4FE07C0F2FC76
:1008500005C09FEEF92202C01E2D01C0192DF4FE25
:100860000DC0FE01EE0DF11D8081803319F4E9EE1B
:10087000FE2208C01F5FF2FE05C003C08F2D8678E0
:1008800009F01F5F0F2DF3FC14C0F0FE0FC0181508
:1008900010F09E2C0BC09E2C980C911A182D06C09F
:1008A00080E290E0B3010E94F7121F5F1815C0F3B9
:1008B00004C0181510F4811A01C0882404FF0FC069
:1008C00080E390E0B3010E94F71202FF1DC001FD1A
:1008D00003C088E790E00EC088E590E00BC0802F51
:1008E000867891F001FF02C08BE201C080E2F7FC44
:1008F0008DE290E0B3010E94F71206C080E390E021
:10090000B3010E94F7129A94E914C0F3EA94E1E06B
:10091000F0E0EC0FFD1FEE0DF11D808190E0B301C2
:100920000E94F712EE2091F706C080E290E0B3013A
:100930000E94F7128A948820C1F799CCF30166814E
:100940007781CB016196E2E10C94EE1191B121E047
:1009500030E002C0220F331F8A95E2F7822F809584
:10096000892381B9EEE7F0E08081282B208390E491
:1009700090937C0087E880937A0090937B000895A1
:1009800091B121E030E002C0220F331F8A95E2F7D7
:100990002095292321B910927900E8E7F0E0108230
:1009A00011821082089590917C00982B90937C0086
:1009B0001092640080917A00806480937A00809124
:1009C0007A0086FDFCCF2091780030917900C90132
:1009D0000895806480937C000895EF92FF920F93B6
:1009E0001F93482FCB0120E16030720714F08FEF86
:1009F0009FE07C010027F7FC0095102F80912B00D1
:100A00008F7E80932B00842F80630E94DD08D801A5
:100A1000C70124E0B695A795979587952A95D1F7B4
:100A20000E94DD088FE090E0A0E0B0E0E822F9222B
:100A30000A231B238E2D8295807F0E94DD088091E2
:100A40002B00806180932B0080912B008F7E809300
:100A50002B0080912B00806180932B001F910F91C0
:100A6000FF90EF900895CF92DF92EF92FF920F9355
:100A70001F93883419F08C3491F519C04093BE014E
:100A80005093BF016093C0017093C1010093C201F4
:100A90001093C3012093C4013093C501C092C601D5
:100AA000D092C701E092C801F092C90118C04093EA
:100AB000CA015093CB016093CC017093CD01009398
:100AC000CE011093CF012093D0013093D101C09279
:100AD000D201D092D301E092D401F092D5011F91BE
:100AE0000F91FF90EF90DF90CF9008956F927F92DB
:100AF0008F929F92AF92BF92CF92DF92EF92FF922E
:100B00000F931F939B01281B390B442737FD4095FA
:100B1000542FCA01B9010E94340F5B016C0120916E
:100B200098013091990140919A0150919B010E9446
:100B3000340E2AE037ED43E25CE30E94990E3B015C
:100B40004C01609390017093910180939201909376
:100B50009301E090C201F090C3010091C401109193
:100B6000C501C801B701A60195010E94C40F2091DB
:100B700094013091950140919601509197010E9406
:100B8000350E9B01AC0160939401709395018093A5
:100B9000960190939701C801B7010E94C40F7B0191
:100BA0008C01C401B3012091C6013091C70140916D
:100BB000C8015091C9010E94C40F9B01AC01C8013A
:100BC000B7010E94350E7B018C01C601B501209151
:100BD000BE013091BF014091C0015091C1010E94FE
:100BE000C40F9B01AC01C801B7010E94350E609390
:100BF000AE017093AF018093B0019093B101A092C8
:100C00009801B0929901C0929A01D0929B010E94E2
:100C1000010FCB011F910F91FF90EF90DF90CF90CC
:100C2000BF90AF909F908F907F906F9008956F923C
:100C30007F928F929F92AF92BF92CF92DF92EF926C
:100C4000FF920F931F939B01281B390B442737FDFD
:100C50004095542FCA01B9010E94340F5B016C0109
:100C60002091A6013091A7014091A8015091A901BE
:100C70000E94340E2AE037ED43E25CE30E94990EB5
:100C80003B014C0160939E0170939F018093A001F2
:100C90009093A101C601B5012AE037ED43E25CE380
:100CA0000E94C40F2091A2013091A3014091A401A0
:100CB0005091A5010E94350E6093A2017093A3018B
:100CC0008093A4019093A5012091CE013091CF0192
:100CD0004091D0015091D1010E94C40F7B018C0141
:100CE000C401B3012091D2013091D3014091D401CC
:100CF0005091D5010E94C40F9B01AC01C801B701FE
:100D00000E94350E7B018C01C601B5012091CA01FC
:100D10003091CB014091CC015091CD010E94C40F84
:100D20009B01AC01C801B7010E94350E6093AA0176
:100D30007093AB018093AC019093AD01A092A6019A
:100D4000B092A701C092A801D092A9010E94010F00
:100D5000CB011F910F91FF90EF90DF90CF90BF904C
:100D6000AF909F908F907F906F90089587E090E074
:100D70000E94E90487E090E00E94D304A0E0B0E084
:100D8000BC01CD010E94320F24E83BE240EA5BE364
:100D90000E94C40F6093CA017093CB018093CC0171
:100DA0009093CD0186E090E00E94E90486E090E017
:100DB0000E94D304A0E0B0E0BC01CD010E94320F3C
:100DC00020E030EC4FE754E40E94990E6093CE018E
:100DD0007093CF018093D0019093D10185E090E092
:100DE0000E94E90485E090E00E94D304A0E0B0E016
:100DF000BC01CD010E94320F20ED32E240E05AE307
:100E00000E94C40F6093D2017093D3018093D401E8
:100E10009093D50182E090E00E94E904089508953E
:100E2000AF92BF92CF92DF92FF920F931F930097E2
:100E300039F00197F1F1AA24AA94BA2C65014EC0A9
:100E4000459880E60E94DD0880E00E94DD08182FAA
:100E500080E00E94DD08082F80E00E94DD08F82E67
:100E600080E00E94DD08312F332720E05901CC2497
:100E7000B7FCC094DC2C302F332720E0442737FD0B
:100E80004095542FA22AB32AC42AD52A90E0A0E084
:100E9000B0E0A82AB92ACA2ADB2A9F2D80E0AA2717
:100EA00097FDA095BA2FA82AB92ACA2ADB2A459A03
:100EB00015C0449880E60E94DD0880E00E94DD08AD
:100EC00080E00E94DD0880E00E94DD0880E00E9452
:100ED000DD08A82EBB24CC24DD24449AB501C6012C
:100EE0001F910F91FF90DF90CF90BF90AF9008952A
:100EF000009719F0019761F406C0459880E20E94BE
:100F0000DD08459A0895449880E20E94DD08449ADD
:100F10000895009719F0019791F409C0459888E861
:100F20000E94DD0883E00E94DD08459A08954498F8
:100F300088E80E94DD0883E00E94DD08449A089555
:100F40000F931F93182F5F9886E00E94DD08812F72
:100F50008295880F880F807C0E94DD08082F10E0A2
:100F60000F701070102F002780E00E94DD085F9A3C
:100F7000282F30E0202B312BC9011F910F910895AC
:100F80006F927F928F929F92AF92BF92CF92DF9299
:100F9000EF92FF920F931F93AA2797FDA095BA2F68
:100FA000BC01CD010E94340F5B016C01E0905B013C
:100FB000F0905C0100915D0110915E01A801970124
:100FC0000E94C00F60905F0170906001809061018D
:100FD00090906201882384F0C601B501A8019701B1
:100FE0000E94340EA40193010E942710AC01CB0192
:100FF000DA017C018D0112C0C801B701A60195017B
:101000000E94340EA40193010E9427109B01AC01A1
:1010100079018A0117FB109517F9109500D000D0BF
:1010200000D080E091E0EDB7FEB792838183E38248
:10103000F482058316830E9423138DB79EB706960C
:101040000FB6F8949EBF0FBE8DBFB701C8011F91A8
:101050000F91FF90EF90DF90CF90BF90AF909F9057
:101060008F907F906F900895EF92FF920F931F9350
:10107000AA2797FDA095BA2FBC01CD010E94340F7D
:1010800020916301309164014091650150916601A6
:101090000E942710162F072FF82EE92E00D000D01F
:1010A00000D08DE091E0EDB7FEB792838183212FD0
:1010B000302F4F2D5E2DC901DA0183839483A583E0
:1010C000B6830E9423138DB79EB706960FB6F89489
:1010D0009EBF0FBE8DBF212F302F4F2D5E2DB9012A
:1010E000CA011F910F91FF90EF9008958091240005
:1010F000806280932400809124008F7B8093240061
:101100008091240080688093240080912400806175
:101110008093240080912A00806180932A0080912E
:10112000270080648093270080912700806280934D
:1011300027008091270080618093270080912700FD
:101140008860809327008091270084608093270027
:101150008091270081608093270080912A00806819
:1011600080932A0080912B00806180932B008091D6
:1011700028008064809328008091280080628093FA
:1011800028008091280080618093280080912800A9
:1011900088608093280080912800846080932800D4
:1011A0008091280081608093280080912B008068C6
:1011B00080932B0083E58CBD08958EBD0DB407FE92
:1011C000FDCF8EB508959B01AC0164E0220F331F63
:1011D000441F551F6A95D1F760E070E489E191E002
:1011E0000E94B011C901DA010197A109B109292FA3
:1011F0003A2F4B2F55270196A11DB11D2093CD00ED
:1012000081508093CC0088E18093C9000895982F85
:101210008091C80085FFFCCF9093CE000895809107
:10122000C80087FFFCCF8091CE000895AA2797FDC4
:10123000A095BA2FBC01CD010E94340F25E33AEFEF
:101240004EE85CE30E94C40F08958B5A9F4FAA2773
:1012500097FDA095BA2FBC01CD010E94340F28EB59
:101260003EE145E85EE30E94990E0E94010FCB012A
:1012700008951F920F920FB60F9211242F933F9350
:101280008F939F938091B4019091B50101969093B3
:10129000B5018093B4012091B4013091B5018091E2
:1012A0006701909168012817390754F081E090E0B8
:1012B0009093B9018093B8011092B5011092B401D6
:1012C0009F918F913F912F910F900FBE0F901F9084
:1012D00018958091230081FD0BC081E090E09093F0
:1012E000B7018093B60180E090E00E9478070895EE
:1012F0001092B7011092B60108958091230080FFEB
:101300001CC08091230081FD04C08CE460E074E087
:1013100017C08091230082FD04C08CE460E078EF68
:101320000FC08091230083FD04C08CE46FEF7FE049
:1013300007C080E090E00E9478078CE460E070E0F5
:101340000E94E70C08956F927F928F929F92AF92C6
:10135000BF92CF92DF92EF92FF920F931F9382E0A2
:1013600090E00E94E90482E090E00E94D3047C01B6
:1013700080E090E00E94E90480E090E00E94D304C5
:101380000E94AB0C5C010027F7FC0095102FC801F0
:10139000B7010E94340F3B014C018DB79EB70C97EB
:1013A0000FB6F8949EBF0FBE8DBF0DB71EB70F5F6F
:1013B0001F4F8FE191E0EDB7FEB79283818380915B
:1013C000BA019091BB01F80193838283C401B301F8
:1013D0002FE135E84BE65EE30E94C40F20E030E0E9
:1013E00046E952E40E94340E0E94060FF80175830C
:1013F0006483C401B3012EE037E64CE950E40E9457
:10140000C40F0E94060FF80177836683CC24B7FCD3
:10141000C094DC2CC601B5010E94340FF80160872E
:101420007187828793870E9423138DB79EB70C968E
:101430000FB6F8949EBF0FBE8DBF1F910F91FF9006
:10144000EF90DF90CF90BF90AF909F908F907F9064
:101450006F9008950F931F9300D000D00DB71EB763
:101460000F5F1F4F2BE231E0EDB7FEB732832183D0
:10147000AA2797FDA095BA2FBC01CD010E94340F79
:1014800028EB3EE145E85EE30E94C40F20E030E037
:101490004AEA52E40E94340E0E94060FF801738358
:1014A00062830E9423130F900F900F900F901F9153
:1014B0000F9108950F931F9300D000D000D00DB767
:1014C0001EB70F5F1F4F2CE331E0EDB7FEB732833D
:1014D0002183F80193838283AA2797FDA095BA2FD1
:1014E000BC01CD010E94340F28EB3EE145E85EE3EC
:1014F0000E94C40F20E030E04AEA52E40E94340E19
:1015000020E030E044EB52E40E94350E0E94060FCA
:10151000F801758364830E9423138DB79EB70696E6
:101520000FB6F8949EBF0FBE8DBF1F910F91089507
:10153000CF92DF92EF92FF920F931F930E94AF0D15
:1015400084B18C7F84B90C9A60E072EC81E090E009
:101550000E94E3080E94760880E090E060E070E07E
:1015600040E050E00E94500D80E090E00E9489072A
:1015700082E090E00E94A6048CE440E050E060E24B
:1015800072E400E010E020E03FE30F2EFAE0CF2EFF
:10159000F7EDDF2EF3EAEF2EFBE3FF2EF02D0E9496
:1015A000330583E090E00E94D3040E945A0AF9CFE9
:1015B0000F931F930E9425098C0183E090E00E9405
:1015C000E90483E090E00E94D304BC01C8010E94BA
:1015D0007605BC0188E40E94E70C1F910F910895E5
:1015E0000F931F930E9425098C0182E090E00E94D6
:1015F000E90482E090E00E94D304BC01C8010E948B
:101600001706BC018CE40E94E70C1F910F9108950E
:101610008091230080FD05C085E590E00E94F00ADE
:10162000089580E090E00E94F00A80E090E00E943F
:1016300078070895CF93DF93AC0197FF02C040E095
:1016400050E0EB0177FF02C0C0E0D0E0CA014B35AB
:10165000510514F08AE590E00E94F00A9E01C53B16
:10166000D10514F024EB30E0C9010E94D80ADF91C3
:10167000CF9108950F931F93CF93DF9382E090E073
:101680000E94E90482E090E00E94D304A0E0B0E070
:10169000BC01CD010E94320F28EB3EE145E85EE33C
:1016A0000E94C40F20E030E04AEA52E40E94340E67
:1016B0000E94010F8B0183E090E00E94E90483E027
:1016C00090E00E94D304A0E0B0E0BC01CD010E94F4
:1016D000320F28EB3EE145E85EE30E94C40F20E0B4
:1016E00030E04AEA52E40E94340E20E030E044EB5D
:1016F00052E40E94340E0E94010FEB018091BC0164
:101700009091BD01009799F480E090E06AE570E067
:101710000E941A0B0B5F1F4F0B30110508F04BC0D6
:1017200025962B9708F047C081E090E012C08130E9
:101730009105A1F48DE290E060E070E00E941A0B48
:10174000085210400B301105B0F52697A4F582E041
:1017500090E09093BD018093BC012DC08230910533
:1017600089F48DE290E06AE570E00E941A0B08525D
:1017700010400B301105F8F425962B97E0F483E028
:1017800090E0E7CF8330910591F480E090E06AE546
:1017900070E00E941A0B0B5F1F4F0B30110558F4BD
:1017A000C555D0402B9738F484E090E0D2CF049711
:1017B00011F40E94370DDF91CF911F910F91089581
:1017C0008091260087FD03C080E090E00FC08091EB
:1017D000260086FD05C08DE290E060E070E008C064
:1017E0008091260085FD07C08DE290E06AE570E0FB
:1017F0000E941A0B08958091260084FD07C084E1A1
:1018000090E00E94F00A8DE290E006C08DE290E048
:101810000E94F00A8AE090E00E94D80A0895809120
:10182000260087FF25C08091260086FD07C08EE137
:1018300090E00E94F00A8EE190E015C080912600B1
:1018400085FD07C08CE390E00E94F00A8CE390E0F5
:101850000AC08091260084FD0BC08AE590E00E94BA
:10186000F00A8AE590E09093BB018093BA01089555
:1018700080E090E00E94F00A1092BB011092BA0141
:1018800008950F931F93CF93DF938C01C0E0D0E0B6
:101890000DC080E090E0BE010E94ED04B8016C1B19
:1018A0007D0B81E090E00E94ED0421960C171D074E
:1018B00084F7E80100E010E00DC080E090E0BE0198
:1018C0000E94ED0481E090E0B8010E94ED042197B0
:1018D0000F5F1F4F1C161D0684F3DF91CF911F91E0
:1018E0000F9108950F931F9382E090E00E94D3041C
:1018F0008C0182E090E00E94C004C8010E942A0A84
:101900001F910F9108950F931F93CF93DF93EC01D5
:101910000CEC11E014C082E090E00E94720C80E1B7
:1019200097E2F8013197F1F70197D9F78091B20169
:101930009091B30101969093B3018093B20180918D
:10194000B2019091B3018C179D072CF3DF91CF91D9
:101950001F910F910895AA2797FDA095BA2FBC015A
:10196000CD010E94340F2091750130917601409194
:101970007701509178010E94C40F20917901309134
:101980007A0140917B0150917C010E94990E209137
:10199000690130916A0140916B0150916C010E9484
:1019A000340E20916D0130916E0140916F01509184
:1019B00070010E94990E2091710130917201409145
:1019C0007301509174010E94990E08950895CF9368
:1019D000DF93482F80EF6130780714F461E070EFF7
:1019E000EB0180E16030780714F0CFEFDFE048349E
:1019F00009F14C34C9F5D7FD0AC080E090E060E001
:101A000070E00E94ED0481E090E0BE010CC066270A
:101A100077276C1B7D0B80E090E00E94ED0481E055
:101A200090E060E070E00E94ED0482E090E060E011
:101A300070E005C0D7FD0AC082E090E0BE010E94C0
:101A4000ED0483E090E060E070E00CC082E090E0A4
:101A500060E070E00E94ED04662777276C1B7D0B29
:101A600083E090E00E94ED04DF91CF91089580E043
:101A700090E060E070E00E94ED0481E090E060E0C2
:101A800070E00E94ED0482E090E060E070E00E946F
:101A9000ED0483E090E060E070E00E94ED040895C2
:101AA0009C01F8948130910569F082309105A9F08C
:101AB0000097D9F416BC83E085BD81E080936E0069
:101AC00085BB13C0109285001092840081E0809342
:101AD000810080936F0086BB08C01092B20081E045
:101AE0008093B1008093700087BB6130710521F550
:101AF0002130310569F022303105B1F0232BE1F4BA
:101B000082E084BD15BC47BD80936E0085BB14C0C8
:101B100088E080938100509389004093880082E0A0
:101B200080936F0086BB08C082E08093B000409332
:101B3000B3008093700087BB78940895813039F0AA
:101B4000813018F0823051F407C067BD089570935A
:101B500089006093880008956093B30008958DE72D
:101B600091E09093D9018093D80160E072EC81E01C
:101B700090E00E94C10D08950E94070980E090E066
:101B800008959B01AC0184E0220F331F441F551FB1
:101B90008A95D1F760E070E489E191E00E94B0118C
:101BA000215030403093C5002093C40088E18093D9
:101BB000C10086E08093C2000895982F8091C000F4
:101BC00085FFFCCF9093C6000895FC0107C080916B
:101BD000C00085FFFCCF9093C60031969081992379
:101BE000B1F708950F931F93DF93CF93CDB7DEB76F
:101BF00064970FB6F894DEBF0FBECDBF2DB73EB7CA
:101C0000285030400FB6F8943EBF0FBE2DBFEDB741
:101C1000FEB731968E010F5F1F4FADB7BEB712965C
:101C20001C930E93119725E431E03383228395832F
:101C30008483778366830E9438132DB73EB7285F6D
:101C40003F4F0FB6F8943EBF0FBE2DBFC8010E9494
:101C5000E50D64960FB6F894DEBF0FBECDBFCF91F1
:101C6000DF911F910F9108955058BB27AA270ED0DE
:101C70004DC13ED130F043D120F031F49F3F11F4FB
:101C80001EF433C10EF4E095E7FB29C1E92F4FD1D3
:101C900080F3BA17620773078407950718F071F489
:101CA0009EF567C10EF4E0950B2EBA2FA02D0B0107
:101CB000B90190010C01CA01A0011124FF27591B91
:101CC00099F0593F50F4503E68F11A16F040A22F97
:101CD000232F342F4427585FF3CF46953795279508
:101CE000A795F0405395C9F77EF41F16BA0B620B07
:101CF000730B840BBAF09150A1F0FF0FBB1F661F4E
:101D0000771F881FC2F70EC0BA0F621F731F841F90
:101D100048F4879577956795B795F7959E3F08F0B6
:101D2000B3CF9395880F08F09927EE0F9795879575
:101D300008950CD0EBC0E3D040F0DAD030F021F4BD
:101D40005F3F19F0CCC0511115C1CFC0F0D098F34E
:101D50009923C9F35523B1F3951B550BBB27AA272C
:101D600062177307840738F09F5F5F4F220F331F9E
:101D7000441FAA1FA9F333D00E2E3AF0E0E830D06A
:101D800091505040E695001CCAF729D0FE2F27D06D
:101D9000660F771F881FBB1F261737074807AB073B
:101DA000B0E809F0BB0B802DBF01FF2793585F4FB0
:101DB0002AF09E3F510568F092C0DCC05F3FECF313
:101DC000983EDCF3869577956795B795F7959F5F75
:101DD000C9F7880F911D9695879597F90895E1E0C9
:101DE000660F771F881FBB1F621773078407BA0728
:101DF00020F0621B730B840BBA0BEE1F88F7E09583
:101E0000089504D06894B111B5C0089598D088F0B1
:101E10009F5790F0B92F9927B751A0F0D1F0660FD6
:101E2000771F881F991F1AF0BA95C9F712C0B130F1
:101E300081F09FD0B1E008959CC0672F782F88274C
:101E4000B85F39F0B93FCCF3869577956795B39530
:101E5000D9F73EF490958095709561957F4F8F4F9F
:101E60009F4F0895E89409C097FB3EF490958095A4
:101E7000709561957F4F8F4F9F4F9923A9F0F92F50
:101E800096E9BB279395F695879577956795B795CE
:101E9000F111F8CFFAF4BB0F11F460FF1BC06F5FB4
:101EA0007F4F8F4F9F4F16C0882311F096E911C0C6
:101EB000772321F09EE8872F762F05C0662371F0E7
:101EC00096E8862F70E060E02AF09A95660F771FFB
:101ED000881FDAF7880F9695879597F9089597F9EF
:101EE0009F6780E870E060E008959FEF80EC0895C0
:101EF00000240A94161617061806090608950024E9
:101F00000A9412161306140605060895092E039462
:101F1000000C11F4882352F0BB0F40F4BF2B11F4D6
:101F200060FF04C06F5F7F4F8F4F9F4F089557FD35
:101F30009058440F551F59F05F3F71F04795880F37
:101F400097FB991F61F09F3F79F0879508951216CE
:101F500013061406551FF2CF4695F1DF08C016167A
:101F600017061806991FF1CF86957105610508942B
:101F70000895E894BB2766277727CB0197F9089542
:101F8000E3D008F48FEF08950BD0C0CFB1DF28F075
:101F9000B6DF18F0952309F0A2CFA7CF1124EACF1E
:101FA000C6DFA0F3959FD1F3950F50E0551F629FB8
:101FB000F001729FBB27F00DB11D639FAA27F00DA2
:101FC000B11DAA1F649F6627B00DA11D661F829FC9
:101FD0002227B00DA11D621F739FB00DA11D621FAE
:101FE000839FA00D611D221F749F3327A00D611DCB
:101FF000231F849F600D211D822F762F6A2F1124AD
:102000009F5750408AF0E1F088234AF0EE0FFF1FFF
:10201000BB1F661F771F881F91505040A9F79E3F36
:10202000510570F05CCFA6CF5F3FECF3983EDCF338
:10203000869577956795B795F795E7959F5FC1F773
:10204000FE2B880F911D9695879597F90895FA01B3
:10205000EE0FFF1F30962105310599F161157105CD
:1020600061F48038BFE39B0749F16894903881059B
:1020700061F08038BFEF9B0741F0992342F5FF3FA5
:10208000E1053105210511F1E8940894E795D9019E
:10209000AA2329F4AB2FBE2FF85FD0F310C0FF5F47
:1020A00070F4A695E0F7F73950F019F0FF3A38F4DC
:1020B0009F779F930CD00F9007FC905808953EF0A7
:1020C00014CF60E070E080E89FE308954FE79F77CA
:1020D0005F934F933F932F93C2D02F913F914F9196
:1020E0005F9152DF05C019F40EF0F9CE42CFFDCE5C
:1020F00026DFC8F39638C0F707F80F92E8942BE371
:102100003AEA48EB5FE74EDF0F920F920F924DB71E
:102110005EB70F92E4D0ECE7F0E03AD04F915F91D8
:10212000EF91FF91E595EE1FFF1F49F0FE57E06824
:102130004427EE0F441FFA95E1F74195550B56D011
:102140000F9007FE4AC00895990F0008550FAA0B7B
:10215000E0E8FEEF16161706E807F907C0F01216BA
:102160001306E407F50798F0621B730B840B950BBD
:1021700039F40A2661F0232B242B252B21F4089512
:102180000A2609F4A140A6958FEF811D811D0895AF
:10219000DF93CF931F930F93FF92EF92DF927B0118
:1021A0008C01689405C0DA2EEF01FADEFE01E89496
:1021B000A5912591359145915591AEF3EF0166DDDD
:1021C000FE019701A801DA9479F7DF90EF90FF9074
:1021D0000F911F91CF91DF9108959B01AC0160E0B9
:1021E00070E080E89FE3A5CD7ACEACC0A8DEE8F32E
:1021F0009923D9F3940F511DBBF39150504094F0A3
:1022000059F0882332F0660F771F881F9150504095
:10221000C1F79E3F510544F7880F911D969587950C
:1022200097F908955F3FACF0983E9CF0BB278695E8
:1022300077956795B79508F4B1609395C1F7BB0F93
:1022400058F711F460FFE8CF6F5F7F4F8F4F9F4FBC
:10225000E3CF90CE0EF076C048CE689440CE6FDECD
:10226000C8F39923D1F3C6F3DF93CF931F930F9352
:10227000FF92C92FDD2788232AF02197660F771F49
:10228000881FDAF720E030E040E85FEB9FE3883911
:1022900020F0803E30F021968F77E7DCE4EAF0E032
:1022A00003C0E3DCE1EDF0E073DF8B01BE01EC0184
:1022B000FB2E6F5771097595771F880B990BD4DD2D
:1022C00028E132E741E35FE36BDEAF2D9801AE0119
:1022D000FF900F911F91CF91DF91D8DC17CEFA01BB
:1022E000DC01AA0FBB1F9B01AC01BF5728F42227BA
:1022F0003327442750781FC0B75188F4AB2F0024F0
:10230000469537952795011CA395D2F3002069F0D7
:10231000220F331F441FB395DAF30DD0A5CC6130E3
:102320007105A0E88A07B94630F49B01AC01662725
:10233000772788279078309621F020833183428355
:10234000538308959F3F31F0915020F487957795FE
:102350006795B795880F911D9695879597F908957C
:10236000A1E21A2EAA1BBB1BFD010DC0AA1FBB1F99
:10237000EE1FFF1FA217B307E407F50720F0A21B0B
:10238000B30BE40BF50B661F771F881F991F1A9478
:1023900069F760957095809590959B01AC01BD01A2
:1023A000CF0108952F923F924F925F926F927F924A
:1023B0008F929F92AF92BF92CF92DF92EF92FF9255
:1023C0000F931F93CF93DF93CDB7DEB7CA1BDB0B01
:1023D0000FB6F894DEBF0FBECDBF09942A883988A6
:1023E00048885F846E847D848C849B84AA84B984AD
:1023F000C884DF80EE80FD800C811B81AA81B981B9
:10240000CE0FD11D0FB6F894DEBF0FBECDBFED01CC
:102410000895283008F027E03327DA01990F311D9D
:1024200087FD916000966105710539F432602E5F79
:102430003D9330E32A95E1F708959F3F30F08038CF
:102440007105610509F03C5F3C5F3D93913008F0F8
:102450008068911DDF93CF931F930F93FF92EF92AC
:10246000192F987F9695E92F96959695E90FFF2756
:10247000E05AFE4F99273327EE24FF24A701E701F6
:1024800005900894079428F4360FE71EF81E491F9C
:10249000511D660F771F881F991F0694A1F705909D
:1024A000079428F4E70EF81E491F561FC11D770F29
:1024B000881F991F661F0694A1F70590079428F4BA
:1024C000F80E491F561FC71FD11D880F991F661F81
:1024D000771F0694A1F70590079420F4490F561F23
:1024E000C71FD81F990F661F771F881F0694A9F76B
:1024F00084911095177041F0D695C79557954795DB
:10250000F794E7941A95C1F7E6E0F1E06894159026
:10251000159135916591959105907FE27395E1183C
:10252000F10A430B560BC90BD009C0F7E10CF11EA1
:10253000431F561FC91FD01D7EF4703311F48A95B6
:10254000E6CFE894015030F0080F0AF40027021794
:1025500008F4202F2395022F7A3328F079E37D9316
:102560002A95E9F710C07D932A9589F606949795E8
:102570006795379517951794E118F10A430B560B99
:10258000C90BD00998F023957E9173957A3308F0A2
:1025900070E37C932013B8F77E9170617D9330F0E7
:1025A000839571E37D9370E32A95E1F71124EF9011
:1025B000FF900F911F91CF91DF91992787FD909503
:1025C0000895FC010590615070400110D8F7809586
:1025D00090958E0F9F1F0895FC01615070400190EF
:1025E0000110D8F7809590958E0F9F1F08950F9337
:1025F0001F93CF93DF938C01EB018B8181FF1BC075
:1026000082FF0DC02E813F818C819D812817390763
:1026100064F4E881F9810193F983E88306C0E885D1
:10262000F985802F0995892B31F48E819F81019640
:102630009F838E8302C00FEF1FEFC801DF91CF9100
:102640001F910F910895A0E0B0E0E9E2F3E10C944E
:10265000E211FE013596619171918091D8019091BE
:10266000D901AF010E941F012096E2E00C94FE11F7
:10267000AEE0B0E0EEE3F3E10C94E0110D891E89C9
:1026800086E08C831A8309838FEF9FE79E838D8377
:102690009E01275E3F4FCE0101966F89788DA9017B
:1026A0000E941F012F813885020F131FF80110822D
:1026B0002E96E4E00C94FC11FA01AA27283051F17F
:1026C000203181F1E8946F936E7F6E5F7F4F8F4F63
:1026D0009F4FAF4FB1E03ED0B4E03CD0670F781FC2
:1026E000891F9A1FA11D680F791F8A1F911DA11DA7
:1026F0006A0F711D811D911DA11D20D009F46894E0
:102700003F912AE0269F11243019305D3193DEF687
:10271000CF010895462F4770405D4193B3E00FD03D
:10272000C9F7F6CF462F4F70405D4A3318F0495D28
:1027300031FD4052419302D0A9F7EACFB4E0A6950B
:102740009795879577956795BA95C9F7009761052D
:10275000710508959B01AC010A2E06945795479583
:1027600037952795BA95C9F7620F731F841F951F78
:08277000A01D0895F894FFCFAD
:1027780047466F7263653A2025660A0D006D696CDD
:102788006C69566F6C74733A202566200A0D002513
:1027980064202564202566200A0D0041726D2041C1
:1027A8006E676C653A202564200A0D002564202593
:1027B80064200A0D00536574736572766F2825646A
:1027C8002C25303364290A0D0001000000A040AE1A
:1027D80047613ED74C4E3F2D009A9929400000A0F2
:1027E80041CDCC4C3D0000A04000C07F440000001B
:0C27F8000200000000BC0D00000000000A
:00000001FF
