:100000000C943A010C9457010C9457010C9457012D
:100010000C9457010C9457010C9457010C94570100
:100020000C9457010C9457010C9457010C945701F0
:100030000C9457010C9457010C9457010C945701E0
:100040000C9457010C9457010C94530D0C945701C8
:100050000C9457010C9457010C9457010C945701C0
:100060000C9457010C9457010C9457010C945701B0
:100070000C9457010C9457010C945701084AD73B34
:100080003BCE016E84BCBFFDC12F3D6C74319ABD67
:1000900056833DDA3D00C77F11BED9E4BB4C3E918B
:1000A0006BAAAABE000000803F072C7AA5BA6CC5D7
:1000B00090DA3B9365FC8BBC53F810FD3C56928361
:1000C0004DBD879D3AB63DCBC9BF5BBE73DA0FC944
:1000D0003F05A84CCDB2D44EB93836A9020C50B960
:1000E000918688083CA6AAAA2ABE000000803F0785
:1000F000634236B79BD8A71A39685618AEBAAB55C3
:100100008C1D3CB7CC5763BD6DEDFD753EF6177287
:1001100031BF000000803F08000000BE9224491259
:100120003EABAAAA2ABECDCCCC4C3E00000080BE7D
:10013000ABAAAAAA3E00000000BF000000803F005A
:1001400000000000084178D3BB4387D1133D190E4E
:100150003CC3BD4282AD2B3E68EC8276BED98FE1B6
:10016000A93E4C80EFFFBE01C4FF7F3F00000000AE
:10017000006E616E00696E660000407A10F35A00EE
:10018000A0724E18090010A5D4E80000E8764817C0
:100190000000E40B54020000CA9A3B000000E1F5A5
:1001A00005000080969800000040420F000000A06B
:1001B0008601000000102700000000E80300000096
:1001C000006400000000000A0000000000010000C0
:1001D0000000002C76D888DC674F0823DFC1DFAE33
:1001E00059E1B1B796E5E3E453C63AE651997696FC
:1001F000E8E6C28426EB898C9B62ED407C6FFCEFC5
:10020000BC9C9F40F2BAA56FA5F490055A2AF75CF2
:10021000936B6CF9676DC11BFCE0E40D47FEF520A4
:10022000E6B500D0ED902E0300943577050080846C
:100230001E080000204E0A000000C80C3333333380
:100240000F986E12831141EF8D2114893BE65516EC
:10025000CFFEE6DB18D1844B381BF77C1D901DA424
:10026000BBE424203284725E228100C9F124ECA117
:10027000E53D270011241FBECFEFD0E1DEBFCDBF8B
:1002800011E0A0E0B1E0EEE0F8E302C005900D92CD
:10029000AE3AB107D9F712E0AEEAB1E001C01D9263
:1002A000A231B107E1F70E94540F0C94051C0C9485
:1002B0000000A1E1B0E0EFE5F1E00C941D1A3C0173
:1002C0007F876E876A01FC0117821682838181FD18
:1002D00003C06FEF7FEF6FC39E012F5F3F4F398BDE
:1002E000288BF3012381EE85FF8523FD859123FF74
:1002F0008191FF87EE87882309F45AC3853251F430
:10030000EE85FF8523FD859123FF8191FF87EE8791
:10031000853229F490E0B3010E94421BE2CF982F6E
:1003200010E0882499241032B0F49B3269F09C329A
:1003300028F4903251F0933271F40BC09D3239F0B1
:10034000903349F4116028C01260146025C0186011
:1003500023C0106121C017FD2AC0892F80538A3025
:1003600078F416FF06C0FAE09F9E902C1124980E98
:1003700013C03AE0839E802C1124880E10620CC0BA
:100380009E3221F416FD14C3106406C09C3611F48D
:10039000106802C0983659F4EE85FF8523FD9591CB
:1003A00023FF9191FF87EE87992309F0BCCF892F16
:1003B0008554833020F4812F8061905E07C0892F9F
:1003C0008556833008F09FC1812F8F7E86FD02C045
:1003D00076E0972E6FE3F62EF822953619F4F0E4C6
:1003E000FF2A07C0963619F420E8F22A02C09110BD
:1003F0009A94F7FE0AC03BE3391518F45CE3B52E76
:1004000002C0B92CB39427E009C047E0491520F495
:10041000BB2447E0942EF7CF292DBB24C6010496B8
:100420009D878C87F6016081718182819381AE0105
:100430004F5F5F4F0B2D0E94541A6C010981202ED3
:10044000332400FF04C003FD02C01DE209C0F1FE19
:1004500002C01BE205C0F2FC02C010E001C010E2C5
:10046000C1018C709070892BB9F1112311F483E0D4
:1004700001C084E0881510F088240AC0881AF3FCB3
:1004800007C080E290E0B3010E94421B8A94C9F742
:10049000112329F0812F90E0B3010E94421B23FE1B
:1004A00003C001E711E00EC005E711E00BC0E11445
:1004B000F10409F0805290E0B3010E94421B0F5FEB
:1004C0001F4F05C0EF2CFF24F0E1EF22FF24F801BD
:1004D0008491882361F714C1F7FE12C0BC0C24FE7E
:1004E00004C08A81813309F4BA941B141CF0BB2424
:1004F000B3942DC0F8E0FB1550F538E0B32E27C0BB
:10050000F6FC25C0892D90E08C159D054CF02CEF54
:10051000C2162FEFD20624F030E8F32A01C09A94D5
:10052000992049F0E2E0F0E0EC0FFD1FE90DF11D2C
:1005300080818033A1F3F7FE0AC0B92CB394892DD2
:1005400090E0C816D90614F0992401C09C18F7FC55
:1005500003C025E030E009C01C141D041CF021E09C
:1005600030E003C096012F5F3F4F112311F02F5F42
:100570003F4F992029F0892D90E00196280F391FCF
:10058000882D90E02817390714F0882401C0821ABA
:100590004F2C5524C20189709070892B39F008C006
:1005A00080E290E0B3010E94421B8A948820C1F748
:1005B000112329F0812F90E0B3010E94421B43FEDA
:1005C00007C008C080E390E0B3010E94421B8A94F8
:1005D0008820C1F7F7FE46C08601D7FE02C000E0C2
:1005E00010E076010894E11CF11CE01AF10A41E0E8
:1005F00050E04C0F5D1FE40EF51E26014B1851080C
:10060000892D90E0AA24BB24A81AB90A5FEF0F3FF6
:10061000150729F48EE290E0B3010E94421BC01638
:10062000D10634F0401651061CF4F701808101C058
:1006300080E3015010400894E11CF11C0A151B05D1
:100640002CF090E0B3010E94421BE0CF0C151D0579
:1006500039F49A81963318F4953311F424FE81E32A
:1006600090E04BC08A81813309F00F7E90E0B301A6
:100670000E94421B9920A1F08EE290E0B3010E94FB
:10068000421B12E0E1E0F0E0EC0FFD1FE10FF11D75
:100690001F5F808190E0B3010E94421B9A9491F702
:1006A00044FC03C085E690E002C085E490E0B3011D
:1006B0000E94421BD7FC05C0C114D10441F404FFC1
:1006C00006C0D094C194D108D3948DE201C08BE2CE
:1006D00090E0B3010E94421B80E305C08F5F26EFCC
:1006E0003FEFC20ED31E3AE0C316D104BCF790E030
:1006F000B3010E94421BC601C096B3010E94421B77
:10070000CC84DD8452C1933631F0933799F0933520
:1007100009F059C023C0F601808189835E010894E5
:10072000A11CB11C22E030E0C20ED31E21E0E22E5B
:10073000F12C12C0F601A080B18016FD03C06FEF4E
:100740007FEF02C0692D70E022E030E0C20ED31EC0
:10075000C5010E94371B7C011F7713C0F601A080E2
:10076000B18016FD03C06FEF7FEF02C0692D70E00E
:1007700022E030E0C20ED31EC5010E942C1B7C017A
:10078000106813FF07C01BC080E290E0B3010E9415
:10079000421B8A94882D90E0E816F906A8F30FC052
:1007A000F50117FD859117FF81915F0190E0B3017D
:1007B0000E94421B81108A940894E108F108E11418
:1007C000F10471F7F2C0943611F0993689F517FFEC
:1007D00008C0F601208131814281538184E090E09C
:1007E0000AC0F601808191819C01442737FD409524
:1007F000542F82E090E0C80ED91E9FE6F92EF12218
:1008000057FF09C050954095309521953F4F4F4F68
:100810005F4F90E8F92ACA01B901AE014F5F5F4FFF
:100820002AE030E00E94A71BE82EE889EE1A41C0BA
:10083000953721F41F7E2AE030E01CC0197F9F36D7
:1008400061F0903720F4983509F0B2C00FC09037AE
:1008500039F0983709F0ACC004C028E030E00AC095
:10086000106114FD146020E130E004C014FD166036
:1008700020E132E017FF08C0F601608171818281BA
:10088000938144E050E008C0F60180819181BC0171
:1008900080E090E042E050E0C40ED51EAE014F5F14
:1008A0005F4F0E94A71BE82E5889E51A8FE7F82EA4
:1008B000F122F6FE0BC08EEFF822E91438F4F4FEB4
:1008C00007C0F2FC05C09FEEF92202C01E2D01C038
:1008D000192DF4FE0DC0FE01EE0DF11D8081803357
:1008E00019F4E9EEFE2208C01F5FF2FE05C003C046
:1008F0008F2D867809F01F5F0F2DF3FC14C0F0FEDA
:100900000FC0181510F09E2C0BC09E2C980C911A3D
:10091000182D06C080E290E0B3010E94421B1F5FC9
:100920001815C0F304C0181510F4811A01C08824EA
:1009300004FF0FC080E390E0B3010E94421B02FF5E
:100940001DC001FD03C088E790E00EC088E590E07F
:100950000BC0802F867891F001FF02C08BE201C0AE
:1009600080E2F7FC8DE290E0B3010E94421B06C0DA
:1009700080E390E0B3010E94421B9A94E914C0F313
:10098000EA94E1E0F0E0EC0FFD1FEE0DF11D808137
:1009900090E0B3010E94421BEE2091F706C080E276
:1009A00090E0B3010E94421B8A948820C1F799CC41
:1009B000F30166817781CB016196E2E10C94391AEB
:1009C00091B121E030E002C0220F331F8A95E2F797
:1009D000822F8095892381B9EEE7F0E08081282B72
:1009E000208390E490937C0087E880937A00909332
:1009F0007B00089591B121E030E002C0220F331F47
:100A00008A95E2F72095292321B910927900E8E729
:100A1000F0E0108211821082089590917C00982B52
:100A200090937C001092640080917A00806480939F
:100A30007A0080917A0086FDFCCF20917800309179
:100A40007900C9010895806480937C000895EF9235
:100A5000FF920F931F93482FCB0120E16030720764
:100A600014F08FEF9FE07C010027F7FC0095102F1A
:100A700080912B008F7E80932B00842F80630E94B7
:100A80003609D801C70124E0B695A79597958795B3
:100A90002A95D1F70E9436098FE090E0A0E0B0E0FF
:100AA000E822F9220A231B238E2D8295807F0E9443
:100AB000360980912B00806180932B0080912B0060
:100AC0008F7E80932B0080912B00806180932B0080
:100AD0001F910F91FF90EF900895CF92DF92EF92C8
:100AE000FF920F931F93883419F08C3491F519C03D
:100AF0004093F0015093F1016093F2017093F30180
:100B00000093F4011093F5012093F6013093F7015F
:100B1000C092F801D092F901E092FA01F092FB0143
:100B200018C04093FC015093FD016093FE01709347
:100B3000FF01009300021093010220930202309300
:100B40000302C0920402D0920502E0920602F092E3
:100B500007021F910F91FF90EF90DF90CF900895C3
:100B60006F927F928F929F92AF92BF92CF92DF92BD
:100B7000EF92FF920F931F939B01281B390B442781
:100B800037FD4095542FCA01B9010E948D165B01B3
:100B90006C012091BA013091BB014091BC01509190
:100BA000BD010E9424152AE037ED43E25CE30E9478
:100BB000F2153B014C016093B2017093B301809335
:100BC000B4019093B501E090F401F090F50100912B
:100BD000F6011091F701C801B701A60195010E9425
:100BE000C1172091B6013091B7014091B8015091E1
:100BF000B9010E9425159B01AC016093B601709369
:100C0000B7018093B8019093B901C801B7010E9460
:100C1000C1177B018C01C401B3012091F80130910F
:100C2000F9014091FA015091FB010E94C1179B010B
:100C3000AC01C801B7010E9425157B018C01C601DA
:100C4000B5012091F0013091F1014091F2015091F4
:100C5000F3010E94C1179B01AC01C801B7010E94BA
:100C600025156093D0017093D1018093D2019093A8
:100C7000D301A092BA01B092BB01C092BC01D09244
:100C8000BD010E945A16CB011F910F91FF90EF906A
:100C9000DF90CF90BF90AF909F908F907F906F909C
:100CA00008956F927F928F929F92AF92BF92CF9250
:100CB000DF92EF92FF920F931F939B01281B390B3A
:100CC000442737FD4095542FCA01B9010E948D1663
:100CD0005B016C012091C8013091C9014091CA01AA
:100CE0005091CB010E9424152AE037ED43E25CE3EA
:100CF0000E94F2153B014C016093C0017093C10149
:100D00008093C2019093C301C601B5012AE037ED7B
:100D100043E25CE30E94C1172091C4013091C501F8
:100D20004091C6015091C7010E9425156093C401EE
:100D30007093C5018093C6019093C7012091000272
:100D40003091010240910202509103020E94C117AA
:100D50007B018C01C401B301209104023091050292
:100D600040910602509107020E94C1179B01AC01FD
:100D7000C801B7010E9425157B018C01C601B50190
:100D80002091FC013091FD014091FE015091FF0145
:100D90000E94C1179B01AC01C801B7010E94251533
:100DA0006093CC017093CD018093CE019093CF01DD
:100DB000A092C801B092C901C092CA01D092CB01E1
:100DC0000E945A16CB011F910F91FF90EF90DF9078
:100DD000CF90BF90AF909F908F907F906F9008952D
:100DE00087E090E00E94230587E090E00E940D05D7
:100DF000A0E0B0E0BC01CD010E948B1624E83BE2EC
:100E000040EA5BE30E94C1176093FC017093FD010F
:100E10008093FE019093FF0186E090E00E942305FD
:100E200086E090E00E940D05A0E0B0E0BC01CD019D
:100E30000E948B1620E030EC4FE754E40E94F2153C
:100E40006093000270930102809302029093030268
:100E500085E090E00E94230585E090E00E940D056A
:100E6000A0E0B0E0BC01CD010E948B1620ED32E283
:100E700040E05AE30E94C117609304027093050298
:100E8000809306029093070282E090E00E9423057F
:100E90000895AF92BF92CF92DF92FF920F931F936C
:100EA000009739F00197F1F1AA24AA94BA2C6501B0
:100EB0004EC0459880E60E94360980E00E943609BF
:100EC000182F80E00E943609082F80E00E94360922
:100ED000F82E80E00E943609312F332720E0590197
:100EE000CC24B7FCC094DC2C302F332720E04427DF
:100EF00037FD4095542FA22AB32AC42AD52A90E060
:100F0000A0E0B0E0A82AB92ACA2ADB2A9F2D80E0F7
:100F1000AA2797FDA095BA2FA82AB92ACA2ADB2AA0
:100F2000459A15C0449880E60E94360980E00E94E8
:100F3000360980E00E94360980E00E94360980E090
:100F40000E943609A82EBB24CC24DD24449AB50186
:100F5000C6011F910F91FF90DF90CF90BF90AF908F
:100F60000895009719F0019761F406C0459880E252
:100F70000E943609459A0895449880E20E943609F5
:100F8000449A0895009719F0019791F409C0459883
:100F900088E80E94360983E00E943609459A089540
:100FA000449888E80E94360983E00E943609449AF2
:100FB00008950F931F93182F5F9886E00E943609BB
:100FC000812F8295880F880F807C0E943609082F18
:100FD00010E00F701070102F002780E00E9436097B
:100FE0005F9A282F30E0202B312BC9011F910F91E0
:100FF00008950E940D05AA2797FDA095BA2FBC0160
:10100000CD010E948D1623E333E442E654E40E94AE
:1010100024152DED34E24DE352EC0E94F21520E050
:1010200030E040E050E40E9425150E945A16CB01A2
:1010300008956F927F928F929F92AF92BF92CF92BC
:10104000DF92EF92FF920F931F93AA2797FDA0952F
:10105000BA2FBC01CD010E948D165B016C01E0909E
:101060007C01F0907D0100917E0110917F01A8012B
:1010700097010E94B6176090800170908101809066
:10108000820190908301882384F0C601B501A801F4
:1010900097010E942415A40193010E942418AC0119
:1010A000CB01DA017C018D0112C0C801B701A60194
:1010B00095010E942415A40193010E9424189B010C
:1010C000AC0179018A0117FB109517F9109500D032
:1010D00000D000D080E091E0EDB7FEB7928381832D
:1010E000E382F482058316830E946E1B8DB79EB740
:1010F00006960FB6F8949EBF0FBE8DBFB701C8010C
:101100001F910F91FF90EF90DF90CF90BF90AF9025
:101110009F908F907F906F900895EF92FF920F9322
:101120001F93AA2797FDA095BA2FBC01CD010E945D
:101130008D16209184013091850140918601509156
:1011400087010E942418162F072FF82EE92E00D0B1
:1011500000D000D08DE091E0EDB7FEB7928381839F
:10116000212F302F4F2D5E2DC901DA018383948307
:10117000A583B6830E946E1B8DB79EB706960FB6E9
:10118000F8949EBF0FBE8DBF212F302F4F2D5E2DA7
:10119000B901CA011F910F91FF90EF9008958091BE
:1011A0002400806280932400809124008F7B8093B0
:1011B0002400809124008068809324008091240082
:1011C00080618093240080912A00806180932A00AE
:1011D000809127008064809327008091270080629F
:1011E0008093270080912700806180932700809161
:1011F0002700886080932700809127008460809377
:1012000027008091270081608093270080912A0029
:10121000806880932A0080912B00806180932B004E
:10122000809128008064809328008091280080624B
:10123000809328008091280080618093280080910D
:101240002800886080932800809128008460809323
:1012500028008091280081608093280080912B00D5
:10126000806880932B0083E58CBD08958EBD0DB4FE
:1012700007FEFDCF8EB508959B01AC0164E0220FFF
:10128000331F441F551F6A95D1F760E070E489E170
:1012900091E00E94FB19C901DA010197A109B10986
:1012A000292F3A2F4B2F55270196A11DB11D2093B1
:1012B000CD0081508093CC0088E18093C9000895CF
:1012C000982F8091C80085FFFCCF9093CE000895A1
:1012D0008091C80087FFFCCF8091CE000895AA2797
:1012E00097FDA095BA2FBC01CD010E948D1625E374
:1012F0003AEF4EE85CE30E94C11708952F923F92A7
:101300004F925F926F927F928F929F92AF92BF9215
:10131000CF92DF92EF92FF920F931F93DF93CF93C1
:10132000CDB7DEB768970FB6F894DEBF0FBECDBF5E
:101330005C017B01889FB001899F700D989F700DA3
:101340001124882777FD8095982F0E948D161B0108
:101350002C01EE9CB001EF9C700DFE9C700D1124D1
:10136000882777FD8095982F0E948D166D8B7E8B38
:101370008F8B988FC201B1012D893E894F89588D7D
:101380000E9425153B014C0120E030E041E653E48A
:101390000E94241520E030E040E853E40E94241528
:1013A00020E030E040EF53E40E94F2150E94161551
:1013B0009B01AC01505829833A834B835C830027FF
:1013C000F7FC0095102FC801B7010E948D166D879C
:1013D0007E878F87988BCC24B7FCC094DC2CC60109
:1013E000B5010E948D16698B7A8B8B8B9C8B6D85DA
:1013F0007E858F85988929893A894B895C890E94E5
:1014000098156D837E838F839887C401B3010E94F2
:101410009A185B016C01C201B10120E030E041E6A5
:1014200053E40E9425152D893E894F89588D0E94CD
:10143000251520E030E040E853E40E9424157B01AC
:101440008C01C601B50120E030E040EF51E40E947C
:10145000C1179B01AC01C801B7010E94F2150E949F
:10146000161569877A878B879C876D817E818F812E
:10147000988529853A854B855C850E9425151B0139
:101480002C010E94EF155B016C01C201B1012981A1
:101490003A814B815C810E9425153B014C01C401BE
:1014A0000E94EF157B018C01C601B50120E030E000
:1014B00040E751E40E94C1175B016C01C801B7010C
:1014C00020E030E040E851E40E94C1179B01AC01EC
:1014D000C601B5010E9425150E94701829893A8914
:1014E0004B895C890E94EB15882359F5B301C4012F
:1014F0000E9490185B016C01C201B1010E9490181A
:1015000020E030E040E751E40E94C1177B018C01EC
:10151000C601B50120E030E040E851E40E94C11767
:101520009B01AC01C801B7010E9425150E947018EB
:101530002D853E854F8558890E94EB15882309F437
:1015400074C06D817E818F81988529853A854B8510
:101550005C850E9424151B012C0129813A814B8155
:101560005C810E9425153B014C01C4010E94EF15CE
:101570005B016C01C201B1010E94EF1520E030E077
:1015800040E751E40E94C1177B018C01C601B501FF
:1015900020E030E040E851E40E94C1179B01AC011B
:1015A000C801B7010E9425150E94701829893A893F
:1015B0004B895C890E94EB15882351F5B301C40166
:1015C0000E9490185B016C01C201B1010E94901849
:1015D00020E030E040E751E40E94C1177B018C011C
:1015E000C601B50120E030E040E851E40E94C11797
:1015F0009B01AC01C801B7010E9425150E9470181B
:101600002D853E854F8558890E94EB15882369F00A
:1016100000D08FE191E0ADB7BEB712969C938E9348
:1016200011970E946E1B0F900F9069817A818B81B8
:101630009C8120EE3EE245E652E40E94C1177B0108
:101640008C0120E030E040E050E00E94B617C80175
:10165000B70120E030E044EB52E40E9425150E94DF
:101660005A167B018C0100D000D0EDB7FEB7319641
:1016700084E391E0ADB7BEB712969C938E93119719
:10168000E282F3820E946E1B0F900F900F900F90DA
:10169000C70168960FB6F894DEBF0FBECDBFCF91DD
:1016A000DF911F910F91FF90EF90DF90CF90BF904F
:1016B000AF909F908F907F906F905F904F903F90F2
:1016C0002F9008952F923F924F925F926F927F9248
:1016D0008F929F92AF92BF92CF92DF92EF92FF9242
:1016E0000F931F93DF93CF93CDB7DEB768970FB6F5
:1016F000F894DEBF0FBECDBF5C017B01889FB001B7
:10170000899F700D989F700D1124882777FD809513
:10171000982F0E948D161B012C01EE9CB001EF9CAE
:10172000700DFE9C700D1124882777FD8095982FF1
:101730000E948D166D8B7E8B8F8B988FC201B101AD
:101740002D893E894F89588D0E9425153B014C01FA
:1017500020E030E041E653E40E94241520E030E030
:1017600040E853E40E94241520E030E040EF53E4C9
:101770000E94F2150E9416159B01AC015058298356
:101780003A834B835C830027F7FC0095102FC80138
:10179000B7010E948D166D877E878F87988BCC242A
:1017A000B7FCC094DC2CC601B5010E948D16698B74
:1017B0007A8B8B8B9C8B6D857E858F85988929890B
:1017C0003A894B895C890E9498156D837E838F834B
:1017D0009887C401B3010E949A185B016C01C20191
:1017E000B10120E030E041E653E40E9425152D8947
:1017F0003E894F89588D0E94251520E030E040E851
:1018000053E40E9424157B018C01C601B50120E040
:1018100030E040EF51E40E94C1179B01AC01C801C8
:10182000B7010E94F2150E94161569877A878B8787
:101830009C876D817E818F81988529853A854B852E
:101840005C850E9425151B012C010E94EF155B0190
:101850006C01C201B10129813A814B815C810E94F6
:1018600025153B014C01C4010E94EF157B018C0141
:10187000C601B50120E030E040E751E40E94C11705
:101880005B016C01C801B70120E030E040E851E4A1
:101890000E94C1179B01AC01C601B5010E9425152C
:1018A0000E94701829893A894B895C890E94EB153E
:1018B000882359F5B301C4010E9490185B016C01A3
:1018C000C201B1010E94901820E030E040E751E4ED
:1018D0000E94C1177B018C01C601B50120E030E0F8
:1018E00040E851E40E94C1179B01AC01C801B70157
:1018F0000E9425150E9470182D853E854F855889B8
:101900000E94EB15882309F467C06D817E818F8169
:10191000988529853A854B855C850E9424151B0195
:101920002C0129813A814B815C810E9425153B0164
:101930004C01C4010E94EF155B016C01C201B101B1
:101940000E94EF1520E030E040E751E40E94C1170B
:101950007B018C01C601B50120E030E040E851E494
:101960000E94C1179B01AC01C801B7010E94251557
:101970000E94701829893A894B895C890E94EB156D
:101980008823C9F5B301C4010E9490185B016C0162
:10199000C201B1010E94901820E030E040E751E41C
:1019A0000E94C1177B018C01C601B50120E030E027
:1019B00040E851E40E94C1179B01AC01C801B70186
:1019C0000E9425150E9470182D853E854F855889E7
:1019D0000E94EB15882379F4C201B10120E030E0C8
:1019E00044E353E40E94C1172BED3FE049E450E487
:1019F0000E94F21511C000D08FE191E0ADB7BEB7E3
:101A000012969C938E9311970E946E1B60E070E07B
:101A100080E090E00F900F900E945A167B018C019D
:101A200000D000D0EDB7FEB7319684E391E0ADB7BA
:101A3000BEB712969C938E931197E282F3820E9416
:101A40006E1B0F900F900F900F90C70168960FB606
:101A5000F894DEBF0FBECDBFCF91DF911F910F91E4
:101A6000FF90EF90DF90CF90BF90AF909F908F90BE
:101A70007F906F905F904F903F902F9008958B5A7A
:101A80009F4FAA2797FDA095BA2FBC01CD010E94B8
:101A90008D1628EB3EE145E85EE30E94F2150E94B8
:101AA0005A16CB0108951F920F920FB60F92112470
:101AB0002F933F934F935F936F937F938F939F9356
:101AC000AF93BF93CF93DF93EF93FF938091D601B2
:101AD0009091D70101969093D7018093D601C09140
:101AE0000A02D0910B02C230D105D9F1C330D10521
:101AF0003CF4209769F0C130D10509F063C017C0EC
:101B0000C330D10509F43BC0249709F05BC056C02F
:101B10008091D6019091D701805C9B440CF452C017
:101B200081E090E09093E3018093E20140C06091F6
:101B3000D6017091D701882777FD8095982F0E9454
:101B40008D1620E030E240E055E40E94B61788236D
:101B5000CCF1D093ED01C093EC0181E60E946009C5
:101B600026C08091D6019091D701805D974054F1B5
:101B700081E090E09093E5018093E40118C06091CA
:101B8000D6017091D701882777FD8095982F0E9404
:101B90008D1620E03CE541EC56E40E94B617882300
:101BA0008CF081E090E09093E7018093E60184E07F
:101BB00090E090930B0280930A0204C01092D70128
:101BC0001092D601FF91EF91DF91CF91BF91AF912C
:101BD0009F918F917F916F915F914F913F912F9145
:101BE0000F900FBE0F901F90189580E090E060E07E
:101BF00070E00E94C214089580E090E064EB70E011
:101C00000E94C2140895EF92FF920F931F93CF93F7
:101C1000DF93EC017B0182E090E00E94230582E0EB
:101C200090E00E940D05A0E0B0E0BC01CD010E9453
:101C30008B1628EB3EE145E85EE30E94C11720E0E9
:101C400030E04AEA52E40E9424150E945A168B01A1
:101C500083E090E00E94230583E090E00E940D0560
:101C6000BC01CE010596801791076CF125970C17E2
:101C70001D074CF180E090E00E948B1628EB3EE1BE
:101C800045E85EE30E94C11720E030E04AEA52E4F2
:101C90000E94241520E030E044EB52E40E94241519
:101CA0000E945A16C70105968617970764F020E030
:101CB00030E08BEF9FEFE80EF91E6E157F052CF0DC
:101CC00021E030E002C020E030E0C901DF91CF9197
:101CD0001F910F91FF90EF900895EF92FF920F9355
:101CE0001F93CF93DF93EC017B0182E090E00E9491
:101CF000230582E090E00E940D05A0E0B0E0BC0169
:101D0000CD010E948B1628EB3EE145E85EE30E9480
:101D1000C11720E030E04AEA52E40E9424150E94F4
:101D20005A168B0183E090E00E94230583E090E047
:101D30000E940D05BC01CE010596801791076CF13C
:101D400025970C171D074CF180E090E00E948B1640
:101D500028EB3EE145E85EE30E94C11720E030E059
:101D60004AEA52E40E94241520E030E044EB52E4B9
:101D70000E9424150E945A16C701059686179707D8
:101D800064F020E030E08BEF9FEFE80EF91E6E1557
:101D90007F052CF021E030E002C020E030E0C901F6
:101DA000DF91CF911F910F91FF90EF90089581E007
:101DB00090E00E94230581E090E00E940D050E94C2
:101DC0007511AA2797FDA095BA2FBC01CD010E94DD
:101DD0008D1608950F931F930E943F0D8C0183E091
:101DE00090E00E94230583E090E00E940D05BC0175
:101DF000C8010E94B005BC0188E40E94DC111F915B
:101E00000F9108950F931F930E943F0D8C0182E064
:101E100090E00E94230582E090E00E940D05BC0145
:101E2000C8010E945106BC018CE40E94DC111F9184
:101E30000F9108950F931F93CF93DF9397FF02C0E5
:101E400080E090E08C018B35910514F00AE510E0FC
:101E50009B0177FF02C020E030E0E901253B31051E
:101E600014F0C4EBD0E0C8010E94020FCE010E9422
:101E7000EA0EC801BE010E946D0E892B11F00E946E
:101E80002412DF91CF911F910F9108958AE590E080
:101E90006AE570E00E941A0F08958AE590E060E01C
:101EA00070E00E941A0F08952F923F924F925F9216
:101EB0006F927F928F929F92AF92BF92CF92DF925A
:101EC000EF92FF920F931F93CF93DF930E9404151D
:101ED000209860E072EC81E090E00E943C090E9452
:101EE000CF0882E090E00E94E00483E090E00E944E
:101EF000E00484E090E00E94E00481E090E00E9431
:101F0000E00480E090E060E070E040E050E00E949B
:101F1000321484E090E090930B0280930A028CE4E8
:101F200040E050E060E272E400E010E020E03FE3D7
:101F30000F2EFAE0CF2EF7EDDF2EF3EAEF2EFBE3C4
:101F4000FF2EF02D0E946D0588E440E050E060E235
:101F500072E400E010E020E030E0680179010E94C6
:101F60006D05109209021092080285E090E06AE582
:101F700070E00E94C21480E090E060E070E00E9497
:101F8000C2140F2EF0E0AF2EF0E2BF2EF0E0CF2E05
:101F9000F5E4DF2EF02D43E0E42EF12C37E0632E44
:101FA000712C25E0222E312C92E0892E912C83E495
:101FB000482E81E0582EC1E0D0E08091D60190916A
:101FC000D7012DB73EB7285030400FB6F8943EBF2A
:101FD0000FBE2DBFEDB7FEB731962AE331E0ADB7A6
:101FE000BEB712963C932E93119793838283A4825B
:101FF000B582C682D7820E946E1B8DB79EB70896A7
:102000000FB6F8949EBF0FBE8DBF809108029091CD
:1020100009028330910509F4C3C08430910554F45A
:102020008130910561F1823091050CF050C0892B0F
:1020300089F0C3CF8530910509F4DCC08530910566
:102040000CF4C2C08630910509F4DFC0079709F08F
:10205000B4CFE8C080E090E06FE170E00E943D12F4
:102060008091230080FDA9CF85E090E062E770E0D9
:102070000E94C214D0930902C09308029ECF0E940E
:10208000241280E090E060E070E00E94C21484E0DE
:1020900090E00E94230584E090E00E94F9070797F2
:1020A0000CF48BCF84E090E00E94F9070E970CF0BF
:1020B00084CF84E090E00E94F90744969093E10178
:1020C0008093E001909209028092080276CF1092EC
:1020D0000B0210920A028091E2019091E301892B98
:1020E00021F18091E0019091E101803291055CF055
:1020F00080E090E06AE570E00E941A0FD093EF0153
:10210000C093EE0112C08F31910539F480E190E067
:102110006DE370E00E941A0F04C062E070E00E945C
:102120003D12D0930B02C0930A028091EC01909172
:10213000ED01892B79F000D0ADB7BEB712965C9255
:102140004E9211970E946E1BF0920902E0920802D3
:102150000F900F908091E0019091E10162E070E0BA
:102160000E94620B8C018091E0019091E10162E09C
:1021700070E00E947E09BC01C8010E94030E892BF9
:1021800009F41BCF8091EE019091EF01892B09F4A6
:1021900014CF0E942412F0920902E09208020DCF9F
:1021A00090920B0280920A0280E090E064EB70E073
:1021B0000E94C2148091E4019091E501892B09F4F9
:1021C000FCCE0E944D0FF9CE0E94D70E20E030E8E1
:1021D0004BEB54E40E94B61718162CF43092090207
:1021E00020920802EACEE6E0F0E0F0930902E093E4
:1021F0000802E3CEF0920B02E0920A028091E6011F
:102200009091E701892B09F4D8CE0E94241280E036
:1022100090E060E070E00E94C21470920902609247
:102220000802CBCE0E94460FC8CEEF92FF920F93CA
:102230001F93CF93DF9382E090E00E94230582E01A
:1022400090E00E940D057C0183E090E00E94230550
:1022500083E090E00E940D05EC018AE590E060E0EB
:1022600070E00E941A0F00E010E0C801B7010E9460
:102270008B1628EB3EE145E85EE30E94C11720E0A3
:1022800030E04AEA52E40E9424150E945A1665552D
:1022900070406B30710510F5BE0180E090E00E9447
:1022A0008B1628EB3EE145E85EE30E94C11720E073
:1022B00030E04AEA52E40E94241520E030E044EB8A
:1022C00052E40E9424150E945A166B5F7F4F6B30B8
:1022D000710520F410928B0110928A01DF91CF9149
:1022E0001F910F91FF90EF900895EF92FF920F933F
:1022F0001F93AA2797FDA095BA2FBC01CD010E947C
:102300008D16209198013091990140919A01509138
:102310009B010E94C11720919C0130919D01409129
:102320009E0150919F010E94F21520E030E04AE7A3
:1023300054E40E94C11720918C0130918D0140918D
:102340008E0150918F010E942415209190013091AF
:10235000910140919201509193010E94F2152091B8
:1023600094013091950140919601509197010E94FE
:10237000F2157B018C0100D000D000D08BE491E0FD
:10238000EDB7FEB792838183C701D801838394831D
:10239000A583B6830E946E1B8DB79EB706960FB6B7
:1023A000F8949EBF0FBE8DBFB701C8011F910F915A
:1023B000FF90EF9008950895CF93DF93482F80EF1B
:1023C0006130780714F461E070EFEB0180E1603078
:1023D000780714F0CFEFDFE04834C9F04C3489F5CA
:1023E000D7FD0AC080E090E060E070E00E94270521
:1023F00081E090E0BE0123C0662777276C1B7D0B30
:1024000080E090E00E94270581E090E009C0D7FDC0
:102410000AC082E090E0BE010E94270583E090E0C0
:1024200060E070E00CC082E090E060E070E00E944C
:102430002705662777276C1B7D0B83E090E00E94C1
:102440002705DF91CF91089580E090E060E070E093
:102450000E94270581E090E060E070E00E9427057F
:1024600082E090E060E070E00E94270583E090E069
:1024700060E070E00E94270508952F923F924F92EE
:102480005F926F927F928F929F92AF92BF92CF9204
:10249000DF92EF92FF920F931F93DF93CF93CDB70D
:1024A000DEB768970FB6F894DEBF0FBECDBF5C01F4
:1024B0007B01889FB001899F700D989F700D11243A
:1024C000882777FD8095982F0E948D161B012C017F
:1024D000EE9CB001EF9C700DFE9C700D11248827BE
:1024E00077FD8095982F0E948D166D8B7E8B8F8B3C
:1024F000988FC201B1012D893E894F89588D0E9464
:1025000025153B014C0120E030E041E653E40E94F8
:10251000241520E030E040E853E40E94241520E038
:1025200030E040EF53E40E94F2150E9416159B0123
:10253000AC01505829833A834B835C830027F7FC16
:102540000095102FC801B7010E948D166D877E87F8
:102550008F87988BCC24B7FCC094DC2CC601B501C6
:102560000E948D16698B7A8B8B8B9C8B6D857E85FB
:102570008F85988929893A894B895C890E949815A9
:102580006D837E838F839887C401B3010E949A185C
:102590005B016C01C201B10120E030E041E653E48F
:1025A0000E9425152D893E894F89588D0E94251539
:1025B00020E030E040E853E40E9424157B018C01C8
:1025C000C601B50120E030E040EF51E40E94C117A0
:1025D0009B01AC01C801B7010E94F2150E941615BB
:1025E00069877A878B879C876D817E818F819885AB
:1025F00029853A854B855C850E9425151B012C0198
:102600000E94EF155B016C01C201B10129813A8181
:102610004B815C810E9425153B014C01C4010E9445
:10262000EF157B018C01C601B50120E030E040E7E9
:1026300051E40E94C1175B016C01C801B70120E0A1
:1026400030E040E851E40E94C1179B01AC01C60193
:10265000B5010E9425150E94701829893A894B8975
:102660005C890E94EB15882359F5B301C4010E94CF
:1026700090185B016C01C201B1010E94901820E02A
:1026800030E040E751E40E94C1177B018C01C60194
:10269000B50120E030E040E851E40E94C1179B0101
:1026A000AC01C801B7010E9425150E9470182D8544
:1026B0003E854F8558890E94EB15882309F467C031
:1026C0006D817E818F81988529853A854B855C85D2
:1026D0000E9424151B012C0129813A814B815C81C8
:1026E0000E9425153B014C01C4010E94EF155B01BE
:1026F0006C01C201B1010E94EF1520E030E040E71B
:1027000051E40E94C1177B018C01C601B50120E094
:1027100030E040E851E40E94C1179B01AC01C801C0
:10272000B7010E9425150E94701829893A894B89A2
:102730005C890E94EB158823D9F5B301C4010E947E
:1027400090185B016C01C201B1010E94901820E059
:1027500030E040E751E40E94C1177B018C01C601C3
:10276000B50120E030E040E851E40E94C1179B0130
:10277000AC01C801B7010E9425150E9470182D8573
:102780003E854F8558890E94EB15882389F4C20144
:10279000B10120E030E044E353E40E94C1172BED87
:1027A0003FE049E450E40E94F2155B016C0115C062
:1027B00000D081E591E0EDB7FEB7928381830E945E
:1027C0006E1B0F2EF0E0AF2EF0E0BF2EF0E0CF2E0C
:1027D000F0E0DF2EF02D0F900F9069817A818B81D0
:1027E0009C8120EE3EE245E652E40E94C1177B0147
:1027F0008C0120E030E040E050E00E94B617C801B4
:10280000B70120E030E044EB52E40E9425153B0183
:102810004C01C601B5010E945A167B018C01C4010E
:10282000B3010E945A169B01AC01C701B9010E9475
:102830001A0F68960FB6F894DEBF0FBECDBFCF91CA
:10284000DF911F910F91FF90EF90DF90CF90BF909D
:10285000AF909F908F907F906F905F904F903F9040
:102860002F9008959C01F8948130910569F0823091
:102870009105A9F00097D9F416BC83E085BD81E0ED
:1028800080936E0085BB13C0109285001092840067
:1028900081E08093810080936F0086BB08C0109216
:1028A000B20081E08093B1008093700087BB6130FB
:1028B000710521F52130310569F022303105B1F083
:1028C000232BE1F482E084BD15BC47BD80936E00EC
:1028D00085BB14C088E080938100509389004093A9
:1028E000880082E080936F0086BB08C082E08093FE
:1028F000B0004093B3008093700087BB7894089534
:10290000813039F0813018F0823051F407C067BD52
:102910000895709389006093880008956093B300D0
:1029200008959B01AC0184E0220F331F441F551F03
:102930008A95D1F760E070E489E191E00E94FB198B
:10294000215030403093C5002093C40088E180932B
:10295000C10086E08093C2000895982F8091C00046
:1029600085FFFCCF9093C6000895FC0107C08091BD
:10297000C00085FFFCCF9093C600319690819923CB
:10298000B1F708950F931F93DF93CF93CDB7DEB7C1
:1029900064970FB6F894DEBF0FBECDBF2DB73EB71C
:1029A000285030400FB6F8943EBF0FBE2DBFEDB794
:1029B000FEB731968E010F5F1F4FADB7BEB71296AF
:1029C0001C930E93119726E631E03383228395837F
:1029D0008483778366830E94831B2DB73EB7285F6D
:1029E0003F4F0FB6F8943EBF0FBE2DBFC8010E94E7
:1029F000B51464960FB6F894DEBF0FBECDBFCF916D
:102A0000DF911F910F91089580EA91E090930F025A
:102A100080930E0260E072EC81E090E00E949114DD
:102A200008950E94600980E090E008959F939F7749
:102A3000AFD10F9000203AF49058A2EA2AED3FE07F
:102A400049E450E413D047C25058BB27AA270ED000
:102A500042C20BD230F010D220F031F49F3F11F47B
:102A60001EF4DBC10EF4E095E7FBD1C1E92F55D28E
:102A700080F3BA17620773078407950718F071F49B
:102A80009EF56DC20EF4E0950B2EBA2FA02D0B0112
:102A9000B90190010C01CA01A0011124FF27591BA3
:102AA00099F0593F50F4503E68F11A16F040A22FA9
:102AB000232F342F4427585FF3CF4695379527951A
:102AC000A795F0405395C9F77EF41F16BA0B620B19
:102AD000730B840BBAF09150A1F0FF0FBB1F661F60
:102AE000771F881FC2F70EC0BA0F621F731F841FA3
:102AF00048F4879577956795B795F7959E3F08F0C9
:102B0000B3CF9395880F08F09927EE0F9795879587
:102B10000895ABD158F080E891E009F49EEFACD174
:102B200028F040E851E059F45EEF09C076C117C2C1
:102B3000E92FE078F2D168F3092E052AC1F32617B0
:102B400037074807590738F00E2E07F8E02569F0D7
:102B5000E025E0640AC0EF6307F8009407FADB01A0
:102B6000B9019D01DC01CA01AD01EF934AD0B3D197
:102B70000AD05F91552331F02BED3FE049E450FD41
:102B800049EC63CF0895DF93DD27B92FBF7740E885
:102B90005FE31616170648075B0710F4D92FEAD132
:102BA0009F938F937F936F9303D3ECE7F0E038D13B
:102BB00092D12F913F914F915F91EFD1DD2349F059
:102BC0009058A2EA2AED3FE049EC5FE3D0785D2718
:102BD0004DDFDF9180C1F7D008F481E0089554D132
:102BE000E3958AC10CD077C147D140F03ED130F097
:102BF00021F45F3F19F00BC15111B2C10EC18DD14B
:102C000098F39923C9F35523B1F3951B550BBB27B3
:102C1000AA2762177307840738F09F5F5F4F220F60
:102C2000331F441FAA1FA9F333D00E2E3AF0E0E859
:102C300030D091505040E695001CCAF729D0FE2FA5
:102C400027D0660F771F881FBB1F26173707480737
:102C5000AB07B0E809F0BB0B802DBF01FF279358ED
:102C60005F4F2AF09E3F510568F0D1C079C15F3FA8
:102C7000ECF3983EDCF3869577956795B795F795D5
:102C80009F5FC9F7880F911D9695879597F90895CD
:102C9000E1E0660F771F881FBB1F62177307840769
:102CA000BA0720F0621B730B840BBA0BEE1F88F778
:102CB000E095089504D06894B11152C1089535D1BA
:102CC00088F09F5790F0B92F9927B751A0F0D1F015
:102CD000660F771F881F991F1AF0BA95C9F712C09F
:102CE000B13081F03CD1B1E0089539C1672F782F20
:102CF0008827B85F39F0B93FCCF38695779567950B
:102D0000B395D9F73EF490958095709561957F4F76
:102D10008F4F9F4F0895E89409C097FB3EF490951C
:102D20008095709561957F4F8F4F9F4F9923A9F0A4
:102D3000F92F96E9BB279395F69587957795679533
:102D4000B795F111F8CFFAF4BB0F11F460FF1BC077
:102D50006F5F7F4F8F4F9F4F16C0882311F096E90A
:102D600011C0772321F09EE8872F762F05C06623B8
:102D700071F096E8862F70E060E02AF09A95660F71
:102D8000771F881FDAF7880F9695879597F908952A
:102D9000DF93CF931F930F938B01EC01E9EAF0E0EF
:102DA0003FD099D09801AE018B01EC0160E070E05A
:102DB00080E89FE349DEBED19801AE010F911F91DB
:102DC000CF91DF91EAC0990F0008550FAA0BE0E8F8
:102DD000FEEF16161706E807F907C0F012161306DD
:102DE000E407F50798F0621B730B840B950B39F41D
:102DF0000A2661F0232B242B252B21F408950A2683
:102E000009F4A140A6958FEF811D811D089597F9C2
:102E10009F6780E870E060E008959FEF80EC089580
:102E2000DF93CF931F930F93FF92EF92DF927B017B
:102E30008C01689405C0DA2EEF01AFD0FE01E89452
:102E4000A5912591359145915591AEF3EF010EDE97
:102E5000FE019701A801DA9479F7DF90EF90FF90D7
:102E60000F911F91CF91DF91089500240A941616B7
:102E7000170618060906089500240A941216130668
:102E8000140605060895C9CF50D0E8F3E894E0E0B1
:102E9000BB279F57F0F02AED3FE049EC06C0EE0F4C
:102EA000BB0F661F771F881F28F0B23A62077307AF
:102EB000840728F0B25A620B730B840BE3959A9542
:102EC00072F7803830F49A95BB0F661F771F881F02
:102ED000D2F79048BEC1092E0394000C11F4882348
:102EE00052F0BB0F40F4BF2B11F460FF04C06F5FC2
:102EF0007F4F8F4F9F4F0895EF93E0FF06C0A2EAE8
:102F00002AED3FE049EC5FEBB1DDE5DF0F90039484
:102F100001FC9058E1EDF0E0AFC157FD9058440F2F
:102F2000551F59F05F3F71F04795880F97FB991F28
:102F300061F09F3F79F087950895121613061406E5
:102F4000551FF2CF4695F1DF08C016161706180672
:102F5000991FF1CF86957105610508940895E8944D
:102F6000BB2766277727CB0197F908952CDF08F454
:102F70008FEF08959B01AC0160E070E080E89FE373
:102F800031CE0BD0A8CF71DF28F076DF18F0952373
:102F900009F03DCF42CF1124E3CFBFDFA0F3959FCF
:102FA000D1F3950F50E0551F629FF001729FBB2730
:102FB000F00DB11D639FAA27F00DB11DAA1F649FDC
:102FC0006627B00DA11D661F829F2227B00DA11D8F
:102FD000621F739FB00DA11D621F839FA00D611D15
:102FE000221F749F3327A00D611D231F849F600D36
:102FF000211D822F762F6A2F11249F5750408AF06F
:10300000E1F088234AF0EE0FFF1FBB1F661F771FFA
:10301000881F91505040A9F79E3F510570F0F7CEA0
:103020009FCF5F3FECF3983EDCF3869577956795ED
:10303000B795F795E7959F5FC1F7FE2B880F911D18
:103040009695879597F90895FA01EE0FFF1F309630
:103050002105310599F16115710561F48038BFE3EF
:103060009B0749F168949038810561F08038BFEF83
:103070009B0741F0992342F5FF3FE105310521050A
:1030800011F1E8940894E795D901AA2329F4AB2F0C
:10309000BE2FF85FD0F310C0FF5F70F4A695E0F785
:1030A000F73950F019F0FF3A38F49F779F930CD01E
:1030B0000F9007FC905808953EF0AFCE60E070E0AE
:1030C00080E89FE308954FE79F775F934F933F9387
:1030D0002F931ED12F913F914F915F9152DF70C07E
:1030E00024DFE0F09E37D8F09639B8F49E3848F4E3
:1030F000672F782F8827985FF9CF86957795679502
:1031000093959539D0F3B62FB1706B0F711D811D5A
:1031100020F487957795679593957EC098C020CFCA
:103120009F93B2DE0F9007FCEE5FE6CE11F40EF433
:1031300074CE8DC0FADED0F39923D9F3CEF39F5726
:10314000550B87FF92D00024A0E640EA90018058FA
:103150005695979528F4805C660F771F881F20F09E
:1031600026173707480730F4621B730B840B20299E
:1031700031294A2BA69517940794202531254A27F3
:1031800058F7660F771F881F20F026173707480764
:1031900030F4620B730B840B200D311D411DA09583
:1031A00081F7B901842F9158880F969587950895D6
:1031B0009B01AC01E6CE19F40EF029CED0CE2DCE77
:1031C000B4DEC8F39638C0F707F80F92E8942BE303
:1031D0003AEA48EB5FE7E3DE0F920F920F924DB7AA
:1031E0005EB70F92D5D0EFEEF0E01ADE4F915F910F
:1031F000EF91FF91E595EE1FFF1F49F0FE57E06844
:103200004427EE0F441FFA95E1F74195550B47D03F
:103210000F9007FEAFCE0895882371F4772321F035
:103220009850872B762F07C0662311F499270DC07D
:103230009051862B70E060E02AF09A95660F771F18
:10324000881FDAF7880F9695879597F908959F3F1D
:1032500031F0915020F4879577956795B795880F51
:10326000911D9695879597F9089591505040660F56
:10327000771F881FD2F708959F938F937F936F9343
:10328000FF93EF939B01AC017CDEEF91FF91C8DDD2
:103290002F913F914F915F9174CEB9CDD8CF45DE3C
:1032A000E8F39923D9F3940F511DBBF3915050408B
:1032B00094F059F0882332F0660F771F881F9150E1
:1032C0005040C1F79E3F510544F7880F911D9695D8
:1032D000879597F908955F3FACF0983E9CF0BB2727
:1032E000869577956795B79508F4B1609395C1F782
:1032F000BB0F58F711F460FFE8CF6F5F7F4F8F4F20
:103300009F4FE3CF2DCE0EF0A2CF87CD68947FCD17
:103310000CDEC8F39923D1F3C6F3DF93CF931F9349
:103320000F93FF92C92FDD2788232AF02197660F7C
:10333000771F881FDAF720E030E040E85FEB9FE37B
:10334000883920F0803E30F021968F777EDBE7E1F0
:10335000F1E003C07ADBE4E4F1E062DD8B01BE0161
:10336000EC01FB2E6F5771097595771F880B990B30
:10337000D4DC28E132E741E35FE30FDEAF2D9801B3
:10338000AE01FF900F911F91CF91DF916FDBA3CD25
:10339000FA01DC01AA0FBB1F9B01AC01BF5728F447
:1033A00022273327442750781FC0B75188F4AB2F0A
:1033B0000024469537952795011CA395D2F300204C
:1033C00069F0220F331F441FB395DAF30DD03CCBC5
:1033D00061307105A0E88A07B94630F49B01AC0161
:1033E0006627772788279078309621F020833183CD
:1033F000428353830895A1E21A2EAA1BBB1BFD0131
:103400000DC0AA1FBB1FEE1FFF1FA217B307E407C3
:10341000F50720F0A21BB30BE40BF50B661F771F1B
:10342000881F991F1A9469F76095709580959095FB
:103430009B01AC01BD01CF0108952F923F924F92A5
:103440005F926F927F928F929F92AF92BF92CF9234
:10345000DF92EF92FF920F931F93CF93DF93CDB73D
:10346000DEB7CA1BDB0B0FB6F894DEBF0FBECDBFB5
:1034700009942A88398848885F846E847D848C8486
:103480009B84AA84B984C884DF80EE80FD800C818F
:103490001B81AA81B981CE0FD11D0FB6F894DEBF72
:1034A0000FBECDBFED010895283008F027E0332787
:1034B000DA01990F311D87FD916000966105710554
:1034C00039F432602E5F3D9330E32A95E1F7089599
:1034D0009F3F30F080387105610509F03C5F3C5F2B
:1034E0003D93913008F08068911DDF93CF931F9337
:1034F0000F93FF92EF92192F987F9695E92F96954B
:103500009695E90FFF27ED52FE4F99273327EE24BA
:10351000FF24A701E70105900894079428F4360FCB
:10352000E71EF81E491F511D660F771F881F991F40
:103530000694A1F70590079428F4E70EF81E491F9A
:10354000561FC11D770F881F991F661F0694A1F78C
:103550000590079428F4F80E491F561FC71FD11D68
:10356000880F991F661F771F0694A1F7059007948F
:1035700020F4490F561FC71FD81F990F661F771FCA
:10358000881F0694A9F784911095177041F0D6957D
:10359000C79557954795F794E7941A95C1F7E9E7CA
:1035A000F1E068941590159135916591959105908C
:1035B0007FE27395E118F10A430B560BC90BD00952
:1035C000C0F7E10CF11E431F561FC91FD01D7EF42A
:1035D000703311F48A95E6CFE894015030F0080F6B
:1035E0000AF40027021708F4202F2395022F7A33BC
:1035F00028F079E37D932A95E9F710C07D932A9509
:1036000089F6069497956795379517951794E1185D
:10361000F10A430B560BC90BD00998F023957E9104
:1036200073957A3308F070E37C932013B8F77E919A
:1036300070617D9330F0839571E37D9370E32A95FB
:10364000E1F71124EF90FF900F911F91CF91DF913F
:10365000992787FD90950895FC0105906150704071
:103660000110D8F7809590958E0F9F1F0895FC014B
:103670006150704001900110D8F7809590958E0FA1
:103680009F1F08950F931F93CF93DF938C01EB013E
:103690008B8181FF1BC082FF0DC02E813F818C81F9
:1036A0009D812817390764F4E881F9810193F98332
:1036B000E88306C0E885F985802F0995892B31F4C8
:1036C0008E819F8101969F838E8302C00FEF1FEF33
:1036D000C801DF91CF911F910F910895A0E0B0E054
:1036E000E4E7FBE10C942D1AFE013596619171918E
:1036F00080910E0290910F02AF010E945901209615
:10370000E2E00C94491AAEE0B0E0E9E8FBE10C9489
:103710002B1A0D891E8986E08C831A8309838FEF0B
:103720009FE79E838D839E01275E3F4FCE010196CA
:103730006F89788DA9010E9459012F813885020F68
:10374000131FF80110822E96E4E00C94471AFA0138
:10375000AA27283051F1203181F1E8946F936E7FD0
:103760006E5F7F4F8F4F9F4FAF4FB1E03ED0B4E0C1
:103770003CD0670F781F891F9A1FA11D680F791F02
:103780008A1F911DA11D6A0F711D811D911DA11D13
:1037900020D009F468943F912AE0269F1124301923
:1037A000305D3193DEF6CF010895462F4770405DBE
:1037B0004193B3E00FD0C9F7F6CF462F4F70405D6D
:1037C0004A3318F0495D31FD4052419302D0A9F7C8
:1037D000EACFB4E0A6959795879577956795BA95C2
:1037E000C9F700976105710508959B01AC010A2E88
:1037F00006945795479537952795BA95C9F7620F5F
:0E380000731F841F951FA01D0895F894FFCF1D
:10380E0047466F7263653A2025660A0D006D696C36
:10381E006C69566F6C74733A202566200A0D004E43
:10382E006F20416E676C657320746F206265206D2A
:10383E00616465002564200A0D002564202564203E
:10384E000A0D0068657265200A0D002566200A0DB6
:10385E00004E6F20416E676C657320746F20626539
:10386E00206D61646500536574736572766F2825EB
:10387E00642C25303364290A0D0001000000A0409D
:10388E00AE47613ED74C4E3F2D0001009A9929401C
:10389E000000A041CDCC4C3D0000A04000C07F44B4
:0E38AE000000000200000000111500000000E4
:00000001FF
