:100000000C943A010C9457010C9457010C9457012D
:100010000C9457010C9457010C9457010C94570100
:100020000C9457010C9457010C9457010C945701F0
:100030000C9457010C9457010C9457010C945701E0
:100040000C9457010C9457010C9492090C9457018D
:100050000C9457010C9457010C9457010C945701C0
:100060000C9457010C9457010C9457010C945701B0
:100070000C9457010C9457010C945701084AD73B34
:100080003BCE016E84BCBFFDC12F3D6C74319ABD67
:1000900056833DDA3D00C77F11BED9E4BB4C3E918B
:1000A0006BAAAABE000000803F072C7AA5BA6CC5D7
:1000B00090DA3B9365FC8BBC53F810FD3C56928361
:1000C0004DBD879D3AB63DCBC9BF5BBE73DA0FC944
:1000D0003F05A84CCDB2D44EB93836A9020C50B960
:1000E000918688083CA6AAAA2ABE000000803F0785
:1000F000634236B79BD8A71A39685618AEBAAB55C3
:100100008C1D3CB7CC5763BD6DEDFD753EF6177287
:1001100031BF000000803F08000000BE9224491259
:100120003EABAAAA2ABECDCCCC4C3E00000080BE7D
:10013000ABAAAAAA3E00000000BF000000803F005A
:1001400000000000084178D3BB4387D1133D190E4E
:100150003CC3BD4282AD2B3E68EC8276BED98FE1B6
:10016000A93E4C80EFFFBE01C4FF7F3F00000000AE
:10017000006E616E00696E660000407A10F35A00EE
:10018000A0724E18090010A5D4E80000E8764817C0
:100190000000E40B54020000CA9A3B000000E1F5A5
:1001A00005000080969800000040420F000000A06B
:1001B0008601000000102700000000E80300000096
:1001C000006400000000000A0000000000010000C0
:1001D0000000002C76D888DC674F0823DFC1DFAE33
:1001E00059E1B1B796E5E3E453C63AE651997696FC
:1001F000E8E6C28426EB898C9B62ED407C6FFCEFC5
:10020000BC9C9F40F2BAA56FA5F490055A2AF75CF2
:10021000936B6CF9676DC11BFCE0E40D47FEF520A4
:10022000E6B500D0ED902E0300943577050080846C
:100230001E080000204E0A000000C80C3333333380
:100240000F986E12831141EF8D2114893BE65516EC
:10025000CFFEE6DB18D1844B381BF77C1D901DA424
:10026000BBE424203284725E228100C9F124ECA117
:10027000E53D270011241FBECFEFD0E1DEBFCDBF8B
:1002800011E0A0E0B1E0EAE3FFE202C005900D92C8
:10029000A43AB107D9F711E0A4EAB1E001C01D9278
:1002A000A43FB107E1F70E94C2090C949B170C947C
:1002B0000000A1E1B0E0EFE5F1E00C94B3153C01E2
:1002C0007F876E876A01FC0117821682838181FD18
:1002D00003C06FEF7FEF6FC39E012F5F3F4F398BDE
:1002E000288BF3012381EE85FF8523FD859123FF74
:1002F0008191FF87EE87882309F45AC3853251F430
:10030000EE85FF8523FD859123FF8191FF87EE8791
:10031000853229F490E0B3010E94D816E2CF982FDD
:1003200010E0882499241032B0F49B3269F09C329A
:1003300028F4903251F0933271F40BC09D3239F0B1
:10034000903349F4116028C01260146025C0186011
:1003500023C0106121C017FD2AC0892F80538A3025
:1003600078F416FF06C0FAE09F9E902C1124980E98
:1003700013C03AE0839E802C1124880E10620CC0BA
:100380009E3221F416FD14C3106406C09C3611F48D
:10039000106802C0983659F4EE85FF8523FD9591CB
:1003A00023FF9191FF87EE87992309F0BCCF892F16
:1003B0008554833020F4812F8061905E07C0892F9F
:1003C0008556833008F09FC1812F8F7E86FD02C045
:1003D00076E0972E6FE3F62EF822953619F4F0E4C6
:1003E000FF2A07C0963619F420E8F22A02C09110BD
:1003F0009A94F7FE0AC03BE3391518F45CE3B52E76
:1004000002C0B92CB39427E009C047E0491520F495
:10041000BB2447E0942EF7CF292DBB24C6010496B8
:100420009D878C87F6016081718182819381AE0105
:100430004F5F5F4F0B2D0E94EA156C010981202E42
:10044000332400FF04C003FD02C01DE209C0F1FE19
:1004500002C01BE205C0F2FC02C010E001C010E2C5
:10046000C1018C709070892BB9F1112311F483E0D4
:1004700001C084E0881510F088240AC0881AF3FCB3
:1004800007C080E290E0B3010E94D8168A94C9F7B1
:10049000112329F0812F90E0B3010E94D81623FE8A
:1004A00003C001E711E00EC005E711E00BC0E11445
:1004B000F10409F0805290E0B3010E94D8160F5F5A
:1004C0001F4F05C0EF2CFF24F0E1EF22FF24F801BD
:1004D0008491882361F714C1F7FE12C0BC0C24FE7E
:1004E00004C08A81813309F4BA941B141CF0BB2424
:1004F000B3942DC0F8E0FB1550F538E0B32E27C0BB
:10050000F6FC25C0892D90E08C159D054CF02CEF54
:10051000C2162FEFD20624F030E8F32A01C09A94D5
:10052000992049F0E2E0F0E0EC0FFD1FE90DF11D2C
:1005300080818033A1F3F7FE0AC0B92CB394892DD2
:1005400090E0C816D90614F0992401C09C18F7FC55
:1005500003C025E030E009C01C141D041CF021E09C
:1005600030E003C096012F5F3F4F112311F02F5F42
:100570003F4F992029F0892D90E00196280F391FCF
:10058000882D90E02817390714F0882401C0821ABA
:100590004F2C5524C20189709070892B39F008C006
:1005A00080E290E0B3010E94D8168A948820C1F7B7
:1005B000112329F0812F90E0B3010E94D81643FE49
:1005C00007C008C080E390E0B3010E94D8168A9467
:1005D0008820C1F7F7FE46C08601D7FE02C000E0C2
:1005E00010E076010894E11CF11CE01AF10A41E0E8
:1005F00050E04C0F5D1FE40EF51E26014B1851080C
:10060000892D90E0AA24BB24A81AB90A5FEF0F3FF6
:10061000150729F48EE290E0B3010E94D816C016A7
:10062000D10634F0401651061CF4F701808101C058
:1006300080E3015010400894E11CF11C0A151B05D1
:100640002CF090E0B3010E94D816E0CF0C151D05E8
:1006500039F49A81963318F4953311F424FE81E32A
:1006600090E04BC08A81813309F00F7E90E0B301A6
:100670000E94D8169920A1F08EE290E0B3010E946A
:10068000D81612E0E1E0F0E0EC0FFD1FE10FF11DE4
:100690001F5F808190E0B3010E94D8169A9491F771
:1006A00044FC03C085E690E002C085E490E0B3011D
:1006B0000E94D816D7FC05C0C114D10441F404FF30
:1006C00006C0D094C194D108D3948DE201C08BE2CE
:1006D00090E0B3010E94D81680E305C08F5F26EF3B
:1006E0003FEFC20ED31E3AE0C316D104BCF790E030
:1006F000B3010E94D816C601C096B3010E94D81655
:10070000CC84DD8452C1933631F0933799F0933520
:1007100009F059C023C0F601808189835E010894E5
:10072000A11CB11C22E030E0C20ED31E21E0E22E5B
:10073000F12C12C0F601A080B18016FD03C06FEF4E
:100740007FEF02C0692D70E022E030E0C20ED31EC0
:10075000C5010E94CD167C011F7713C0F601A08051
:10076000B18016FD03C06FEF7FEF02C0692D70E00E
:1007700022E030E0C20ED31EC5010E94C2167C01E9
:10078000106813FF07C01BC080E290E0B3010E9415
:10079000D8168A94882D90E0E816F906A8F30FC0C1
:1007A000F50117FD859117FF81915F0190E0B3017D
:1007B0000E94D81681108A940894E108F108E11487
:1007C000F10471F7F2C0943611F0993689F517FFEC
:1007D00008C0F601208131814281538184E090E09C
:1007E0000AC0F601808191819C01442737FD409524
:1007F000542F82E090E0C80ED91E9FE6F92EF12218
:1008000057FF09C050954095309521953F4F4F4F68
:100810005F4F90E8F92ACA01B901AE014F5F5F4FFF
:100820002AE030E00E943D17E82EE889EE1A41C028
:10083000953721F41F7E2AE030E01CC0197F9F36D7
:1008400061F0903720F4983509F0B2C00FC09037AE
:1008500039F0983709F0ACC004C028E030E00AC095
:10086000106114FD146020E130E004C014FD166036
:1008700020E132E017FF08C0F601608171818281BA
:10088000938144E050E008C0F60180819181BC0171
:1008900080E090E042E050E0C40ED51EAE014F5F14
:1008A0005F4F0E943D17E82E5889E51A8FE7F82E12
:1008B000F122F6FE0BC08EEFF822E91438F4F4FEB4
:1008C00007C0F2FC05C09FEEF92202C01E2D01C038
:1008D000192DF4FE0DC0FE01EE0DF11D8081803357
:1008E00019F4E9EEFE2208C01F5FF2FE05C003C046
:1008F0008F2D867809F01F5F0F2DF3FC14C0F0FEDA
:100900000FC0181510F09E2C0BC09E2C980C911A3D
:10091000182D06C080E290E0B3010E94D8161F5F38
:100920001815C0F304C0181510F4811A01C08824EA
:1009300004FF0FC080E390E0B3010E94D81602FFCD
:100940001DC001FD03C088E790E00EC088E590E07F
:100950000BC0802F867891F001FF02C08BE201C0AE
:1009600080E2F7FC8DE290E0B3010E94D81606C049
:1009700080E390E0B3010E94D8169A94E914C0F382
:10098000EA94E1E0F0E0EC0FFD1FEE0DF11D808137
:1009900090E0B3010E94D816EE2091F706C080E2E5
:1009A00090E0B3010E94D8168A948820C1F799CCB0
:1009B000F30166817781CB016196E2E10C94CF155A
:1009C00091B121E030E002C0220F331F8A95E2F797
:1009D000822F8095892381B9EEE7F0E08081282B72
:1009E000208390E490937C0087E880937A00909332
:1009F0007B00089591B121E030E002C0220F331F47
:100A00008A95E2F72095292321B910927900E8E729
:100A1000F0E0108211821082089590917C00982B52
:100A200090937C001092640080917A00806480939F
:100A30007A0080917A0086FDFCCF20917800309179
:100A40007900C9010895806480937C000895EF9235
:100A5000FF920F931F93482FCB0120E16030720764
:100A600014F08FEF9FE07C010027F7FC0095102F1A
:100A700080912B008F7E80932B00842F80630E94B7
:100A80003609D801C70124E0B695A79597958795B3
:100A90002A95D1F70E9436098FE090E0A0E0B0E0FF
:100AA000E822F9220A231B238E2D8295807F0E9443
:100AB000360980912B00806180932B0080912B0060
:100AC0008F7E80932B0080912B00806180932B0080
:100AD0001F910F91FF90EF900895CF92DF92EF92C8
:100AE000FF920F931F93883419F08C3491F519C03D
:100AF0004093D6015093D7016093D8017093D901E8
:100B00000093DA011093DB012093DC013093DD01C7
:100B1000C092DE01D092DF01E092E001F092E101AB
:100B200018C04093E2015093E3016093E401709395
:100B3000E5010093E6011093E7012093E80130936B
:100B4000E901C092EA01D092EB01E092EC01F0924F
:100B5000ED011F910F91FF90EF90DF90CF900895DE
:100B60006F927F928F929F92AF92BF92CF92DF92BD
:100B7000EF92FF920F931F939B01281B390B442781
:100B800037FD4095542FCA01B9010E9423125B0121
:100B90006C012091B0013091B1014091B2015091AE
:100BA000B3010E94BA102AE037ED43E25CE30E94F1
:100BB00088113B014C016093A8017093A9018093B7
:100BC000AA019093AB01E090DA01F090DB01009173
:100BD000DC011091DD01C801B701A60195010E9459
:100BE00057132091AC013091AD014091AE0150916D
:100BF000AF010E94BB109B01AC016093AC017093EC
:100C0000AD018093AE019093AF01C801B7010E947E
:100C100057137B018C01C401B3012091DE01309197
:100C2000DF014091E0015091E1010E9457139B01C7
:100C3000AC01C801B7010E94BB107B018C01C60149
:100C4000B5012091D6013091D7014091D801509142
:100C5000D9010E9457139B01AC01C801B7010E9442
:100C6000BB106093C6017093C7018093C801909335
:100C7000C901A092B001B092B101C092B201D0926C
:100C8000B3010E94F011CB011F910F91FF90EF90E3
:100C9000DF90CF90BF90AF909F908F907F906F909C
:100CA00008956F927F928F929F92AF92BF92CF9250
:100CB000DF92EF92FF920F931F939B01281B390B3A
:100CC000442737FD4095542FCA01B9010E942312D1
:100CD0005B016C012091BE013091BF014091C001C8
:100CE0005091C1010E94BA102AE037ED43E25CE363
:100CF0000E9488113B014C016093B6017093B701CB
:100D00008093B8019093B901C601B5012AE037ED8F
:100D100043E25CE30E9457132091BA013091BB017A
:100D20004091BC015091BD010E94BB106093BA017B
:100D30007093BB018093BC019093BD012091E601AB
:100D40003091E7014091E8015091E9010E94571369
:100D50007B018C01C401B3012091EA013091EB01C8
:100D60004091EC015091ED010E9457139B01AC01A1
:100D7000C801B7010E94BB107B018C01C601B501FF
:100D80002091E2013091E3014091E4015091E501AD
:100D90000E9457139B01AC01C801B7010E94BB1010
:100DA0006093C2017093C3018093C4019093C50105
:100DB000A092BE01B092BF01C092C001D092C10109
:100DC0000E94F011CB011F910F91FF90EF90DF90E7
:100DD000CF90BF90AF909F908F907F906F9008952D
:100DE00087E090E00E94230587E090E00E940D05D7
:100DF000A0E0B0E0BC01CD010E94211224E83BE25A
:100E000040EA5BE30E9457136093E2017093E301B1
:100E10008093E4019093E50186E090E00E94230531
:100E200086E090E00E940D05A0E0B0E0BC01CD019D
:100E30000E94211220E030EC4FE754E40E94881118
:100E40006093E6017093E7018093E8019093E901D4
:100E500085E090E00E94230585E090E00E940D056A
:100E6000A0E0B0E0BC01CD010E94211220ED32E2F1
:100E700040E05AE30E9457136093EA017093EB013C
:100E80008093EC019093ED0182E090E00E942305B5
:100E90000895AF92BF92CF92DF92FF920F931F936C
:100EA000009739F00197F1F1AA24AA94BA2C6501B0
:100EB0004EC0459880E60E94360980E00E943609BF
:100EC000182F80E00E943609082F80E00E94360922
:100ED000F82E80E00E943609312F332720E0590197
:100EE000CC24B7FCC094DC2C302F332720E04427DF
:100EF00037FD4095542FA22AB32AC42AD52A90E060
:100F0000A0E0B0E0A82AB92ACA2ADB2A9F2D80E0F7
:100F1000AA2797FDA095BA2FA82AB92ACA2ADB2AA0
:100F2000459A15C0449880E60E94360980E00E94E8
:100F3000360980E00E94360980E00E94360980E090
:100F40000E943609A82EBB24CC24DD24449AB50186
:100F5000C6011F910F91FF90DF90CF90BF90AF908F
:100F60000895009719F0019761F406C0459880E252
:100F70000E943609459A0895449880E20E943609F5
:100F8000449A0895009719F0019791F409C0459883
:100F900088E80E94360983E00E943609459A089540
:100FA000449888E80E94360983E00E943609449AF2
:100FB00008950F931F93182F5F9886E00E943609BB
:100FC000812F8295880F880F807C0E943609082F18
:100FD00010E00F701070102F002780E00E9436097B
:100FE0005F9A282F30E0202B312BC9011F910F91E0
:100FF00008950E940D05AA2797FDA095BA2FBC0160
:10100000CD010E94231223E333E442E654E40E941C
:10101000BA102DED34E24DE352EC0E94881120E02D
:1010200030E040E050E40E94BB100E94F011CB0180
:1010300008956F927F928F929F92AF92BF92CF92BC
:10104000DF92EF92FF920F931F93AA2797FDA0952F
:10105000BA2FBC01CD010E9423125B016C01E0900C
:101060007301F09074010091750110917601A8014F
:1010700097010E944C1360907701709078018090E6
:10108000790190907A01882384F0C601B501A80106
:1010900097010E94BA10A40193010E94BA13AC01F7
:1010A000CB01DA017C018D0112C0C801B701A60194
:1010B00095010E94BA10A40193010E94BA139B01EA
:1010C000AC0179018A0117FB109517F9109500D032
:1010D00000D000D080E091E0EDB7FEB7928381832D
:1010E000E382F482058316830E9404178DB79EB7AE
:1010F00006960FB6F8949EBF0FBE8DBFB701C8010C
:101100001F910F91FF90EF90DF90CF90BF90AF9025
:101110009F908F907F906F900895EF92FF920F9322
:101120001F93AA2797FDA095BA2FBC01CD010E945D
:10113000231220917B0130917C0140917D015091DF
:101140007E010E94BA13162F072FF82EE92E00D029
:1011500000D000D08DE091E0EDB7FEB7928381839F
:10116000212F302F4F2D5E2DC901DA018383948307
:10117000A583B6830E9404178DB79EB706960FB657
:10118000F8949EBF0FBE8DBF212F302F4F2D5E2DA7
:10119000B901CA011F910F91FF90EF9008958091BE
:1011A0002400806280932400809124008F7B8093B0
:1011B0002400809124008068809324008091240082
:1011C00080618093240080912A00806180932A00AE
:1011D000809127008064809327008091270080629F
:1011E0008093270080912700806180932700809161
:1011F0002700886080932700809127008460809377
:1012000027008091270081608093270080912A0029
:10121000806880932A0080912B00806180932B004E
:10122000809128008064809328008091280080624B
:10123000809328008091280080618093280080910D
:101240002800886080932800809128008460809323
:1012500028008091280081608093280080912B00D5
:10126000806880932B0083E58CBD08958EBD0DB4FE
:1012700007FEFDCF8EB508959B01AC0164E0220FFF
:10128000331F441F551F6A95D1F760E070E489E170
:1012900091E00E949115C901DA010197A109B109F4
:1012A000292F3A2F4B2F55270196A11DB11D2093B1
:1012B000CD0081508093CC0088E18093C9000895CF
:1012C000982F8091C80085FFFCCF9093CE000895A1
:1012D0008091C80087FFFCCF8091CE000895AA2797
:1012E00097FDA095BA2FBC01CD010E94231225E3E2
:1012F0003AEF4EE85CE30E94571308958B5A9F4FD4
:10130000AA2797FDA095BA2FBC01CD010E942312F8
:1013100028EB3EE145E85EE30E9488110E94F0114F
:10132000CB0108951F920F920FB60F9211242F93A5
:101330003F938F939F938091CC019091CD01019623
:101340009093CD018093CC012091CC013091CD01BF
:1013500080917F01909180012817390754F081E036
:1013600090E09093D1018093D0011092CD01109222
:10137000CC019F918F913F912F910F900FBE0F90B5
:101380001F901895CF92DF92EF92FF920F931F93C9
:101390000E949A1084B18C7F84B90C9A60E072EC40
:1013A00081E090E00E943C090E94CF0882E090E03A
:1013B0000E94E00483E090E00E94E00484E090E07A
:1013C0000E94E0048CE440E050E060E272E400E05F
:1013D00010E020E03FE30F2EFAE0CF2EF7EDDF2EF6
:1013E000F3EAEF2EFBE3FF2EF02D0E946D0588E45B
:1013F00040E050E060E272E400E010E020E030E025
:10140000680179010E946D058DE090E064E170E073
:101410000E94D30D85E090E06FEF70E00E945810BD
:10142000F3CF8091230081FD0BC081E090E0909389
:10143000CF018093CE0180E090E00E94B107089533
:101440001092CF011092CE0108958091230080FF69
:101450001CC08091230081FD04C08CE460E074E036
:1014600017C08091230082FD04C08CE460E078EF17
:101470000FC08091230083FD04C08CE46FEF7FE0F8
:1014800007C080E090E00E94B1078CE460E070E06B
:101490000E94720D08956F927F928F929F92AF92E9
:1014A000BF92CF92DF92EF92FF920F931F9382E051
:1014B00090E00E94230582E090E00E940D057C01EF
:1014C00080E090E00E94230580E090E00E940D05FE
:1014D0000E94360D5C010027F7FC0095102FC80113
:1014E000B7010E9423123B014C018DB79EB70C97A8
:1014F0000FB6F8949EBF0FBE8DBF0DB71EB70F5F1E
:101500001F4F8FE191E0EDB7FEB792838183809109
:10151000D2019091D301F80193838283C401B30176
:101520002FE135E84BE65EE30E94571320E030E000
:1015300046E952E40E94BA100E94F511F801758341
:101540006483C401B3012EE037E64CE950E40E9405
:1015500057130E94F511F80177836683CC24B7FCFA
:10156000C094DC2CC601B5010E942312F8016087EB
:101570007187828793870E9404178DB79EB70C9658
:101580000FB6F8949EBF0FBE8DBF1F910F91FF90B5
:10159000EF90DF90CF90BF90AF909F908F907F9013
:1015A0006F9008950F931F9300D000D00DB71EB712
:1015B0000F5F1F4F2BE231E0EDB7FEB7328321837F
:1015C000AA2797FDA095BA2FBC01CD010E94231236
:1015D00028EB3EE145E85EE30E94571320E030E04F
:1015E0004AEA52E40E94BA100E94F511F80173838E
:1015F00062830E9404170F900F900F900F901F911D
:101600000F910895AF92BF92CF92DF92EF92FF9227
:101610000F931F936C01B601882777FD8095982F53
:101620000E9423127B018C018DB79EB708970FB6DD
:10163000F8949EBF0FBE8DBFADB6BEB60894A11C78
:10164000B11C8CE391E0EDB7FEB792838183F50185
:10165000D382C282C801B7012EE037E64CE950E4DC
:101660000E9457130E94F511F50175836483C80128
:10167000B70128EB3EE145E85EE30E94571320E006
:1016800030E04AEA52E40E94BA1020E030E044EB35
:1016900052E40E94BB100E94F511F5017783668326
:1016A0000E9404178DB79EB708960FB6F8949EBF98
:1016B0000FBE8DBF1F910F91FF90EF90DF90CF90E5
:1016C000BF90AF9008950F931F930E947E098C01E5
:1016D00083E090E00E94230583E090E00E940D05E6
:1016E000BC01C8010E94B005BC0188E40E94720DD3
:1016F0001F910F9108950F931F930E947E098C01F3
:1017000082E090E00E94230582E090E00E940D05B7
:10171000BC01C8010E945106BC018CE40E94720DFC
:101720001F910F9108958091230080FD05C085E5EC
:1017300090E00E947B0B089580E090E00E947B0B7C
:1017400080E090E00E94B1070895CF93DF93AC0151
:1017500097FF02C040E050E0EB0177FF02C0C0E01D
:10176000D0E0CA014B35510514F08AE590E00E94A3
:101770007B0B9E01C53BD10514F024EB30E0C90181
:101780000E94630BDF91CF9108950F931F93CF9326
:10179000DF9382E090E00E94230582E090E00E94C7
:1017A0000D05A0E0B0E0BC01CD010E94211228EBA4
:1017B0003EE145E85EE30E94571320E030E04AEA4C
:1017C00052E40E94BA100E94F0118B0183E090E075
:1017D0000E94230583E090E00E940D05A0E0B0E0A8
:1017E000BC01CD010E94211228EB3EE145E85EE3F9
:1017F0000E94571320E030E04AEA52E40E94BA10F7
:1018000020E030E044EB52E40E94BA100E94F01154
:10181000EB018091D4019091D501009799F480E07B
:1018200090E06AE570E00E94A50B0B5F1F4F0B3044
:10183000110508F04BC025962B9708F047C081E0B2
:1018400090E012C081309105A1F48DE290E060E05B
:1018500070E00E94A50B085210400B301105B0F546
:101860002697A4F582E090E09093D5018093D4016F
:101870002DC08230910589F48DE290E06AE570E038
:101880000E94A50B085210400B301105F8F4259664
:101890002B97E0F483E090E0E7CF8330910591F45B
:1018A00080E090E06AE570E00E94A50B0B5F1F4F9F
:1018B0000B30110558F4C555D0402B9738F484E00F
:1018C00090E0D2CF049711F40E94BA0DDF91CF912E
:1018D0001F910F9108958091260087FD03C080E03D
:1018E00090E00FC08091260086FD05C08DE290E05B
:1018F00060E070E008C08091260085FD07C08DE2A1
:1019000090E06AE570E00E94A50B089580912600A2
:1019100084FD07C084E190E00E947B0B8DE290E0A3
:1019200006C08DE290E00E947B0B8AE090E00E946E
:10193000630B08958091260087FF25C080912600C3
:1019400086FD07C08EE190E00E947B0B8EE190E067
:1019500015C08091260085FD07C08CE390E00E94B1
:101960007B0B8CE390E00AC08091260084FD0BC0C5
:101970008AE590E00E947B0B8AE590E09093D3018A
:101980008093D201089580E090E00E947B0B10923A
:10199000D3011092D20108950F931F93CF93DF9339
:1019A0008C01C0E0D0E00DC080E090E0BE010E945C
:1019B0002705B8016C1B7D0B81E090E00E94270594
:1019C00021960C171D0784F7E80100E010E00DC018
:1019D00080E090E0BE010E94270581E090E0B80120
:1019E0000E94270521970F5F1F4F1C161D0684F3C9
:1019F000DF91CF911F910F9108950F931F9382E074
:101A000090E00E940D058C0182E090E00E94FA04B3
:101A1000C8010E94D20A1F910F9108950F931F933E
:101A2000CF93DF93EC010CEC11E014C082E090E066
:101A30000E94FD0C80E197E2F8013197F1F70197E0
:101A4000D9F78091CA019091CB0101969093CB0177
:101A50008093CA018091CA019091CB018C179D0798
:101A60002CF3DF91CF911F910F910895AA2797FD35
:101A7000A095BA2FBC01CD010E94231220918D01A7
:101A800030918E0140918F01509190010E94571327
:101A900020919101309192014091930150919401D4
:101AA0000E9488112091810130918201409183012F
:101AB000509184010E94BA102091850130918601D5
:101AC00040918701509188010E94881120918901DD
:101AD00030918A0140918B0150918C010E948811B4
:101AE00008950895CF93DF93482F80EF61307807F2
:101AF00014F461E070EFEB0180E16030780714F0DE
:101B0000CFEFDFE04834C9F04C3489F5D7FD0AC087
:101B100080E090E060E070E00E94270581E090E0C6
:101B2000BE0123C0662777276C1B7D0B80E090E009
:101B30000E94270581E090E009C0D7FD0AC082E03D
:101B400090E0BE010E94270583E090E060E070E035
:101B50000CC082E090E060E070E00E9427056627FC
:101B600077276C1B7D0B83E090E00E942705DF91B7
:101B7000CF91089580E090E060E070E00E9427053A
:101B800081E090E060E070E00E94270582E090E054
:101B900060E070E00E94270583E090E060E070E084
:101BA0000E94270508952F923F924F925F926F9265
:101BB0007F928F929F92AF92BF92CF92DF92EF92DD
:101BC000FF920F931F93DF93CF93CDB7DEB7689744
:101BD0000FB6F894DEBF0FBECDBF5C017B01889FBE
:101BE000B001899F700D989F700D1124882777FD93
:101BF0008095982F0E9423121B012C01EE9CB001AE
:101C0000EF9C700DFE9C700D1124882777FD809548
:101C1000982F0E9423126D8B7E8B8F8B988FC20121
:101C2000B1012D893E894F89588D0E94BB103B011F
:101C30004C0120E030E041E653E40E94BA1020E07D
:101C400030E040E853E40E94BA1020E030E040EF7A
:101C500053E40E9488110E94AC109B01AC015058C3
:101C600029833A834B835C830027F7FC0095102F70
:101C7000C801B7010E9423126D877E878F87988BDA
:101C8000CC24B7FCC094DC2CC601B5010E94231201
:101C9000698B7A8B8B8B9C8B6D857E858F859889E4
:101CA00029893A894B895C890E942E116D837E8334
:101CB0008F839887C401B3010E9430145B016C01CB
:101CC000C201B10120E030E041E653E40E94BB10C4
:101CD0002D893E894F89588D0E94BB1020E030E04D
:101CE00040E853E40E94BA107B018C01C601B501A3
:101CF00020E030E040EF51E40E9457139B01AC011B
:101D0000C801B7010E9488110E94AC1069877A87C8
:101D10008B879C876D817E818F81988529853A8507
:101D20004B855C850E94BB101B012C010E94851114
:101D30005B016C01C201B10129813A814B815C8157
:101D40000E94BB103B014C01C4010E9485117B0124
:101D50008C01C601B50120E030E040E751E40E946B
:101D600057135B016C01C801B70120E030E040E887
:101D700051E40E9457139B01AC01C601B5010E94BA
:101D8000BB100E94061429893A894B895C890E94FC
:101D90008111882359F5B301C4010E9426145B0107
:101DA0006C01C201B1010E94261420E030E040E73E
:101DB00051E40E9457137B018C01C601B50120E05C
:101DC00030E040E851E40E9457139B01AC01C80188
:101DD000B7010E94BB100E9406142D853E854F85D9
:101DE00058890E948111882309F467C06D817E8122
:101DF0008F81988529853A854B855C850E94BA102C
:101E00001B012C0129813A814B815C810E94BB100E
:101E10003B014C01C4010E9485115B016C01C201B0
:101E2000B1010E94851120E030E040E751E40E94BA
:101E300057137B018C01C601B50120E030E040E87A
:101E400051E40E9457139B01AC01C801B7010E94E5
:101E5000BB100E94061429893A894B895C890E942B
:101E600081118823D9F5B301C4010E9426145B01B6
:101E70006C01C201B1010E94261420E030E040E76D
:101E800051E40E9457137B018C01C601B50120E08B
:101E900030E040E851E40E9457139B01AC01C801B7
:101EA000B7010E94BB100E9406142D853E854F8508
:101EB00058890E948111882389F4C201B10120E070
:101EC00030E044E353E40E9457132BED3FE049E434
:101ED00050E40E9488115B016C0115C000D088E4B9
:101EE00091E0EDB7FEB7928381830E9404170F2E15
:101EF000F0E0AF2EF0E0BF2EF0E0CF2EF0E0DF2ECE
:101F0000F02D0F900F9069817A818B819C8120EE5A
:101F10003EE245E652E40E9457137B018C0120E02B
:101F200030E040E050E00E944C13C801B70120E0CF
:101F300030E044EB52E40E94BB103B014C01C6016F
:101F4000B5010E94F0117B018C01C401B3010E9414
:101F5000F0119B01AC01C701B9010E94A50B689665
:101F60000FB6F894DEBF0FBECDBFCF91DF911F91AA
:101F70000F91FF90EF90DF90CF90BF90AF909F9028
:101F80008F907F906F905F904F903F902F9008952B
:101F90009C01F8948130910569F082309105A9F097
:101FA0000097D9F416BC83E085BD81E080936E0074
:101FB00085BB13C0109285001092840081E080934D
:101FC000810080936F0086BB08C01092B20081E050
:101FD0008093B1008093700087BB6130710521F55B
:101FE0002130310569F022303105B1F0232BE1F4C5
:101FF00082E084BD15BC47BD80936E0085BB14C0D4
:1020000088E080938100509389004093880082E0AB
:1020100080936F0086BB08C082E08093B00040933D
:10202000B3008093700087BB78940895813039F0B5
:10203000813018F0823051F407C067BD0895709365
:1020400089006093880008956093B30008959B0110
:10205000AC0184E0220F331F441F551F8A95D1F72E
:1020600060E070E489E191E00E94911521503040D8
:102070003093C5002093C40088E18093C10086E0BE
:102080008093C2000895982F8091C00085FFFCCFF7
:102090009093C6000895FC0107C08091C00085FFA1
:1020A000FCCF9093C600319690819923B1F70895A3
:1020B0000F931F93DF93CF93CDB7DEB764970FB61F
:1020C000F894DEBF0FBECDBF2DB73EB728503040CD
:1020D0000FB6F8943EBF0FBE2DBFEDB7FEB73196D9
:1020E0008E010F5F1F4FADB7BEB712961C930E93B4
:1020F00011972DE531E033832283958384837783A1
:1021000066830E9419172DB73EB7285F3F4F0FB661
:10211000F8943EBF0FBE2DBFC8010E944B106496BD
:102120000FB6F894DEBF0FBECDBFCF91DF911F91E8
:102130000F91089585E991E09093F1018093F0016A
:1021400060E072EC81E090E00E94271008950E9408
:10215000600980E090E008959F939F77AFD10F9042
:1021600000203AF49058A2EA2AED3FE049E450E416
:1021700013D047C25058BB27AA270ED042C20BD259
:1021800030F010D220F031F49F3F11F41EF4DBC187
:102190000EF4E095E7FBD1C1E92F55D280F3BA17D1
:1021A000620773078407950718F071F49EF56DC2F6
:1021B0000EF4E0950B2EBA2FA02D0B01B901900162
:1021C0000C01CA01A0011124FF27591B99F0593FA6
:1021D00050F4503E68F11A16F040A22F232F342FEE
:1021E0004427585FF3CF469537952795A795F0403C
:1021F0005395C9F77EF41F16BA0B620B730B840B51
:10220000BAF09150A1F0FF0FBB1F661F771F881F08
:10221000C2F70EC0BA0F621F731F841F48F4879560
:1022200077956795B795F7959E3F08F0B3CF93954F
:10223000880F08F09927EE0F979587950895ABD1F1
:1022400058F080E891E009F49EEFACD128F040E826
:1022500051E059F45EEF09C076C117C2E92FE0786A
:10226000F2D168F3092E052AC1F32617370748076C
:10227000590738F00E2E07F8E02569F0E025E064F4
:102280000AC0EF6307F8009407FADB01B9019D016A
:10229000DC01CA01AD01EF934AD0B3D10AD05F91FE
:1022A000552331F02BED3FE049E450FD49EC63CF7D
:1022B0000895DF93DD27B92FBF7740E85FE3161657
:1022C000170648075B0710F4D92FEAD19F938F9325
:1022D0007F936F9303D3ECE7F0E038D192D12F9145
:1022E0003F914F915F91EFD1DD2349F09058A2EAE1
:1022F0002AED3FE049EC5FE3D0785D274DDFDF91C9
:1023000080C1F7D008F481E0089554D1E3958AC1E3
:102310000CD077C147D140F03ED130F021F45F3F7F
:1023200019F00BC15111B2C10EC18DD198F399238F
:10233000C9F35523B1F3951B550BBB27AA27621789
:102340007307840738F09F5F5F4F220F331F441FCE
:10235000AA1FA9F333D00E2E3AF0E0E830D0915006
:102360005040E695001CCAF729D0FE2F27D0660FF3
:10237000771F881FBB1F261737074807AB07B0E832
:1023800009F0BB0B802DBF01FF2793585F4F2AF048
:102390009E3F510568F0D1C079C15F3FECF3983E94
:1023A000DCF3869577956795B795F7959F5FC9F7A5
:1023B000880F911D9695879597F90895E1E0660F2E
:1023C000771F881FBB1F621773078407BA0720F0A7
:1023D000621B730B840BBA0BEE1F88F7E095089510
:1023E00004D06894B11152C1089535D188F09F5737
:1023F00090F0B92F9927B751A0F0D1F0660F771F51
:10240000881F991F1AF0BA95C9F712C0B13081F030
:102410003CD1B1E0089539C1672F782F8827B85F84
:1024200039F0B93FCCF3869577956795B395D9F791
:102430003EF490958095709561957F4F8F4F9F4F9B
:102440000895E89409C097FB3EF4909580957095A7
:1024500061957F4F8F4F9F4F9923A9F0F92F96E9F0
:10246000BB279395F695879577956795B795F11165
:10247000F8CFFAF4BB0F11F460FF1BC06F5F7F4F02
:102480008F4F9F4F16C0882311F096E911C0772314
:1024900021F09EE8872F762F05C0662371F096E81D
:1024A000862F70E060E02AF09A95660F771F881FEC
:1024B000DAF7880F9695879597F90895DF93CF936C
:1024C0001F930F938B01EC01E9EAF0E03FD099D024
:1024D0009801AE018B01EC0160E070E080E89FE3C1
:1024E00049DEBED19801AE010F911F91CF91DF91CE
:1024F000EAC0990F0008550FAA0BE0E8FEEF161688
:102500001706E807F907C0F012161306E407F507E7
:1025100098F0621B730B840B950B39F40A2661F05B
:10252000232B242B252B21F408950A2609F4A140FE
:10253000A6958FEF811D811D089597F99F6780E80B
:1025400070E060E008959FEF80EC0895DF93CF93F3
:102550001F930F93FF92EF92DF927B018C0168949F
:1025600005C0DA2EEF01AFD0FE01E894A5912591C8
:10257000359145915591AEF3EF010EDEFE019701C5
:10258000A801DA9479F7DF90EF90FF900F911F91F7
:10259000CF91DF91089500240A94161617061806A5
:1025A0000906089500240A94121613061406050657
:1025B0000895C9CF50D0E8F3E894E0E0BB279F57D7
:1025C000F0F02AED3FE049EC06C0EE0FBB0F661FAE
:1025D000771F881F28F0B23A62077307840728F034
:1025E000B25A620B730B840BE3959A9572F780389D
:1025F00030F49A95BB0F661F771F881FD2F790485B
:10260000BEC1092E0394000C11F4882352F0BB0FB5
:1026100040F4BF2B11F460FF04C06F5F7F4F8F4FFA
:102620009F4F0895EF93E0FF06C0A2EA2AED3FE036
:1026300049EC5FEBB1DDE5DF0F90039401FC9058AE
:10264000E1EDF0E0AFC157FD9058440F551F59F030
:102650005F3F71F04795880F97FB991F61F09F3F8F
:1026600079F087950895121613061406551FF2CFB8
:102670004695F1DF08C0161617061806991FF1CF08
:1026800086957105610508940895E894BB2766272F
:102690007727CB0197F908952CDF08F48FEF089581
:1026A0009B01AC0160E070E080E89FE331CE0BD08D
:1026B000A8CF71DF28F076DF18F0952309F03DCF21
:1026C00042CF1124E3CFBFDFA0F3959FD1F3950F45
:1026D00050E0551F629FF001729FBB27F00DB11DA6
:1026E000639FAA27F00DB11DAA1F649F6627B00D36
:1026F000A11D661F829F2227B00DA11D621F739F1F
:10270000B00DA11D621F839FA00D611D221F749F2C
:102710003327A00D611D231F849F600D211D822F73
:10272000762F6A2F11249F5750408AF0E1F08823BA
:102730004AF0EE0FFF1FBB1F661F771F881F9150C7
:102740005040A9F79E3F510570F0F7CE9FCF5F3FF5
:10275000ECF3983EDCF3869577956795B795F795FA
:10276000E7959F5FC1F7FE2B880F911D9695879582
:1027700097F90895FA01EE0FFF1F309621053105F4
:1027800099F16115710561F48038BFE39B0749F148
:1027900068949038810561F08038BFEF9B0741F065
:1027A000992342F5FF3FE1053105210511F1E89438
:1027B0000894E795D901AA2329F4AB2FBE2FF85F1F
:1027C000D0F310C0FF5F70F4A695E0F7F73950F032
:1027D00019F0FF3A38F49F779F930CD00F9007FCC5
:1027E000905808953EF0AFCE60E070E080E89FE33F
:1027F00008954FE79F775F934F933F932F931ED199
:102800002F913F914F915F9152DF70C024DFE0F034
:102810009E37D8F09639B8F49E3848F4672F782F51
:102820008827985FF9CF8695779567959395953921
:10283000D0F3B62FB1706B0F711D811D20F48795F9
:102840007795679593957EC098C020CF9F93B2DE11
:102850000F9007FCEE5FE6CE11F40EF474CE8DC03F
:10286000FADED0F39923D9F3CEF39F57550B87FFA8
:1028700092D00024A0E640EA9001805856959795A2
:1028800028F4805C660F771F881F20F02617370713
:10289000480730F4621B730B840B202931294A2B23
:1028A000A69517940794202531254A2758F7660FD7
:1028B000771F881F20F026173707480730F4620B70
:1028C000730B840B200D311D411DA09581F7B901BB
:1028D000842F9158880F9695879508959B01AC0198
:1028E000E6CE19F40EF029CED0CE2DCEB4DEC8F34C
:1028F0009638C0F707F80F92E8942BE33AEA48EBD2
:102900005FE7E3DE0F920F920F924DB75EB70F9223
:10291000D5D0EFEEF0E01ADE4F915F91EF91FF918D
:10292000E595EE1FFF1F49F0FE57E0684427EE0FC4
:10293000441FFA95E1F74195550B47D00F9007FEDC
:10294000AFCE0895882371F4772321F09850872B18
:10295000762F07C0662311F499270DC09051862B5E
:1029600070E060E02AF09A95660F771F881FDAF70B
:10297000880F9695879597F908959F3F31F091506C
:1029800020F4879577956795B795880F911D969553
:10299000879597F9089591505040660F771F881FCB
:1029A000D2F708959F938F937F936F93FF93EF9345
:1029B0009B01AC017CDEEF91FF91C8DD2F913F912F
:1029C0004F915F9174CEB9CDD8CF45DEE8F399230E
:1029D000D9F3940F511DBBF39150504094F059F02E
:1029E000882332F0660F771F881F91505040C1F73F
:1029F0009E3F510544F7880F911D9695879597F94D
:102A000008955F3FACF0983E9CF0BB278695779584
:102A10006795B79508F4B1609395C1F7BB0F58F768
:102A200011F460FFE8CF6F5F7F4F8F4F9F4FE3CF71
:102A30002DCE0EF0A2CF87CD68947FCD0CDEC8F3EB
:102A40009923D1F3C6F3DF93CF931F930F93FF9294
:102A5000C92FDD2788232AF02197660F771F881F4B
:102A6000DAF720E030E040E85FEB9FE3883920F0C0
:102A7000803E30F021968F777EDBE7E1F1E003C006
:102A80007ADBE4E4F1E062DD8B01BE01EC01FB2EB8
:102A90006F5771097595771F880B990BD4DC28E166
:102AA00032E741E35FE30FDEAF2D9801AE01FF9007
:102AB0000F911F91CF91DF916FDBA3CDFA01DC0164
:102AC000AA0FBB1F9B01AC01BF5728F42227332755
:102AD000442750781FC0B75188F4AB2F0024469587
:102AE00037952795011CA395D2F3002069F0220F9A
:102AF000331F441FB395DAF30DD03CCB6130710521
:102B0000A0E88A07B94630F49B01AC016627772715
:102B100088279078309621F0208331834283538335
:102B20000895A1E21A2EAA1BBB1BFD010DC0AA1F0E
:102B3000BB1FEE1FFF1FA217B307E407F50720F026
:102B4000A21BB30BE40BF50B661F771F881F991FA1
:102B50001A9469F760957095809590959B01AC01EA
:102B6000BD01CF0108952F923F924F925F926F92D5
:102B70007F928F929F92AF92BF92CF92DF92EF920D
:102B8000FF920F931F93CF93DF93CDB7DEB7CA1B8E
:102B9000DB0B0FB6F894DEBF0FBECDBF09942A88B9
:102BA000398848885F846E847D848C849B84AA8461
:102BB000B984C884DF80EE80FD800C811B81AA81EE
:102BC000B981CE0FD11D0FB6F894DEBF0FBECDBFB9
:102BD000ED010895283008F027E03327DA01990F36
:102BE000311D87FD916000966105710539F43260F1
:102BF0002E5F3D9330E32A95E1F708959F3F30F033
:102C000080387105610509F03C5F3C5F3D93913070
:102C100008F08068911DDF93CF931F930F93FF926D
:102C2000EF92192F987F9695E92F96959695E90F33
:102C3000FF27ED52FE4F99273327EE24FF24A701EB
:102C4000E70105900894079428F4360FE71EF81E54
:102C5000491F511D660F771F881F991F0694A1F702
:102C60000590079428F4E70EF81E491F561FC11D52
:102C7000770F881F991F661F0694A1F70590079488
:102C800028F4F80E491F561FC71FD11D880F991F22
:102C9000661F771F0694A1F70590079420F4490F4B
:102CA000561FC71FD81F990F661F771F881F0694CE
:102CB000A9F784911095177041F0D695C79557954F
:102CC0004795F794E7941A95C1F7E9E7F1E068941E
:102CD0001590159135916591959105907FE27395C9
:102CE000E118F10A430B560BC90BD009C0F7E10CF0
:102CF000F11E431F561FC91FD01D7EF4703311F4FF
:102D00008A95E6CFE894015030F0080F0AF40027C6
:102D1000021708F4202F2395022F7A3328F079E345
:102D20007D932A95E9F710C07D932A9589F606943C
:102D300097956795379517951794E118F10A430B06
:102D4000560BC90BD00998F023957E9173957A3371
:102D500008F070E37C932013B8F77E9170617D9347
:102D600030F0839571E37D9370E32A95E1F71124A8
:102D7000EF90FF900F911F91CF91DF91992787FDE1
:102D800090950895FC010590615070400110D8F7AE
:102D9000809590958E0F9F1F0895FC0161507040A3
:102DA00001900110D8F7809590958E0F9F1F089580
:102DB0000F931F93CF93DF938C01EB018B8181FFE6
:102DC0001BC082FF0DC02E813F818C819D81281701
:102DD000390764F4E881F9810193F983E88306C037
:102DE000E885F985802F0995892B31F48E819F81A3
:102DF00001969F838E8302C00FEF1FEFC801DF9102
:102E0000CF911F910F910895A0E0B0E0EAE0F7E1C3
:102E10000C94C315FE013596619171918091F0017A
:102E20009091F101AF010E9459012096E2E00C94CB
:102E3000DF15AEE0B0E0EFE1F7E10C94C1150D89CC
:102E40001E8986E08C831A8309838FEF9FE79E8318
:102E50008D839E01275E3F4FCE0101966F89788D4D
:102E6000A9010E9459012F813885020F131FF80113
:102E700010822E96E4E00C94DD15FA01AA27283082
:102E800051F1203181F1E8946F936E7F6E5F7F4F37
:102E90008F4F9F4FAF4FB1E03ED0B4E03CD0670FB3
:102EA000781F891F9A1FA11D680F791F8A1F911D06
:102EB000A11D6A0F711D811D911DA11D20D009F456
:102EC00068943F912AE0269F11243019305D319398
:102ED000DEF6CF010895462F4770405D4193B3E081
:102EE0000FD0C9F7F6CF462F4F70405D4A3318F028
:102EF000495D31FD4052419302D0A9F7EACFB4E0D9
:102F0000A6959795879577956795BA95C9F7009790
:102F10006105710508959B01AC010A2E0694579531
:102F2000479537952795BA95C9F7620F731F841F88
:0A2F3000951FA01D0895F894FFCF2F
:102F3A0047466F7263653A2025660A0D006D696C13
:102F4A006C69566F6C74733A202566200A0D002549
:102F5A0064202564202566200A0D0041726D2041F7
:102F6A006E676C653A202564200A0D0025642025C9
:102F7A0064202564200A0D004E6F20416E676C653F
:102F8A007320746F206265206D61646500536574F7
:102F9A00736572766F2825642C25303364290A0DEF
:102FAA000001000000A040AE47613ED74C4E3F2DC5
:102FBA00009A9929400000A041CDCC4C3D0000A0C8
:102FCA004000C07F440000000200000000A710007B
:042FDA0000000000F3
:00000001FF
