:100000000C94BF000C94DC000C94DC000C94DC001D
:100010000C94DC000C94DC000C94DC000C94DC00F0
:100020000C94DC000C94DC000C94DC000C94DC00E0
:100030000C94DC000C94DC000C94DC000C94DC00D0
:100040000C94DC000C94DC000C94DC000C94DC00C0
:100050000C94DC000C94DC000C94DC000C94DC00B0
:100060000C94DC000C94DC000C94DC000C94DC00A0
:100070000C94DC000C94DC000C94DC006E616E00CF
:10008000696E660000407A10F35A00A0724E18099B
:100090000010A5D4E80000E87648170000E40B54EF
:1000A000020000CA9A3B000000E1F50500008096BE
:1000B0009800000040420F000000A08601000000F0
:1000C000102700000000E8030000000064000000AA
:1000D00000000A00000000000100000000002C7673
:1000E000D888DC674F0823DFC1DFAE59E1B1B7968E
:1000F000E5E3E453C63AE651997696E8E6C28426EB
:10010000EB898C9B62ED407C6FFCEFBC9C9F40F2C6
:10011000BAA56FA5F490055A2AF75C936B6CF96742
:100120006DC11BFCE0E40D47FEF520E6B500D0ED07
:10013000902E0300943577050080841E080000206F
:100140004E0A000000C80C333333330F986E12830D
:100150001141EF8D2114893BE65516CFFEE6DB18E1
:10016000D1844B381BF77C1D901DA4BBE4242032A6
:1001700084725E228100C9F124ECA1E53D2711249F
:100180001FBECFEFD0E1DEBFCDBF11E0A0E0B1E0F8
:10019000E6EDFBE102C005900D92A635B107D9F757
:1001A00011E0A6E5B1E001C01D92A03AB107E1F768
:1001B0000E9428080C94E90D0C940000A1E1B0E025
:1001C000E4EEF0E00C94010C3C017F876E876A013D
:1001D000FC0117821682838181FD03C06FEF7FEFE0
:1001E0006FC39E012F5F3F4F398B288BF301238113
:1001F000EE85FF8523FD859123FF8191FF87EE87A3
:10020000882309F45AC3853251F4EE85FF8523FD16
:10021000859123FF8191FF87EE87853229F490E055
:10022000B3010E94260DE2CF982F10E08824992474
:100230001032B0F49B3269F09C3228F4903251F0C5
:10024000933271F40BC09D3239F0903349F4116050
:1002500028C01260146025C0186023C0106121C03E
:1002600017FD2AC0892F80538A3078F416FF06C004
:10027000FAE09F9E902C1124980E13C03AE0839EC2
:10028000802C1124880E10620CC09E3221F416FDC1
:1002900014C3106406C09C3611F4106802C098366E
:1002A00059F4EE85FF8523FD959123FF9191FF87FA
:1002B000EE87992309F0BCCF892F8554833020F431
:1002C000812F8061905E07C0892F8556833008F0AA
:1002D0009FC1812F8F7E86FD02C076E0972E6FE34F
:1002E000F62EF822953619F4F0E4FF2A07C0963668
:1002F00019F420E8F22A02C091109A94F7FE0AC07D
:100300003BE3391518F45CE3B52E02C0B92CB39465
:1003100027E009C047E0491520F4BB2447E0942EAC
:10032000F7CF292DBB24C60104969D878C87F60143
:100330006081718182819381AE014F5F5F4F0B2D90
:100340000E94380C6C010981202E332400FF04C068
:1003500003FD02C01DE209C0F1FE02C01BE205C0A0
:10036000F2FC02C010E001C010E2C1018C7090707C
:10037000892BB9F1112311F483E001C084E08815C1
:1003800010F088240AC0881AF3FC07C080E290E0CD
:10039000B3010E94260D8A94C9F7112329F0812FF9
:1003A00090E0B3010E94260D23FE03C00CE710E08D
:1003B0000EC000E810E00BC0E114F10409F0805217
:1003C00090E0B3010E94260D0F5F1F4F05C0EF2C78
:1003D000FF24F0E1EF22FF24F8018491882361F7E4
:1003E00014C1F7FE12C0BC0C24FE04C08A81813304
:1003F00009F4BA941B141CF0BB24B3942DC0F8E08C
:10040000FB1550F538E0B32E27C0F6FC25C0892D2A
:1004100090E08C159D054CF02CEFC2162FEFD20604
:1004200024F030E8F32A01C09A94992049F0E2E0E0
:10043000F0E0EC0FFD1FE90DF11D80818033A1F389
:10044000F7FE0AC0B92CB394892D90E0C816D906DE
:1004500014F0992401C09C18F7FC03C025E030E09B
:1004600009C01C141D041CF021E030E003C09601FB
:100470002F5F3F4F112311F02F5F3F4F992029F03D
:10048000892D90E00196280F391F882D90E02817BC
:10049000390714F0882401C0821A4F2C5524C20158
:1004A00089709070892B39F008C080E290E0B30128
:1004B0000E94260D8A948820C1F7112329F0812FEC
:1004C00090E0B3010E94260D43FE07C008C080E300
:1004D00090E0B3010E94260D8A948820C1F7F7FEB0
:1004E00046C08601D7FE02C000E010E07601089405
:1004F000E11CF11CE01AF10A41E050E04C0F5D1FD5
:10050000E40EF51E26014B185108892D90E0AA240F
:10051000BB24A81AB90A5FEF0F3F150729F48EE232
:1005200090E0B3010E94260DC016D10634F04016AB
:1005300051061CF4F701808101C080E30150104096
:100540000894E11CF11C0A151B052CF090E0B30186
:100550000E94260DE0CF0C151D0539F49A819633C3
:1005600018F4953311F424FE81E390E04BC08A81A6
:10057000813309F00F7E90E0B3010E94260D99208F
:10058000A1F08EE290E0B3010E94260D12E0E1E0BE
:10059000F0E0EC0FFD1FE10FF11D1F5F808190E087
:1005A000B3010E94260D9A9491F744FC03C085E69E
:1005B00090E002C085E490E0B3010E94260DD7FCD4
:1005C00005C0C114D10441F404FF06C0D094C19405
:1005D000D108D3948DE201C08BE290E0B3010E9478
:1005E000260D80E305C08F5F26EF3FEFC20ED31EBE
:1005F0003AE0C316D104BCF790E0B3010E94260D87
:10060000C601C096B3010E94260DCC84DD8452C180
:10061000933631F0933799F0933509F059C023C0E0
:10062000F601808189835E010894A11CB11C22E03F
:1006300030E0C20ED31E21E0E22EF12C12C0F601F2
:10064000A080B18016FD03C06FEF7FEF02C0692D5F
:1006500070E022E030E0C20ED31EC5010E941B0DE7
:100660007C011F7713C0F601A080B18016FD03C086
:100670006FEF7FEF02C0692D70E022E030E0C20E24
:10068000D31EC5010E94100D7C01106813FF07C026
:100690001BC080E290E0B3010E94260D8A94882D51
:1006A00090E0E816F906A8F30FC0F50117FD859153
:1006B00017FF81915F0190E0B3010E94260D811028
:1006C0008A940894E108F108E114F10471F7F2C08A
:1006D000943611F0993689F517FF08C0F60120818C
:1006E00031814281538184E090E00AC0F60180812B
:1006F00091819C01442737FD4095542F82E090E082
:10070000C80ED91E9FE6F92EF12257FF09C0509559
:100710004095309521953F4F4F4F5F4F90E8F92A14
:10072000CA01B901AE014F5F5F4F2AE030E00E947D
:100730008B0DE82EE889EE1A41C0953721F41F7E13
:100740002AE030E01CC0197F9F3661F0903720F41A
:10075000983509F0B2C00FC0903739F0983709F0DA
:10076000ACC004C028E030E00AC0106114FD146081
:1007700020E130E004C014FD166020E132E017FFF4
:1007800008C0F601608171818281938144E050E06C
:1007900008C0F60180819181BC0180E090E042E0D8
:1007A00050E0C40ED51EAE014F5F5F4F0E948B0D0F
:1007B000E82E5889E51A8FE7F82EF122F6FE0BC0D5
:1007C0008EEFF822E91438F4F4FE07C0F2FC05C0FD
:1007D0009FEEF92202C01E2D01C0192DF4FE0DC09E
:1007E000FE01EE0DF11D8081803319F4E9EEFE2249
:1007F00008C01F5FF2FE05C003C08F2D867809F088
:100800001F5F0F2DF3FC14C0F0FE0FC0181510F081
:100810009E2C0BC09E2C980C911A182D06C080E2BD
:1008200090E0B3010E94260D1F5F1815C0F304C0AD
:10083000181510F4811A01C0882404FF0FC080E34A
:1008400090E0B3010E94260D02FF1DC001FD03C010
:1008500088E790E00EC088E590E00BC0802F867896
:1008600091F001FF02C08BE201C080E2F7FC8DE253
:1008700090E0B3010E94260D06C080E390E0B30132
:100880000E94260D9A94E914C0F3EA94E1E0F0E0A6
:10089000EC0FFD1FEE0DF11D808190E0B3010E9471
:1008A000260DEE2091F706C080E290E0B3010E9491
:1008B000260D8A948820C1F799CCF301668177814F
:1008C000CB016196E2E10C941D0C91B121E030E086
:1008D00002C0220F331F8A95E2F7822F8095892369
:1008E00081B9EEE7F0E08081282B208390E490939B
:1008F0007C0087E880937A0090937B00089591B103
:1009000021E030E002C0220F331F8A95E2F72095E4
:10091000292321B910927900E8E7F0E010821182D2
:100920001082089590917C00982B90937C001092F7
:10093000640080917A00806480937A0080917A00CC
:1009400086FDFCCF2091780030917900C90108958F
:10095000806480937C000895EF92FF920F931F9321
:10096000482FCB0120E16030720714F08FEF9FE039
:100970007C010027F7FC0095102F80912B008F7EC3
:1009800080932B00842F80630E94B006D801C7019A
:1009900024E0B695A795979587952A95D1F70E945B
:1009A000B0068FE090E0A0E0B0E0E822F9220A2350
:1009B0001B238E2D8295807F0E94B00680912B0094
:1009C000806180932B0080912B008F7E80932B0081
:1009D00080912B00806180932B001F910F91FF90DD
:1009E000EF900895CF92DF92EF92FF920F931F93B3
:1009F000883419F08C3491F519C0409382015093DA
:100A000083016093840170938501009386011093A4
:100A100087012093880130938901C0928A01D09286
:100A20008B01E0928C01F0928D0118C040938E01F1
:100A300050938F0160939001709391010093920104
:100A4000109393012093940130939501C0929601E5
:100A5000D0929701E0929801F09299011F910F9125
:100A6000FF90EF90DF90CF9008956F927F928F92DA
:100A70009F92AF92BF92CF92DF92EF92FF920F932D
:100A80001F93182FCA01861B970BAA2797FDA095C5
:100A9000BA2FBC01CD010E94F00A3B014C01183471
:100AA00009F079C0209162013091630140916401A5
:100AB000509165010E94F0092AE037ED43E25CE3C2
:100AC0000E94550A5B016C0160935A0170935B01AF
:100AD00080935C0190935D01E0908601F090870126
:100AE0000091880110918901C801B701A401930107
:100AF0000E947C0B20915E0130915F01409160016A
:100B0000509161010E94F1099B01AC0160935E016B
:100B100070935F018093600190936101C801B701F8
:100B20000E947C0B7B018C01C601B50120918A01DA
:100B300030918B0140918C0150918D010E947C0B72
:100B40009B01AC01C801B7010E94F1097B018C0136
:100B5000C401B3012091820130918301409184014D
:100B6000509185010E947C0B9B01AC01C801B7012B
:100B70000E94F109609378017093790180937A0162
:100B800090937B0160926201709263018092640194
:100B9000909265016EC02091700130917101409179
:100BA0007201509173010E94F0092AE037ED43E28F
:100BB0005CE30E94550A5B016C01609368017093CD
:100BC000690180936A0190936B01C401B3012AE02B
:100BD00037ED43E25CE30E947C0B20916C01309185
:100BE0006D0140916E0150916F010E94F109609377
:100BF0006C0170936D0180936E0190936F01209151
:100C000092013091930140919401509195010E947D
:100C10007C0B7B018C01C601B501209196013091BE
:100C2000970140919801509199010E947C0B9B0182
:100C3000AC01C801B7010E94F1097B018C01C4011C
:100C4000B30120918E0130918F014091900150911C
:100C500091010E947C0B9B01AC01C801B7010E946D
:100C6000F1096093740170937501809376019093FC
:100C700077010E94BD0ACB011F910F91FF90EF9069
:100C8000DF90CF90BF90AF909F908F907F906F90AC
:100C9000089587E090E00E94A80487E090E00E9419
:100CA0009204A0E0B0E0BC01CD010E94EE0A24E86D
:100CB0003BE240EA5BE30E947C0B60938E01709301
:100CC0008F01809390019093910186E090E00E94C3
:100CD000A80486E090E00E949204A0E0B0E0BC018D
:100CE000CD010E94EE0A20E030EC4FE754E40E9470
:100CF000550A6093920170939301809394019093AD
:100D0000950185E090E00E94A80485E090E00E94B3
:100D10009204A0E0B0E0BC01CD010E94EE0A20EDFB
:100D200032E240E05AE30E947C0B6093960170939C
:100D30009701809398019093990182E090E00E943E
:100D4000A804089580EB84B990E195B910926400ED
:100D500082ED8CBD8FE787B99AB988B99BB90895A0
:100D60008EBD0DB407FEFDCF8EB508959B01AC017D
:100D700064E0220F331F441F551F6A95D1F760E0CE
:100D800070E489E191E00E94DF0BC901DA0101976B
:100D9000A109B109292F3A2F4B2F55270196A11DE3
:100DA000B11D2093CD0081508093CC0088E18093C9
:100DB000C9000895982F8091C80085FFFCCF9093BB
:100DC000CE0008958091C80087FFFCCF8091CE00AF
:100DD0000895855B9F4FAA2797FDA095BA2FBC0168
:100DE000CD010E94F00A2FE135E84BE65EE30E9458
:100DF000550A0E94BD0ACB0108956F927F928F928F
:100E00009F92AF92BF92CF92DF92EF92FF920F9399
:100E10001F9382E090E00E94A80482E090E00E948C
:100E200092047C0180E090E00E94A80480E090E0C1
:100E30000E9492040E94C4085C010027F7FC009500
:100E4000102FC801B7010E94F00A3B014C018DB779
:100E50009EB70C970FB6F8949EBF0FBE8DBF0DB70F
:100E60001EB70F5F1F4F80E091E0EDB7FEB7928392
:100E700081838091800190918101F8019383828325
:100E8000C401B3012FE135E84BE65EE30E947C0B21
:100E900020E030E046E952E40E94F0090E94C20AD4
:100EA000F80175836483C401B3012EE037E64CE991
:100EB00050E40E947C0B0E94C20AF801778366838B
:100EC000CC24B7FCC094DC2CC601B5010E94F00A0A
:100ED000F80160877187828793870E94520D8DB7D2
:100EE0009EB70C960FB6F8949EBF0FBE8DBF1F9194
:100EF0000F91FF90EF90DF90CF90BF90AF909F90B9
:100F00008F907F906F900895AF92BF92CF92DF92B3
:100F1000EF92FF920F931F935C01B501882777FD35
:100F20008095982F0E94F00A7B018C018DB79EB7A7
:100F300008970FB6F8949EBF0FBE8DBFCDB6DEB634
:100F40000894C11CD11C8FE091E0EDB7FEB79283ED
:100F50008183F601B382A282C801B7012EE037E691
:100F60004CE950E40E947C0B0E94C20AF601758392
:100F70006483C801B7012FE135E84BE65EE30E94C8
:100F80007C0B20E030E046E952E40E94F0090E9428
:100F9000C20AF601778366830E94520D8DB79EB711
:100FA00008960FB6F8949EBF0FBE8DBF1F910F918C
:100FB000FF90EF90DF90CF90BF90AF9008950F9388
:100FC0001F930E94E9068C0182E090E00E94920447
:100FD000AC018CE4B8010E943505BC018CE40E9490
:100FE00002091F910F91089587B187B9809126005A
:100FF00087FF25C08091260086FD07C08EE190E026
:101000000E94DF078EE190E015C08091260085FDEB
:1010100007C08CE390E00E94DF078CE390E00AC0F9
:101020008091260084FD0BC08AE590E00E94DF07D6
:101030008AE590E09093810180938001089580E09B
:1010400090E00E94DF0710928101109280010895C4
:10105000CF92DF92EF92FF920F931F930E946B0942
:1010600060E072EC81E090E00E94B60682E090E0E1
:101070000E9465040E94A2068CE440E050E060E219
:1010800072E400E010E020E03FE30F2EFAE0CF2E04
:10109000F7EDDF2EF3EAEF2EFBE3FF2EF02D0E949B
:1010A000F2048AE590E00E94DF070E94F4070E94A4
:1010B000FD06FBCF0F931F93CF93DF938C01C0E00E
:1010C000D0E00DC080E090E0BE010E94AC04B80109
:1010D0006C1B7D0B81E090E00E94AC0421960C1704
:1010E0001D0784F7E80100E010E00DC080E090E00B
:1010F000BE010E94AC0481E090E0B8010E94AC0403
:1011000021970F5F1F4F1C161D0684F3DF91CF91AF
:101110001F910F9108950F931F9382E090E00E941A
:1011200092048C0182E090E00E947F04C8010E943A
:1011300084071F910F9108950F931F93CF93DF930F
:10114000EC010CEC11E014C082E090E00E948B08EE
:1011500080E197E2F8013197F1F70197D9F7809193
:101160007C0190917D01019690937D0180937C019B
:1011700080917C0190917D018C179D072CF3DF916C
:10118000CF911F910F910895AA2797FDA095BA2F8F
:10119000BC01CD010E94F00A20913F013091400135
:1011A00040914101509142010E947C0B20914301EA
:1011B0003091440140914501509146010E94550AE9
:1011C0002091330130913401409135015091360125
:1011D0000E94F00920913701309138014091390186
:1011E00050913A010E94550A20913B0130913C01F7
:1011F00040913D0150913E010E94550A0895089585
:1012000008950895CF93DF93482F80EF61307807DA
:1012100014F461E070EFEB0180E16030780714F0C6
:10122000CFEFDFE04834C1F04C3469F5D7FD09C099
:1012300080E090E060E070E00E94AC0481E090E02B
:101240001FC0662777276C1B7D0B80E090E00E9413
:10125000AC0481E090E009C0D7FD0AC082E090E0D4
:10126000BE010E94AC0483E090E060E070E009C041
:1012700082E090E060E070E00E94AC0483E090E0E7
:10128000BE010E94AC04DF91CF91089580E090E010
:1012900060E070E00E94AC0481E090E060E070E00B
:1012A0000E94AC0482E090E060E070E00E94AC0438
:1012B00083E090E060E070E00E94AC040895EEE608
:1012C000F0E0808181608083789485B5826085BDFF
:1012D000089567BD089587E491E090939D01809300
:1012E0009C0160E072EC81E090E00E947D0908952D
:1012F0000E94DA0680E090E008959B01AC0184E052
:10130000220F331F441F551F8A95D1F760E070E408
:1013100089E191E00E94DF0B215030403093C500FD
:101320002093C40088E18093C10086E08093C200CE
:101330000895982F8091C00085FFFCCF9093C60040
:101340000895FC0107C08091C00085FFFCCF9093F9
:10135000C600319690819923B1F708950F931F939A
:10136000DF93CF93CDB7DEB764970FB6F894DEBFA7
:101370000FBECDBF2DB73EB7285030400FB6F89402
:101380003EBF0FBE2DBFEDB7FEB731968E010F5F8A
:101390001F4FADB7BEB712961C930E9311972BE15A
:1013A00031E03383228395838483778366830E942D
:1013B000670D2DB73EB7285F3F4F0FB6F8943EBF7D
:1013C0000FBE2DBFC8010E94A10964960FB6F89404
:1013D000DEBF0FBECDBFCF91DF911F910F9108955A
:1013E0005058BB27AA270ED04DC13ED130F043D173
:1013F00020F031F49F3F11F41EF433C10EF4E09558
:10140000E7FB29C1E92F4FD180F3BA1762077307B1
:101410008407950718F071F49EF567C10EF4E09506
:101420000B2EBA2FA02D0B01B90190010C01CA019E
:10143000A0011124FF27591B99F0593F50F4503E49
:1014400068F11A16F040A22F232F342F4427585F3B
:10145000F3CF469537952795A795F0405395C9F753
:101460007EF41F16BA0B620B730B840BBAF091500B
:10147000A1F0FF0FBB1F661F771F881FC2F70EC0AA
:10148000BA0F621F731F841F48F48795779567957D
:10149000B795F7959E3F08F0B3CF9395880F08F066
:1014A0009927EE0F9795879508950CD0EBC0E3D060
:1014B00040F0DAD030F021F45F3F19F0CCC0511188
:1014C00015C1CFC0F0D098F39923C9F35523B1F3D8
:1014D000951B550BBB27AA2762177307840738F0A3
:1014E0009F5F5F4F220F331F441FAA1FA9F333D002
:1014F0000E2E3AF0E0E830D091505040E695001CB6
:10150000CAF729D0FE2F27D0660F771F881FBB1F71
:10151000261737074807AB07B0E809F0BB0B802D4B
:10152000BF01FF2793585F4F2AF09E3F510568F097
:1015300092C0DCC05F3FECF3983EDCF38695779574
:101540006795B795F7959F5FC9F7880F911D969599
:10155000879597F90895E1E0660F771F881FBB1FF5
:10156000621773078407BA0720F0621B730B840BA2
:10157000BA0BEE1F88F7E095089504D06894B11176
:10158000B5C0089598D088F09F5790F0B92F99274B
:10159000B751A0F0D1F0660F771F881F991F1AF07E
:1015A000BA95C9F712C0B13081F09FD0B1E008956B
:1015B0009CC0672F782F8827B85F39F0B93FCCF3EC
:1015C000869577956795B395D9F73EF49095809574
:1015D000709561957F4F8F4F9F4F0895E89409C094
:1015E00097FB3EF490958095709561957F4F8F4F56
:1015F0009F4F9923A9F0F92F96E9BB279395F6956C
:10160000879577956795B795F111F8CFFAF4BB0FE9
:1016100011F460FF1BC06F5F7F4F8F4F9F4F16C04D
:10162000882311F096E911C0772321F09EE8872FD7
:10163000762F05C0662371F096E8862F70E060E093
:101640002AF09A95660F771F881FDAF7880F96950C
:10165000879597F9089597F99F6780E870E060E0B3
:1016600008959FEF80EC089500240A94161617063B
:1016700018060906089500240A9412161306140683
:1016800005060895092E0394000C11F4882352F0E6
:10169000BB0F40F4BF2B11F460FF04C06F5F7F4F9E
:1016A0008F4F9F4F089557FD9058440F551F59F085
:1016B0005F3F71F04795880F97FB991F61F09F3F3F
:1016C00079F087950895121613061406551FF2CF68
:1016D0004695F1DF08C0161617061806991FF1CFB8
:1016E00086957105610508940895E894BB276627DF
:1016F0007727CB0197F908950BD0C4CFB5DF28F039
:10170000BADF18F0952309F0A6CFABCF1124EECFA6
:10171000CADFA0F3959FD1F3950F50E0551F629F4C
:10172000F001729FBB27F00DB11D639FAA27F00D3A
:10173000B11DAA1F649F6627B00DA11D661F829F61
:101740002227B00DA11D621F739FB00DA11D621F46
:10175000839FA00D611D221F749F3327A00D611D63
:10176000231F849F600D211D822F762F6A2F112445
:101770009F5750408AF0E1F088234AF0EE0FFF1F98
:10178000BB1F661F771F881F91505040A9F79E3FCF
:10179000510570F060CFAACF5F3FECF3983EDCF3C9
:1017A000869577956795B795F795E7959F5FC1F70C
:1017B000FE2B880F911D9695879597F90895A1E2C4
:1017C0001A2EAA1BBB1BFD010DC0AA1FBB1FEE1FBB
:1017D000FF1FA217B307E407F50720F0A21BB30B06
:1017E000E40BF50B661F771F881F991F1A9469F782
:1017F00060957095809590959B01AC01BD01CF01DE
:1018000008952F923F924F925F926F927F928F92A4
:101810009F92AF92BF92CF92DF92EF92FF920F937F
:101820001F93CF93DF93CDB7DEB7CA1BDB0B0FB689
:10183000F894DEBF0FBECDBF09942A883988488846
:101840005F846E847D848C849B84AA84B984C884DC
:10185000DF80EE80FD800C811B81AA81B981CE0FD3
:10186000D11D0FB6F894DEBF0FBECDBFED010895B8
:10187000283008F027E03327DA01990F311D87FD62
:10188000916000966105710539F432602E5F3D93D9
:1018900030E32A95E1F708959F3F30F080387105D5
:1018A000610509F03C5F3C5F3D93913008F0806832
:1018B000911DDF93CF931F930F93FF92EF92192FF8
:1018C000987F9695E92F96959695E90FFF27E25216
:1018D000FF4F99273327EE24FF24A701E701059046
:1018E0000894079428F4360FE71EF81E491F511D6F
:1018F000660F771F881F991F0694A1F7059007941C
:1019000028F4E70EF81E491F561FC11D770F881FC8
:10191000991F661F0694A1F70590079428F4F80E06
:10192000491F561FC71FD11D880F991F661F771F9C
:101930000694A1F70590079420F4490F561FC71F7E
:10194000D81F990F661F771F881F0694A9F78491E7
:101950001095177041F0D695C79557954795F79410
:10196000E7941A95C1F7E4E8F0E0689415901591B2
:1019700035916591959105907FE27395E118F10A93
:10198000430B560BC90BD009C0F7E10CF11E431FE6
:10199000561FC91FD01D7EF4703311F48A95E6CF0F
:1019A000E894015030F0080F0AF40027021708F4F9
:1019B000202F2395022F7A3328F079E37D932A95FF
:1019C000E9F710C07D932A9589F606949795679557
:1019D000379517951794E118F10A430B560BC90B6D
:1019E000D00998F023957E9173957A3308F070E3CF
:1019F0007C932013B8F77E9170617D9330F08395CE
:101A000071E37D9370E32A95E1F71124EF90FF9045
:101A10000F911F91CF91DF91992787FD90950895A0
:101A2000FC010590615070400110D8F780959095A9
:101A30008E0F9F1F0895FC016150704001900110AE
:101A4000D8F7809590958E0F9F1F08950F931F9341
:101A5000CF93DF938C01EB018B8181FF1BC082FF51
:101A60000DC02E813F818C819D812817390764F438
:101A7000E881F9810193F983E88306C0E885F98557
:101A8000802F0995892B31F48E819F8101969F8348
:101A90008E8302C00FEF1FEFC801DF91CF911F911E
:101AA0000F910895A0E0B0E0E8E5FDE00C94110C82
:101AB000FE0135966191719180919C0190919D01FB
:101AC000AF010E94DE002096E2E00C942D0CAEE007
:101AD000B0E0EDE6FDE00C940F0C0D891E8986E068
:101AE0008C831A8309838FEF9FE79E838D839E01EA
:101AF000275E3F4FCE0101966F89788DA9010E9424
:101B0000DE002F813885020F131FF80110822E96F8
:101B1000E4E00C942B0CFA01AA27283051F1203173
:101B200081F1E8946F936E7F6E5F7F4F8F4F9F4F71
:101B3000AF4FB1E03ED0B4E03CD0670F781F891FB3
:101B40009A1FA11D680F791F8A1F911DA11D6A0F81
:101B5000711D811D911DA11D20D009F468943F9134
:101B60002AE0269F11243019305D3193DEF6CF0133
:101B70000895462F4770405D4193B3E00FD0C9F7F9
:101B8000F6CF462F4F70405D4A3318F0495D31FD66
:101B90004052419302D0A9F7EACFB4E0A6959795B9
:101BA000879577956795BA95C9F70097610571058F
:101BB00008959B01AC010A2E0694579547953795D9
:101BC0002795BA95C9F7620F731F841F951FA01D33
:061BD0000895F894FFCF18
:101BD6002573202564202564202566200A0D00250E
:101BE60064202564202564200A0D005365747365FE
:101BF60072766F2825642C25303364290A0D00017E
:101C0600002D009A9929400000A041CDCC4C3D0002
:101C160000A04000C07F44000000020000000078E1
:061C2600090000000000AF
:00000001FF
